8=FIX.4.4|9=67|35=A|34=1|49=CLIENT|52=20250116-17:41:58.069|56=SERVER|98=0|108=30|10=163|
8=FIX.4.4|9=67|35=A|34=1|49=SERVER|52=20250116-17:41:58.089|56=CLIENT|98=0|108=30|10=165|
8=FIX.4.4|9=55|35=0|34=2|49=CLIENT|52=20250116-17:42:28.064|56=SERVER|10=112|
8=FIX.4.4|9=55|35=0|34=2|49=SERVER|52=20250116-17:42:28.295|56=CLIENT|10=118|
8=FIX.4.4|9=55|35=0|34=3|49=CLIENT|52=20250116-17:42:58.067|56=SERVER|10=119|
8=FIX.4.4|9=55|35=0|34=3|49=SERVER|52=20250116-17:42:58.299|56=CLIENT|10=126|
8=FIX.4.4|9=55|35=0|34=4|49=CLIENT|52=20250116-17:43:28.072|56=SERVER|10=114|
8=FIX.4.4|9=55|35=0|34=4|49=SERVER|52=20250116-17:43:28.294|56=CLIENT|10=120|
8=FIX.4.4|9=55|35=0|34=5|49=SERVER|52=20250116-17:43:58.301|56=CLIENT|10=113|
8=FIX.4.4|9=55|35=0|34=5|49=CLIENT|52=20250116-17:43:58.311|56=SERVER|10=114|
8=FIX.4.4|9=67|35=A|34=6|49=CLIENT|52=20250116-17:44:54.403|56=SERVER|98=0|108=30|10=159|
8=FIX.4.4|9=67|35=A|34=6|49=SERVER|52=20250116-17:44:54.431|56=CLIENT|98=0|108=30|10=160|
8=FIX.4.4|9=55|35=0|34=7|49=CLIENT|52=20250116-17:45:24.405|56=SERVER|10=115|
8=FIX.4.4|9=55|35=0|34=7|49=SERVER|52=20250116-17:45:24.804|56=CLIENT|10=118|
8=FIX.4.4|9=55|35=0|34=8|49=CLIENT|52=20250116-17:45:54.404|56=SERVER|10=118|
8=FIX.4.4|9=55|35=0|34=8|49=SERVER|52=20250116-17:45:54.808|56=CLIENT|10=126|
8=FIX.4.4|9=67|35=A|34=9|49=CLIENT|52=20250116-17:48:15.531|56=SERVER|98=0|108=30|10=165|
8=FIX.4.4|9=67|35=A|34=9|49=SERVER|52=20250116-17:48:15.551|56=CLIENT|98=0|108=30|10=167|
8=FIX.4.4|9=56|35=0|34=10|49=SERVER|52=20250116-17:48:45.599|56=CLIENT|10=178|
8=FIX.4.4|9=56|35=0|34=10|49=CLIENT|52=20250116-17:48:45.601|56=SERVER|10=162|
8=FIX.4.4|9=56|35=0|34=11|49=SERVER|52=20250116-17:49:15.606|56=CLIENT|10=166|
8=FIX.4.4|9=56|35=0|34=11|49=CLIENT|52=20250116-17:49:15.607|56=SERVER|10=167|
8=FIX.4.4|9=56|35=0|34=12|49=SERVER|52=20250116-17:49:45.611|56=CLIENT|10=166|
8=FIX.4.4|9=56|35=0|34=12|49=CLIENT|52=20250116-17:49:45.612|56=SERVER|10=167|
8=FIX.4.4|9=56|35=0|34=13|49=SERVER|52=20250116-17:50:15.605|56=CLIENT|10=159|
8=FIX.4.4|9=56|35=0|34=13|49=CLIENT|52=20250116-17:50:15.611|56=SERVER|10=156|
8=FIX.4.4|9=56|35=0|34=14|49=SERVER|52=20250116-17:50:45.600|56=CLIENT|10=158|
8=FIX.4.4|9=56|35=0|34=14|49=CLIENT|52=20250116-17:50:46.527|56=SERVER|10=167|
8=FIX.4.4|9=68|35=A|34=15|49=CLIENT|52=20250116-17:52:02.965|56=SERVER|98=0|108=30|10=213|
8=FIX.4.4|9=68|35=A|34=15|49=SERVER|52=20250116-17:52:02.986|56=CLIENT|98=0|108=30|10=216|
8=FIX.4.4|9=68|35=A|34=16|49=CLIENT|52=20250116-17:53:23.029|56=SERVER|98=0|108=30|10=209|
8=FIX.4.4|9=68|35=A|34=16|49=SERVER|52=20250116-17:53:23.047|56=CLIENT|98=0|108=30|10=209|
8=FIX.4.4|9=68|35=A|34=17|49=CLIENT|52=20250116-17:57:23.060|56=SERVER|98=0|108=30|10=209|
8=FIX.4.4|9=68|35=A|34=17|49=SERVER|52=20250116-17:57:23.092|56=CLIENT|98=0|108=30|10=214|
8=FIX.4.4|9=56|35=0|34=18|49=CLIENT|52=20250116-17:57:53.055|56=SERVER|10=172|
8=FIX.4.4|9=56|35=0|34=18|49=SERVER|52=20250116-17:57:53.870|56=CLIENT|10=177|
8=FIX.4.4|9=56|35=0|34=19|49=CLIENT|52=20250116-17:58:23.050|56=SERVER|10=166|
8=FIX.4.4|9=56|35=0|34=19|49=SERVER|52=20250116-17:58:23.878|56=CLIENT|10=184|
8=FIX.4.4|9=56|35=0|34=20|49=CLIENT|52=20250116-17:58:53.049|56=SERVER|10=169|
8=FIX.4.4|9=56|35=0|34=20|49=SERVER|52=20250116-17:58:53.877|56=CLIENT|10=178|
8=FIX.4.4|9=56|35=0|34=21|49=CLIENT|52=20250116-17:59:23.054|56=SERVER|10=164|
8=FIX.4.4|9=56|35=0|34=21|49=SERVER|52=20250116-17:59:24.868|56=CLIENT|10=178|
8=FIX.4.4|9=56|35=0|34=22|49=CLIENT|52=20250116-17:59:53.056|56=SERVER|10=170|
8=FIX.4.4|9=56|35=0|34=22|49=SERVER|52=20250116-17:59:54.867|56=CLIENT|10=181|
8=FIX.4.4|9=56|35=0|34=23|49=CLIENT|52=20250116-18:00:23.054|56=SERVER|10=153|
8=FIX.4.4|9=56|35=0|34=23|49=SERVER|52=20250116-18:00:24.866|56=CLIENT|10=165|
8=FIX.4.4|9=56|35=0|34=24|49=CLIENT|52=20250116-18:00:53.060|56=SERVER|10=154|
8=FIX.4.4|9=56|35=0|34=24|49=SERVER|52=20250116-18:00:54.865|56=CLIENT|10=168|
8=FIX.4.4|9=56|35=0|34=25|49=CLIENT|52=20250116-18:01:23.059|56=SERVER|10=161|
8=FIX.4.4|9=56|35=0|34=25|49=SERVER|52=20250116-18:01:24.869|56=CLIENT|10=171|
8=FIX.4.4|9=56|35=0|34=26|49=CLIENT|52=20250116-18:01:53.052|56=SERVER|10=158|
8=FIX.4.4|9=56|35=0|34=26|49=SERVER|52=20250116-18:01:54.871|56=CLIENT|10=168|
8=FIX.4.4|9=68|35=A|34=27|49=CLIENT|52=20250116-18:10:50.780|56=SERVER|98=0|108=30|10=209|
8=FIX.4.4|9=68|35=A|34=27|49=SERVER|52=20250116-18:10:50.798|56=CLIENT|98=0|108=30|10=218|
8=FIX.4.4|9=56|35=0|34=28|49=SERVER|52=20250116-18:11:21.044|56=CLIENT|10=157|
8=FIX.4.4|9=56|35=0|34=29|49=CLIENT|52=20250116-18:11:21.045|56=SERVER|10=159|
8=FIX.4.4|9=66|35=2|34=29|49=SERVER|52=20250116-18:11:21.046|56=CLIENT|7=28|16=0|10=087|
8=FIX.4.4|9=130|35=D|34=28|43=Y|49=CLIENT|52=20250116-18:11:21.058|56=SERVER|122=20250116-18:10:50.792|11=12345|38=100|40=2|44=100.5|54=1|55=AAPL|10=198|
8=FIX.4.4|9=99|35=4|34=29|43=Y|49=CLIENT|52=20250116-18:11:21.059|56=SERVER|122=20250116-18:11:21.059|36=30|123=Y|10=227|
8=FIX.4.4|9=115|35=3|34=30|49=SERVER|52=20250116-18:11:21.059|56=CLIENT|45=28|58=Required tag missing, field=60|371=60|372=D|373=1|10=154|
8=FIX.4.4|9=56|35=0|34=31|49=SERVER|52=20250116-18:11:51.057|56=CLIENT|10=158|
8=FIX.4.4|9=56|35=0|34=30|49=CLIENT|52=20250116-18:11:51.061|56=SERVER|10=152|
8=FIX.4.4|9=56|35=0|34=32|49=SERVER|52=20250116-18:12:21.055|56=CLIENT|10=155|
8=FIX.4.4|9=56|35=0|34=31|49=CLIENT|52=20250116-18:12:21.056|56=SERVER|10=155|
8=FIX.4.4|9=56|35=0|34=33|49=SERVER|52=20250116-18:12:51.055|56=CLIENT|10=159|
8=FIX.4.4|9=56|35=0|34=32|49=CLIENT|52=20250116-18:12:51.057|56=SERVER|10=160|
8=FIX.4.4|9=68|35=A|34=33|49=CLIENT|52=20250116-18:19:55.307|56=SERVER|98=0|108=30|10=215|
8=FIX.4.4|9=68|35=A|34=34|49=SERVER|52=20250116-18:19:55.324|56=CLIENT|98=0|108=30|10=215|
8=FIX.4.4|9=56|35=0|34=35|49=SERVER|52=20250116-18:20:26.200|56=CLIENT|10=154|
8=FIX.4.4|9=56|35=0|34=35|49=CLIENT|52=20250116-18:20:26.202|56=SERVER|10=156|
8=FIX.4.4|9=66|35=2|34=36|49=SERVER|52=20250116-18:20:26.205|56=CLIENT|7=34|16=0|10=084|
8=FIX.4.4|9=155|35=D|34=34|43=Y|49=CLIENT|52=20250116-18:20:26.219|56=SERVER|122=20250116-18:19:55.320|11=12345|38=100|40=2|44=100.5|54=1|55=AAPL|60=20250116-18:19:55.306|10=169|
8=FIX.4.4|9=99|35=4|34=35|43=Y|49=CLIENT|52=20250116-18:20:26.220|56=SERVER|122=20250116-18:20:26.220|36=36|123=Y|10=220|
8=FIX.4.4|9=56|35=0|34=36|49=CLIENT|52=20250116-18:20:56.301|56=SERVER|10=160|
8=FIX.4.4|9=56|35=0|34=37|49=SERVER|52=20250116-18:20:56.302|56=CLIENT|10=162|
8=FIX.4.4|9=56|35=0|34=37|49=CLIENT|52=20250116-18:21:26.301|56=SERVER|10=159|
8=FIX.4.4|9=56|35=0|34=38|49=SERVER|52=20250116-18:21:26.305|56=CLIENT|10=164|
8=FIX.4.4|9=56|35=0|34=38|49=CLIENT|52=20250116-18:21:56.297|56=SERVER|10=177|
8=FIX.4.4|9=56|35=0|34=39|49=SERVER|52=20250116-18:21:56.303|56=CLIENT|10=166|
8=FIX.4.4|9=56|35=0|34=39|49=CLIENT|52=20250116-18:22:26.293|56=SERVER|10=172|
8=FIX.4.4|9=56|35=0|34=40|49=SERVER|52=20250116-18:22:26.298|56=CLIENT|10=169|
8=FIX.4.4|9=56|35=0|34=40|49=CLIENT|52=20250116-18:22:56.298|56=SERVER|10=172|
8=FIX.4.4|9=56|35=0|34=41|49=SERVER|52=20250116-18:22:56.303|56=CLIENT|10=160|
8=FIX.4.4|9=56|35=0|34=41|49=CLIENT|52=20250116-18:23:26.307|56=SERVER|10=162|
8=FIX.4.4|9=56|35=0|34=42|49=SERVER|52=20250116-18:23:26.310|56=CLIENT|10=157|
8=FIX.4.4|9=56|35=0|34=42|49=CLIENT|52=20250116-18:23:56.299|56=SERVER|10=176|
8=FIX.4.4|9=56|35=0|34=43|49=SERVER|52=20250116-18:23:56.303|56=CLIENT|10=163|
8=FIX.4.4|9=56|35=0|34=43|49=CLIENT|52=20250116-18:24:26.300|56=SERVER|10=158|
8=FIX.4.4|9=56|35=0|34=44|49=SERVER|52=20250116-18:24:26.302|56=CLIENT|10=161|
8=FIX.4.4|9=56|35=0|34=44|49=CLIENT|52=20250116-18:24:56.293|56=SERVER|10=173|
8=FIX.4.4|9=56|35=0|34=45|49=SERVER|52=20250116-18:24:56.296|56=CLIENT|10=177|
8=FIX.4.4|9=56|35=0|34=45|49=CLIENT|52=20250116-18:25:26.296|56=SERVER|10=175|
8=FIX.4.4|9=56|35=0|34=46|49=SERVER|52=20250116-18:25:26.301|56=CLIENT|10=163|
8=FIX.4.4|9=56|35=0|34=46|49=CLIENT|52=20250116-18:25:56.304|56=SERVER|10=169|
8=FIX.4.4|9=56|35=0|34=47|49=SERVER|52=20250116-18:25:56.308|56=CLIENT|10=174|
8=FIX.4.4|9=56|35=0|34=47|49=CLIENT|52=20250116-18:26:26.294|56=SERVER|10=176|
8=FIX.4.4|9=56|35=0|34=48|49=SERVER|52=20250116-18:26:27.187|56=CLIENT|10=179|
8=FIX.4.4|9=56|35=0|34=48|49=CLIENT|52=20250116-18:26:56.306|56=SERVER|10=174|
8=FIX.4.4|9=56|35=0|34=49|49=SERVER|52=20250116-18:26:57.194|56=CLIENT|10=181|
8=FIX.4.4|9=56|35=0|34=49|49=CLIENT|52=20250116-18:27:26.307|56=SERVER|10=174|
8=FIX.4.4|9=56|35=0|34=50|49=SERVER|52=20250116-18:27:27.198|56=CLIENT|10=175|
8=FIX.4.4|9=56|35=0|34=50|49=CLIENT|52=20250116-18:27:56.306|56=SERVER|10=168|
8=FIX.4.4|9=56|35=0|34=51|49=SERVER|52=20250116-18:27:57.195|56=CLIENT|10=176|
8=FIX.4.4|9=56|35=0|34=51|49=CLIENT|52=20250116-18:28:26.307|56=SERVER|10=168|
8=FIX.4.4|9=56|35=0|34=52|49=SERVER|52=20250116-18:28:28.190|56=CLIENT|10=171|
8=FIX.4.4|9=56|35=0|34=52|49=CLIENT|52=20250116-18:28:57.292|56=SERVER|10=176|
8=FIX.4.4|9=56|35=0|34=53|49=SERVER|52=20250116-18:28:58.199|56=CLIENT|10=184|
8=FIX.4.4|9=56|35=0|34=53|49=CLIENT|52=20250116-18:29:27.304|56=SERVER|10=169|
8=FIX.4.4|9=56|35=0|34=54|49=SERVER|52=20250116-18:29:28.196|56=CLIENT|10=180|
8=FIX.4.4|9=56|35=0|34=55|49=SERVER|52=20250116-18:29:58.194|56=CLIENT|10=182|
8=FIX.4.4|9=56|35=0|34=54|49=CLIENT|52=20250116-18:29:58.194|56=SERVER|10=181|
8=FIX.4.4|9=56|35=0|34=56|49=SERVER|52=20250116-18:30:28.187|56=CLIENT|10=174|
8=FIX.4.4|9=56|35=0|34=55|49=CLIENT|52=20250116-18:30:28.187|56=SERVER|10=173|
8=FIX.4.4|9=56|35=0|34=57|49=SERVER|52=20250116-18:30:58.196|56=CLIENT|10=178|
8=FIX.4.4|9=56|35=0|34=56|49=CLIENT|52=20250116-18:30:58.201|56=SERVER|10=164|
8=FIX.4.4|9=56|35=0|34=58|49=SERVER|52=20250116-18:31:28.188|56=CLIENT|10=178|
8=FIX.4.4|9=56|35=0|34=57|49=CLIENT|52=20250116-18:31:28.300|56=SERVER|10=163|
8=FIX.4.4|9=68|35=A|34=58|49=CLIENT|52=20250116-18:35:06.121|56=SERVER|98=0|108=30|10=210|
8=FIX.4.4|9=68|35=A|34=60|49=CLIENT|52=20250116-18:35:36.103|56=SERVER|98=0|108=30|10=206|
8=FIX.4.4|9=68|35=A|34=61|49=CLIENT|52=20250116-18:36:06.101|56=SERVER|98=0|108=30|10=203|
8=FIX.4.4|9=68|35=A|34=62|49=CLIENT|52=20250116-18:36:38.601|56=SERVER|98=0|108=30|10=214|
8=FIX.4.4|9=68|35=A|34=64|49=CLIENT|52=20250116-18:37:08.601|56=SERVER|98=0|108=30|10=214|
8=FIX.4.4|9=68|35=A|34=65|49=CLIENT|52=20250116-18:37:38.592|56=SERVER|98=0|108=30|10=227|
8=FIX.4.4|9=68|35=A|34=66|49=CLIENT|52=20250116-18:38:08.587|56=SERVER|98=0|108=30|10=230|
8=FIX.4.4|9=68|35=A|34=67|49=CLIENT|52=20250116-18:38:39.588|56=SERVER|98=0|108=30|10=236|
8=FIX.4.4|9=68|35=A|34=68|49=CLIENT|52=20250116-18:39:09.591|56=SERVER|98=0|108=30|10=229|
8=FIX.4.4|9=68|35=A|34=69|49=CLIENT|52=20250116-18:42:17.326|56=SERVER|98=0|108=30|10=219|
8=FIX.4.4|9=68|35=A|34=59|49=SERVER|52=20250116-18:42:17.343|56=CLIENT|98=0|108=30|10=217|
8=FIX.4.4|9=66|35=2|34=60|49=SERVER|52=20250116-18:42:17.344|56=CLIENT|7=58|16=0|10=095|
8=FIX.4.4|9=99|35=4|34=58|43=Y|49=CLIENT|52=20250116-18:42:17.361|56=SERVER|122=20250116-18:42:17.360|36=59|123=Y|10=249|
8=FIX.4.4|9=155|35=D|34=59|43=Y|49=CLIENT|52=20250116-18:42:17.360|56=SERVER|122=20250116-18:35:06.135|11=12345|38=100|40=2|44=100.5|54=1|55=AAPL|60=20250116-18:35:06.106|10=167|
8=FIX.4.4|9=99|35=4|34=60|43=Y|49=CLIENT|52=20250116-18:42:17.362|56=SERVER|122=20250116-18:42:17.361|36=63|123=Y|10=239|
8=FIX.4.4|9=155|35=D|34=63|43=Y|49=CLIENT|52=20250116-18:42:17.361|56=SERVER|122=20250116-18:36:38.614|11=12345|38=100|40=2|44=100.5|54=1|55=AAPL|60=20250116-18:36:38.599|10=193|
8=FIX.4.4|9=99|35=4|34=64|43=Y|49=CLIENT|52=20250116-18:42:17.362|56=SERVER|122=20250116-18:42:17.362|36=70|123=Y|10=242|
8=FIX.4.4|9=155|35=D|34=70|43=Y|49=CLIENT|52=20250116-18:42:17.362|56=SERVER|122=20250116-18:42:17.338|11=12345|38=100|40=2|44=100.5|54=1|55=AAPL|60=20250116-18:42:17.324|10=169|
8=FIX.4.4|9=56|35=0|34=61|49=SERVER|52=20250116-18:42:48.211|56=CLIENT|10=163|
8=FIX.4.4|9=56|35=0|34=71|49=CLIENT|52=20250116-18:42:48.213|56=SERVER|10=166|
8=FIX.4.4|9=56|35=0|34=72|49=CLIENT|52=20250116-18:43:18.311|56=SERVER|10=164|
8=FIX.4.4|9=56|35=0|34=62|49=SERVER|52=20250116-18:43:18.312|56=CLIENT|10=164|
8=FIX.4.4|9=68|35=A|34=73|49=CLIENT|52=20250116-18:44:13.736|56=SERVER|98=0|108=30|10=217|
8=FIX.4.4|9=68|35=A|34=63|49=SERVER|52=20250116-18:44:13.805|56=CLIENT|98=0|108=30|10=213|
8=FIX.4.4|9=56|35=0|34=64|49=SERVER|52=20250116-18:44:44.328|56=CLIENT|10=173|
8=FIX.4.4|9=56|35=0|34=75|49=CLIENT|52=20250116-18:44:44.329|56=SERVER|10=176|
8=FIX.4.4|9=66|35=2|34=65|49=SERVER|52=20250116-18:44:44.330|56=CLIENT|7=74|16=0|10=095|
8=FIX.4.4|9=155|35=D|34=74|43=Y|49=CLIENT|52=20250116-18:44:44.341|56=SERVER|122=20250116-18:44:13.750|11=12345|38=100|40=2|44=100.5|54=1|55=AAPL|60=20250116-18:44:13.735|10=172|
8=FIX.4.4|9=99|35=4|34=75|43=Y|49=CLIENT|52=20250116-18:44:44.342|56=SERVER|122=20250116-18:44:44.342|36=76|123=Y|10=250|
8=FIX.4.4|9=68|35=A|34=76|49=CLIENT|52=20250116-18:45:10.443|56=SERVER|98=0|108=30|10=213|
8=FIX.4.4|9=68|35=A|34=78|49=CLIENT|52=20250116-18:45:12.294|56=SERVER|98=0|108=30|10=221|
8=FIX.4.4|9=56|35=0|34=66|49=SERVER|52=20250116-18:45:14.330|56=CLIENT|10=166|
8=FIX.4.4|9=56|35=0|34=76|49=CLIENT|52=20250116-18:45:14.735|56=SERVER|10=176|
8=FIX.4.4|9=68|35=A|34=77|49=CLIENT|52=20250116-18:45:29.567|56=SERVER|98=0|108=30|10=231|
8=FIX.4.4|9=68|35=A|34=78|49=CLIENT|52=20250116-18:45:40.455|56=SERVER|98=0|108=30|10=221|
8=FIX.4.4|9=68|35=A|34=80|49=CLIENT|52=20250116-18:45:42.289|56=SERVER|98=0|108=30|10=221|
8=FIX.4.4|9=56|35=0|34=77|49=CLIENT|52=20250116-18:45:44.742|56=SERVER|10=178|
8=FIX.4.4|9=56|35=0|34=67|49=SERVER|52=20250116-18:45:44.749|56=CLIENT|10=184|
8=FIX.4.4|9=68|35=A|34=79|49=CLIENT|52=20250116-18:45:59.574|56=SERVER|98=0|108=30|10=234|
8=FIX.4.4|9=68|35=A|34=79|49=CLIENT|52=20250116-18:46:10.455|56=SERVER|98=0|108=30|10=220|
8=FIX.4.4|9=68|35=A|34=80|49=CLIENT|52=20250116-18:46:10.864|56=SERVER|98=0|108=30|10=216|
8=FIX.4.4|9=68|35=A|34=81|49=CLIENT|52=20250116-18:46:12.287|56=SERVER|98=0|108=30|10=218|
8=FIX.4.4|9=56|35=0|34=78|49=CLIENT|52=20250116-18:46:14.735|56=SERVER|10=179|
8=FIX.4.4|9=56|35=0|34=68|49=SERVER|52=20250116-18:46:15.327|56=CLIENT|10=176|
8=FIX.4.4|9=68|35=A|34=80|49=CLIENT|52=20250116-18:46:29.573|56=SERVER|98=0|108=30|10=223|
8=FIX.4.4|9=68|35=A|34=80|49=CLIENT|52=20250116-18:46:40.443|56=SERVER|98=0|108=30|10=212|
8=FIX.4.4|9=68|35=A|34=82|49=CLIENT|52=20250116-18:46:40.864|56=SERVER|98=0|108=30|10=221|
8=FIX.4.4|9=68|35=A|34=82|49=CLIENT|52=20250116-18:46:42.285|56=SERVER|98=0|108=30|10=220|
8=FIX.4.4|9=56|35=0|34=79|49=CLIENT|52=20250116-18:46:44.731|56=SERVER|10=179|
8=FIX.4.4|9=56|35=0|34=69|49=SERVER|52=20250116-18:46:45.323|56=CLIENT|10=176|
8=FIX.4.4|9=68|35=A|34=81|49=CLIENT|52=20250116-18:46:59.569|56=SERVER|98=0|108=30|10=232|
8=FIX.4.4|9=68|35=A|34=83|49=CLIENT|52=20250116-18:47:10.860|56=SERVER|98=0|108=30|10=216|
8=FIX.4.4|9=68|35=A|34=81|49=CLIENT|52=20250116-18:47:11.471|56=SERVER|98=0|108=30|10=213|
8=FIX.4.4|9=68|35=A|34=83|49=CLIENT|52=20250116-18:47:13.297|56=SERVER|98=0|108=30|10=223|
8=FIX.4.4|9=56|35=0|34=80|49=CLIENT|52=20250116-18:47:14.739|56=SERVER|10=177|
8=FIX.4.4|9=56|35=0|34=70|49=SERVER|52=20250116-18:47:15.319|56=CLIENT|10=171|
8=FIX.4.4|9=68|35=A|34=82|49=CLIENT|52=20250116-18:47:30.568|56=SERVER|98=0|108=30|10=222|
8=FIX.4.4|9=68|35=A|34=84|49=CLIENT|52=20250116-18:47:40.868|56=SERVER|98=0|108=30|10=228|
8=FIX.4.4|9=68|35=A|34=82|49=CLIENT|52=20250116-18:47:41.442|56=SERVER|98=0|108=30|10=215|
8=FIX.4.4|9=68|35=A|34=84|49=CLIENT|52=20250116-18:47:43.289|56=SERVER|98=0|108=30|10=228|
8=FIX.4.4|9=56|35=0|34=81|49=CLIENT|52=20250116-18:47:44.736|56=SERVER|10=178|
8=FIX.4.4|9=56|35=0|34=71|49=SERVER|52=20250116-18:47:45.331|56=CLIENT|10=169|
8=FIX.4.4|9=68|35=A|34=83|49=CLIENT|52=20250116-18:48:00.561|56=SERVER|98=0|108=30|10=214|
8=FIX.4.4|9=68|35=A|34=83|49=CLIENT|52=20250116-18:48:11.450|56=SERVER|98=0|108=30|10=213|
8=FIX.4.4|9=68|35=A|34=85|49=CLIENT|52=20250116-18:48:11.856|56=SERVER|98=0|108=30|10=225|
8=FIX.4.4|9=68|35=A|34=85|49=CLIENT|52=20250116-18:48:13.299|56=SERVER|98=0|108=30|10=228|
8=FIX.4.4|9=56|35=0|34=82|49=CLIENT|52=20250116-18:48:14.734|56=SERVER|10=175|
8=FIX.4.4|9=56|35=0|34=72|49=SERVER|52=20250116-18:48:15.324|56=CLIENT|10=170|
8=FIX.4.4|9=68|35=A|34=83|49=CLIENT|52=20250116-18:48:47.858|56=SERVER|98=0|108=30|10=234|
8=FIX.4.4|9=68|35=A|34=73|49=SERVER|52=20250116-18:48:47.938|56=CLIENT|98=0|108=30|10=232|
8=FIX.4.4|9=56|35=0|34=85|49=CLIENT|52=20250116-18:49:18.854|56=SERVER|10=186|
8=FIX.4.4|9=66|35=2|34=74|49=SERVER|52=20250116-18:49:18.856|56=CLIENT|7=84|16=0|10=115|
8=FIX.4.4|9=155|35=D|34=84|43=Y|49=CLIENT|52=20250116-18:49:18.869|56=SERVER|122=20250116-18:48:47.879|11=12345|38=100|40=2|44=100.5|54=1|55=AAPL|60=20250116-18:48:47.855|10=231|
8=FIX.4.4|9=99|35=4|34=85|43=Y|49=CLIENT|52=20250116-18:49:18.869|56=SERVER|122=20250116-18:49:18.869|36=86|123=Y|10=036|
8=FIX.4.4|9=56|35=0|34=75|49=SERVER|52=20250116-18:49:48.887|56=CLIENT|10=194|
8=FIX.4.4|9=56|35=0|34=86|49=CLIENT|52=20250116-18:49:48.888|56=SERVER|10=197|
8=FIX.4.4|9=56|35=0|34=76|49=SERVER|52=20250116-18:50:18.900|56=CLIENT|10=170|
8=FIX.4.4|9=56|35=0|34=87|49=CLIENT|52=20250116-18:50:18.903|56=SERVER|10=175|
8=FIX.4.4|9=56|35=0|34=77|49=SERVER|52=20250116-18:50:48.896|56=CLIENT|10=188|
8=FIX.4.4|9=56|35=0|34=88|49=CLIENT|52=20250116-18:50:48.897|56=SERVER|10=191|
8=FIX.4.4|9=68|35=A|34=89|49=CLIENT|52=20250116-18:51:28.157|56=SERVER|98=0|108=30|10=225|
8=FIX.4.4|9=68|35=A|34=78|49=SERVER|52=20250116-18:51:28.225|56=CLIENT|98=0|108=30|10=219|
8=FIX.4.4|9=56|35=0|34=91|49=CLIENT|52=20250116-18:51:58.160|56=SERVER|10=170|
8=FIX.4.4|9=66|35=2|34=79|49=SERVER|52=20250116-18:51:58.162|56=CLIENT|7=90|16=0|10=104|
8=FIX.4.4|9=155|35=D|34=90|43=Y|49=CLIENT|52=20250116-18:51:58.174|56=SERVER|122=20250116-18:51:28.169|11=12345|38=100|40=2|44=100.5|54=1|55=AAPL|60=20250116-18:51:28.155|10=185|
8=FIX.4.4|9=99|35=4|34=91|43=Y|49=CLIENT|52=20250116-18:51:58.175|56=SERVER|122=20250116-18:51:58.175|36=92|123=Y|10=004|
8=FIX.4.4|9=68|35=A|34=92|49=CLIENT|52=20250116-18:52:21.423|56=SERVER|98=0|108=30|10=209|
8=FIX.4.4|9=56|35=0|34=80|49=SERVER|52=20250116-18:52:28.879|56=CLIENT|10=183|
8=FIX.4.4|9=56|35=0|34=92|49=CLIENT|52=20250116-18:52:28.880|56=SERVER|10=178|
8=FIX.4.4|9=68|35=A|34=93|49=CLIENT|52=20250116-18:52:33.354|56=SERVER|98=0|108=30|10=216|
8=FIX.4.4|9=68|35=A|34=94|49=CLIENT|52=20250116-18:52:51.410|56=SERVER|98=0|108=30|10=210|
8=FIX.4.4|9=56|35=0|34=81|49=SERVER|52=20250116-18:52:58.890|56=CLIENT|10=180|
8=FIX.4.4|9=56|35=0|34=93|49=CLIENT|52=20250116-18:52:58.891|56=SERVER|10=184|
8=FIX.4.4|9=68|35=A|34=95|49=CLIENT|52=20250116-18:53:03.342|56=SERVER|98=0|108=30|10=213|
8=FIX.4.4|9=68|35=A|34=95|49=CLIENT|52=20250116-18:53:21.411|56=SERVER|98=0|108=30|10=210|
8=FIX.4.4|9=56|35=0|34=82|49=SERVER|52=20250116-18:53:28.883|56=CLIENT|10=181|
8=FIX.4.4|9=56|35=0|34=94|49=CLIENT|52=20250116-18:53:28.886|56=SERVER|10=187|
8=FIX.4.4|9=68|35=A|34=96|49=CLIENT|52=20250116-18:53:33.342|56=SERVER|98=0|108=30|10=217|
8=FIX.4.4|9=68|35=A|34=96|49=CLIENT|52=20250116-18:53:51.418|56=SERVER|98=0|108=30|10=221|
8=FIX.4.4|9=56|35=0|34=83|49=SERVER|52=20250116-18:53:58.886|56=CLIENT|10=188|
8=FIX.4.4|9=56|35=0|34=95|49=CLIENT|52=20250116-18:53:58.887|56=SERVER|10=192|
8=FIX.4.4|9=68|35=A|34=97|49=CLIENT|52=20250116-18:54:03.349|56=SERVER|98=0|108=30|10=223|
8=FIX.4.4|9=68|35=A|34=97|49=CLIENT|52=20250116-18:54:22.419|56=SERVER|98=0|108=30|10=222|
8=FIX.4.4|9=56|35=0|34=84|49=SERVER|52=20250116-18:54:28.882|56=CLIENT|10=183|
8=FIX.4.4|9=56|35=0|34=96|49=CLIENT|52=20250116-18:54:28.884|56=SERVER|10=188|
8=FIX.4.4|9=68|35=A|34=98|49=CLIENT|52=20250116-18:54:34.343|56=SERVER|98=0|108=30|10=222|
8=FIX.4.4|9=68|35=A|34=98|49=CLIENT|52=20250116-18:54:52.417|56=SERVER|98=0|108=30|10=224|
8=FIX.4.4|9=56|35=0|34=85|49=SERVER|52=20250116-18:54:58.881|56=CLIENT|10=186|
8=FIX.4.4|9=56|35=0|34=97|49=CLIENT|52=20250116-18:54:58.885|56=SERVER|10=193|
8=FIX.4.4|9=68|35=A|34=99|49=CLIENT|52=20250116-18:55:04.351|56=SERVER|98=0|108=30|10=220|
8=FIX.4.4|9=69|35=A|34=101|49=CLIENT|52=20250116-18:56:25.476|56=SERVER|98=0|108=30|10=009|
8=FIX.4.4|9=68|35=A|34=86|49=SERVER|52=20250116-18:56:25.542|56=CLIENT|98=0|108=30|10=222|
8=FIX.4.4|9=66|35=2|34=87|49=SERVER|52=20250116-18:56:25.543|56=CLIENT|7=98|16=0|10=113|
8=FIX.4.4|9=100|35=4|34=98|43=Y|49=CLIENT|52=20250116-18:56:25.559|56=SERVER|122=20250116-18:56:25.559|36=100|123=Y|10=090|
8=FIX.4.4|9=156|35=D|34=100|43=Y|49=CLIENT|52=20250116-18:56:25.558|56=SERVER|122=20250116-18:56:25.464|11=12345|38=100|40=2|44=100.5|54=1|55=AAPL|60=20250116-18:56:25.463|10=235|
8=FIX.4.4|9=101|35=4|34=101|43=Y|49=CLIENT|52=20250116-18:56:25.559|56=SERVER|122=20250116-18:56:25.559|36=102|123=Y|10=126|
8=FIX.4.4|9=56|35=0|34=88|49=SERVER|52=20250116-18:56:55.835|56=CLIENT|10=187|
8=FIX.4.4|9=57|35=0|34=102|49=CLIENT|52=20250116-18:56:55.836|56=SERVER|10=224|
8=FIX.4.4|9=56|35=0|34=89|49=SERVER|52=20250116-18:57:25.833|56=CLIENT|10=184|
8=FIX.4.4|9=57|35=0|34=103|49=CLIENT|52=20250116-18:57:25.833|56=SERVER|10=220|
8=FIX.4.4|9=56|35=0|34=90|49=SERVER|52=20250116-18:57:55.837|56=CLIENT|10=183|
8=FIX.4.4|9=57|35=0|34=104|49=CLIENT|52=20250116-18:57:55.841|56=SERVER|10=223|
8=FIX.4.4|9=69|35=A|34=105|49=CLIENT|52=20250116-18:58:15.492|56=SERVER|98=0|108=30|10=012|
8=FIX.4.4|9=69|35=A|34=107|49=CLIENT|52=20250116-18:58:23.312|56=SERVER|98=0|108=30|10=004|
8=FIX.4.4|9=56|35=0|34=91|49=SERVER|52=20250116-18:58:25.839|56=CLIENT|10=184|
8=FIX.4.4|9=57|35=0|34=105|49=CLIENT|52=20250116-18:58:25.842|56=SERVER|10=223|
8=FIX.4.4|9=69|35=A|34=106|49=CLIENT|52=20250116-18:58:34.707|56=SERVER|98=0|108=30|10=013|
8=FIX.4.4|9=69|35=A|34=107|49=CLIENT|52=20250116-18:58:45.493|56=SERVER|98=0|108=30|10=018|
8=FIX.4.4|9=69|35=A|34=109|49=CLIENT|52=20250116-18:58:53.316|56=SERVER|98=0|108=30|10=013|
8=FIX.4.4|9=56|35=0|34=92|49=SERVER|52=20250116-18:58:55.830|56=CLIENT|10=179|
8=FIX.4.4|9=57|35=0|34=106|49=CLIENT|52=20250116-18:58:56.459|56=SERVER|10=232|
8=FIX.4.4|9=69|35=A|34=108|49=CLIENT|52=20250116-18:59:04.704|56=SERVER|98=0|108=30|10=010|
8=FIX.4.4|9=69|35=A|34=109|49=CLIENT|52=20250116-18:59:11.796|56=SERVER|98=0|108=30|10=020|
8=FIX.4.4|9=69|35=A|34=111|49=CLIENT|52=20250116-18:59:13.711|56=SERVER|98=0|108=30|10=002|
8=FIX.4.4|9=69|35=A|34=113|49=CLIENT|52=20250116-18:59:15.153|56=SERVER|98=0|108=30|10=006|
8=FIX.4.4|9=69|35=A|34=108|49=CLIENT|52=20250116-18:59:15.498|56=SERVER|98=0|108=30|10=022|
8=FIX.4.4|9=69|35=A|34=109|49=CLIENT|52=20250116-18:59:17.480|56=SERVER|98=0|108=30|10=016|
8=FIX.4.4|9=69|35=A|34=110|49=CLIENT|52=20250116-18:59:23.315|56=SERVER|98=0|108=30|10=002|
8=FIX.4.4|9=56|35=0|34=93|49=SERVER|52=20250116-18:59:25.836|56=CLIENT|10=184|
8=FIX.4.4|9=57|35=0|34=107|49=CLIENT|52=20250116-18:59:26.460|56=SERVER|10=223|
8=FIX.4.4|9=69|35=A|34=109|49=CLIENT|52=20250116-18:59:34.700|56=SERVER|98=0|108=30|10=010|
8=FIX.4.4|9=69|35=A|34=111|49=CLIENT|52=20250116-18:59:41.794|56=SERVER|98=0|108=30|10=014|
8=FIX.4.4|9=69|35=A|34=113|49=CLIENT|52=20250116-18:59:43.710|56=SERVER|98=0|108=30|10=006|
8=FIX.4.4|9=69|35=A|34=115|49=CLIENT|52=20250116-18:59:45.155|56=SERVER|98=0|108=30|10=013|
8=FIX.4.4|9=69|35=A|34=109|49=CLIENT|52=20250116-18:59:45.494|56=SERVER|98=0|108=30|10=022|
8=FIX.4.4|9=69|35=A|34=111|49=CLIENT|52=20250116-18:59:47.489|56=SERVER|98=0|108=30|10=021|
8=FIX.4.4|9=69|35=A|34=111|49=CLIENT|52=20250116-18:59:53.313|56=SERVER|98=0|108=30|10=004|
8=FIX.4.4|9=56|35=0|34=94|49=SERVER|52=20250116-18:59:55.838|56=CLIENT|10=190|
8=FIX.4.4|9=57|35=0|34=108|49=CLIENT|52=20250116-18:59:56.456|56=SERVER|10=232|
8=FIX.4.4|9=69|35=A|34=110|49=CLIENT|52=20250116-19:00:04.700|56=SERVER|98=0|108=30|10=242|
8=FIX.4.4|9=69|35=A|34=112|49=CLIENT|52=20250116-19:00:11.800|56=SERVER|98=0|108=30|10=243|
8=FIX.4.4|9=69|35=A|34=114|49=CLIENT|52=20250116-19:00:13.719|56=SERVER|98=0|108=30|10=000|
8=FIX.4.4|9=69|35=A|34=116|49=CLIENT|52=20250116-19:00:15.156|56=SERVER|98=0|108=30|10=255|
8=FIX.4.4|9=69|35=A|34=110|49=CLIENT|52=20250116-19:00:16.494|56=SERVER|98=0|108=30|10=255|
8=FIX.4.4|9=69|35=A|34=112|49=CLIENT|52=20250116-19:00:17.477|56=SERVER|98=0|108=30|10=003|
8=FIX.4.4|9=69|35=A|34=112|49=CLIENT|52=20250116-19:00:23.312|56=SERVER|98=0|108=30|10=244|
8=FIX.4.4|9=56|35=0|34=95|49=SERVER|52=20250116-19:00:25.837|56=CLIENT|10=174|
8=FIX.4.4|9=69|35=A|34=113|49=CLIENT|52=20250116-19:00:25.944|56=SERVER|98=0|108=30|10=002|
8=FIX.4.4|9=57|35=0|34=109|49=CLIENT|52=20250116-19:00:26.470|56=SERVER|10=213|
8=FIX.4.4|9=69|35=A|34=110|49=CLIENT|52=20250116-19:00:30.365|56=SERVER|98=0|108=30|10=248|
8=FIX.4.4|9=69|35=A|34=112|49=CLIENT|52=20250116-19:00:34.607|56=SERVER|98=0|108=30|10=253|
8=FIX.4.4|9=69|35=A|34=111|49=CLIENT|52=20250116-19:00:35.697|56=SERVER|98=0|108=30|10=006|
8=FIX.4.4|9=69|35=A|34=112|49=CLIENT|52=20250116-19:00:38.726|56=SERVER|98=0|108=30|10=003|
8=FIX.4.4|9=69|35=A|34=113|49=CLIENT|52=20250116-19:00:41.794|56=SERVER|98=0|108=30|10=003|
8=FIX.4.4|9=69|35=A|34=115|49=CLIENT|52=20250116-19:00:43.723|56=SERVER|98=0|108=30|10=255|
8=FIX.4.4|9=69|35=A|34=117|49=CLIENT|52=20250116-19:00:45.155|56=SERVER|98=0|108=30|10=002|
8=FIX.4.4|9=69|35=A|34=111|49=CLIENT|52=20250116-19:00:46.495|56=SERVER|98=0|108=30|10=004|
8=FIX.4.4|9=69|35=A|34=113|49=CLIENT|52=20250116-19:00:47.487|56=SERVER|98=0|108=30|10=008|
8=FIX.4.4|9=69|35=A|34=113|49=CLIENT|52=20250116-19:00:54.313|56=SERVER|98=0|108=30|10=250|
8=FIX.4.4|9=56|35=0|34=96|49=SERVER|52=20250116-19:00:55.842|56=CLIENT|10=174|
8=FIX.4.4|9=69|35=A|34=115|49=CLIENT|52=20250116-19:00:55.935|56=SERVER|98=0|108=30|10=007|
8=FIX.4.4|9=57|35=0|34=110|49=CLIENT|52=20250116-19:00:56.464|56=SERVER|10=211|
8=FIX.4.4|9=69|35=A|34=112|49=CLIENT|52=20250116-19:01:00.362|56=SERVER|98=0|108=30|10=245|
8=FIX.4.4|9=69|35=A|34=114|49=CLIENT|52=20250116-19:01:04.604|56=SERVER|98=0|108=30|10=250|
8=FIX.4.4|9=69|35=A|34=112|49=CLIENT|52=20250116-19:01:05.709|56=SERVER|98=0|108=30|10=255|
8=FIX.4.4|9=69|35=A|34=114|49=CLIENT|52=20250116-19:01:08.735|56=SERVER|98=0|108=30|10=003|
8=FIX.4.4|9=69|35=A|34=114|49=CLIENT|52=20250116-19:01:12.793|56=SERVER|98=0|108=30|10=002|
8=FIX.4.4|9=69|35=A|34=116|49=CLIENT|52=20250116-19:01:14.718|56=SERVER|98=0|108=30|10=003|
8=FIX.4.4|9=69|35=A|34=118|49=CLIENT|52=20250116-19:01:16.164|56=SERVER|98=0|108=30|10=002|
8=FIX.4.4|9=69|35=A|34=112|49=CLIENT|52=20250116-19:01:16.506|56=SERVER|98=0|108=30|10=252|
8=FIX.4.4|9=69|35=A|34=114|49=CLIENT|52=20250116-19:01:18.490|56=SERVER|98=0|108=30|10=002|
8=FIX.4.4|9=69|35=A|34=114|49=CLIENT|52=20250116-19:01:24.314|56=SERVER|98=0|108=30|10=250|
8=FIX.4.4|9=56|35=0|34=97|49=SERVER|52=20250116-19:01:25.835|56=CLIENT|10=175|
8=FIX.4.4|9=69|35=A|34=116|49=CLIENT|52=20250116-19:01:25.944|56=SERVER|98=0|108=30|10=006|
8=FIX.4.4|9=57|35=0|34=111|49=CLIENT|52=20250116-19:01:26.468|56=SERVER|10=214|
8=FIX.4.4|9=69|35=A|34=113|49=CLIENT|52=20250116-19:01:30.359|56=SERVER|98=0|108=30|10=255|
8=FIX.4.4|9=69|35=A|34=115|49=CLIENT|52=20250116-19:01:34.606|56=SERVER|98=0|108=30|10=000|
8=FIX.4.4|9=69|35=A|34=113|49=CLIENT|52=20250116-19:01:35.705|56=SERVER|98=0|108=30|10=255|
8=FIX.4.4|9=69|35=A|34=115|49=CLIENT|52=20250116-19:01:38.727|56=SERVER|98=0|108=30|10=008|
8=FIX.4.4|9=69|35=A|34=115|49=CLIENT|52=20250116-19:01:42.793|56=SERVER|98=0|108=30|10=006|
8=FIX.4.4|9=69|35=A|34=117|49=CLIENT|52=20250116-19:01:44.716|56=SERVER|98=0|108=30|10=005|
8=FIX.4.4|9=69|35=A|34=119|49=CLIENT|52=20250116-19:01:46.162|56=SERVER|98=0|108=30|10=004|
8=FIX.4.4|9=69|35=A|34=113|49=CLIENT|52=20250116-19:01:46.502|56=SERVER|98=0|108=30|10=252|
8=FIX.4.4|9=69|35=A|34=115|49=CLIENT|52=20250116-19:01:48.491|56=SERVER|98=0|108=30|10=007|
8=FIX.4.4|9=69|35=A|34=115|49=CLIENT|52=20250116-19:01:54.312|56=SERVER|98=0|108=30|10=252|
8=FIX.4.4|9=56|35=0|34=98|49=SERVER|52=20250116-19:01:55.831|56=CLIENT|10=175|
8=FIX.4.4|9=69|35=A|34=117|49=CLIENT|52=20250116-19:01:55.942|56=SERVER|98=0|108=30|10=008|
8=FIX.4.4|9=57|35=0|34=112|49=CLIENT|52=20250116-19:01:57.467|56=SERVER|10=218|
8=FIX.4.4|9=69|35=A|34=114|49=CLIENT|52=20250116-19:02:00.366|56=SERVER|98=0|108=30|10=252|
8=FIX.4.4|9=69|35=A|34=116|49=CLIENT|52=20250116-19:02:04.601|56=SERVER|98=0|108=30|10=250|
8=FIX.4.4|9=69|35=A|34=114|49=CLIENT|52=20250116-19:02:05.701|56=SERVER|98=0|108=30|10=250|
8=FIX.4.4|9=69|35=A|34=116|49=CLIENT|52=20250116-19:02:08.733|56=SERVER|98=0|108=30|10=004|
8=FIX.4.4|9=69|35=A|34=116|49=CLIENT|52=20250116-19:02:12.794|56=SERVER|98=0|108=30|10=006|
8=FIX.4.4|9=69|35=A|34=118|49=CLIENT|52=20250116-19:02:14.718|56=SERVER|98=0|108=30|10=006|
8=FIX.4.4|9=69|35=A|34=119|49=CLIENT|52=20250116-19:02:24.486|56=SERVER|98=0|108=30|10=010|
8=FIX.4.4|9=68|35=A|34=99|49=SERVER|52=20250116-19:02:24.505|56=CLIENT|98=0|108=30|10=216|
8=FIX.4.4|9=68|35=2|34=100|49=SERVER|52=20250116-19:02:24.506|56=CLIENT|7=113|16=0|10=175|
8=FIX.4.4|9=101|35=4|34=113|43=Y|49=CLIENT|52=20250116-19:02:24.521|56=SERVER|122=20250116-19:02:24.521|36=120|123=Y|10=089|
8=FIX.4.4|9=156|35=D|34=120|43=Y|49=CLIENT|52=20250116-19:02:24.520|56=SERVER|122=20250116-19:02:24.500|11=12345|38=100|40=2|44=100.5|54=1|55=AAPL|60=20250116-19:02:24.496|10=196|
8=FIX.4.4|9=69|35=A|34=121|49=CLIENT|52=20250116-19:02:43.632|56=SERVER|98=0|108=30|10=253|
8=FIX.4.4|9=69|35=A|34=123|49=CLIENT|52=20250116-19:02:54.328|56=SERVER|98=0|108=30|10=003|
8=FIX.4.4|9=57|35=0|34=101|49=SERVER|52=20250116-19:02:54.701|56=CLIENT|10=205|
8=FIX.4.4|9=57|35=0|34=121|49=CLIENT|52=20250116-19:02:54.702|56=SERVER|10=208|
8=FIX.4.4|9=69|35=A|34=123|49=CLIENT|52=20250116-19:03:13.635|56=SERVER|98=0|108=30|10=000|
8=FIX.4.4|9=69|35=A|34=124|49=CLIENT|52=20250116-19:03:20.955|56=SERVER|98=0|108=30|10=004|
8=FIX.4.4|9=69|35=A|34=126|49=CLIENT|52=20250116-19:03:23.071|56=SERVER|98=0|108=30|10=254|
8=FIX.4.4|9=69|35=A|34=125|49=CLIENT|52=20250116-19:03:24.316|56=SERVER|98=0|108=30|10=000|
8=FIX.4.4|9=69|35=A|34=128|49=CLIENT|52=20250116-19:03:24.547|56=SERVER|98=0|108=30|10=009|
8=FIX.4.4|9=57|35=0|34=102|49=SERVER|52=20250116-19:03:24.703|56=CLIENT|10=206|
8=FIX.4.4|9=57|35=0|34=122|49=CLIENT|52=20250116-19:03:24.704|56=SERVER|10=209|
8=FIX.4.4|9=69|35=A|34=124|49=CLIENT|52=20250116-19:03:43.628|56=SERVER|98=0|108=30|10=006|
8=FIX.4.4|9=69|35=A|34=126|49=CLIENT|52=20250116-19:03:50.945|56=SERVER|98=0|108=30|10=008|
8=FIX.4.4|9=69|35=A|34=128|49=CLIENT|52=20250116-19:03:53.063|56=SERVER|98=0|108=30|10=004|
8=FIX.4.4|9=69|35=A|34=126|49=CLIENT|52=20250116-19:03:54.319|56=SERVER|98=0|108=30|10=007|
8=FIX.4.4|9=69|35=A|34=130|49=CLIENT|52=20250116-19:03:54.557|56=SERVER|98=0|108=30|10=006|
8=FIX.4.4|9=57|35=0|34=103|49=SERVER|52=20250116-19:03:54.699|56=CLIENT|10=224|
8=FIX.4.4|9=57|35=0|34=123|49=CLIENT|52=20250116-19:03:54.699|56=SERVER|10=226|
8=FIX.4.4|9=69|35=A|34=125|49=CLIENT|52=20250116-19:04:13.637|56=SERVER|98=0|108=30|10=005|
8=FIX.4.4|9=69|35=A|34=127|49=CLIENT|52=20250116-19:04:20.951|56=SERVER|98=0|108=30|10=004|
8=FIX.4.4|9=69|35=A|34=129|49=CLIENT|52=20250116-19:04:23.071|56=SERVER|98=0|108=30|10=002|
8=FIX.4.4|9=69|35=A|34=127|49=CLIENT|52=20250116-19:04:24.329|56=SERVER|98=0|108=30|10=007|
8=FIX.4.4|9=69|35=A|34=131|49=CLIENT|52=20250116-19:04:24.548|56=SERVER|98=0|108=30|10=005|
8=FIX.4.4|9=57|35=0|34=104|49=SERVER|52=20250116-19:04:24.703|56=CLIENT|10=209|
8=FIX.4.4|9=57|35=0|34=124|49=CLIENT|52=20250116-19:04:24.704|56=SERVER|10=212|
8=FIX.4.4|9=69|35=A|34=126|49=CLIENT|52=20250116-19:04:44.636|56=SERVER|98=0|108=30|10=009|
8=FIX.4.4|9=69|35=A|34=128|49=CLIENT|52=20250116-19:04:50.943|56=SERVER|98=0|108=30|10=009|
8=FIX.4.4|9=69|35=A|34=130|49=CLIENT|52=20250116-19:04:53.068|56=SERVER|98=0|108=30|10=003|
8=FIX.4.4|9=69|35=A|34=132|49=CLIENT|52=20250116-19:04:54.556|56=SERVER|98=0|108=30|10=008|
8=FIX.4.4|9=57|35=0|34=105|49=SERVER|52=20250116-19:04:54.699|56=CLIENT|10=227|
8=FIX.4.4|9=57|35=0|34=125|49=CLIENT|52=20250116-19:04:54.700|56=SERVER|10=212|
8=FIX.4.4|9=69|35=A|34=128|49=CLIENT|52=20250116-19:04:55.343|56=SERVER|98=0|108=30|10=008|
8=FIX.4.4|9=69|35=A|34=127|49=CLIENT|52=20250116-19:05:14.631|56=SERVER|98=0|108=30|10=003|
8=FIX.4.4|9=69|35=A|34=129|49=CLIENT|52=20250116-19:05:21.947|56=SERVER|98=0|108=30|10=013|
8=FIX.4.4|9=69|35=A|34=131|49=CLIENT|52=20250116-19:05:24.073|56=SERVER|98=0|108=30|10=255|
8=FIX.4.4|9=69|35=A|34=129|49=CLIENT|52=20250116-19:05:25.320|56=SERVER|98=0|108=30|10=002|
8=FIX.4.4|9=57|35=0|34=126|49=CLIENT|52=20250116-19:05:25.494|56=SERVER|10=222|
8=FIX.4.4|9=57|35=0|34=106|49=SERVER|52=20250116-19:05:25.495|56=CLIENT|10=221|
8=FIX.4.4|9=69|35=A|34=133|49=CLIENT|52=20250116-19:05:25.557|56=SERVER|98=0|108=30|10=009|
8=FIX.4.4|9=69|35=A|34=128|49=CLIENT|52=20250116-19:05:44.626|56=SERVER|98=0|108=30|10=011|
8=FIX.4.4|9=69|35=A|34=130|49=CLIENT|52=20250116-19:05:51.951|56=SERVER|98=0|108=30|10=003|
8=FIX.4.4|9=69|35=A|34=132|49=CLIENT|52=20250116-19:05:54.069|56=SERVER|98=0|108=30|10=008|
8=FIX.4.4|9=69|35=A|34=130|49=CLIENT|52=20250116-19:05:55.318|56=SERVER|98=0|108=30|10=004|
8=FIX.4.4|9=57|35=0|34=127|49=CLIENT|52=20250116-19:05:55.489|56=SERVER|10=230|
8=FIX.4.4|9=57|35=0|34=107|49=SERVER|52=20250116-19:05:55.491|56=CLIENT|10=221|
8=FIX.4.4|9=69|35=A|34=134|49=CLIENT|52=20250116-19:05:55.552|56=SERVER|98=0|108=30|10=008|
8=FIX.4.4|9=69|35=A|34=136|49=CLIENT|52=20250116-19:06:20.857|56=SERVER|98=0|108=30|10=011|
8=FIX.4.4|9=69|35=A|34=108|49=SERVER|52=20250116-19:06:20.863|56=CLIENT|98=0|108=30|10=007|
8=FIX.4.4|9=68|35=2|34=109|49=SERVER|52=20250116-19:06:20.864|56=CLIENT|7=128|16=0|10=197|
8=FIX.4.4|9=101|35=4|34=128|43=Y|49=CLIENT|52=20250116-19:06:20.879|56=SERVER|122=20250116-19:06:20.879|36=135|123=Y|10=133|
8=FIX.4.4|9=156|35=D|34=135|43=Y|49=CLIENT|52=20250116-19:06:20.878|56=SERVER|122=20250116-19:06:20.845|11=12345|38=100|40=2|44=100.5|54=1|55=AAPL|60=20250116-19:06:20.844|10=227|
8=FIX.4.4|9=101|35=4|34=136|43=Y|49=CLIENT|52=20250116-19:06:20.879|56=SERVER|122=20250116-19:06:20.879|36=137|123=Y|10=134|
8=FIX.4.4|9=57|35=0|34=110|49=SERVER|52=20250116-19:06:51.641|56=CLIENT|10=209|
8=FIX.4.4|9=57|35=0|34=137|49=CLIENT|52=20250116-19:06:51.642|56=SERVER|10=219|
8=FIX.4.4|9=57|35=0|34=111|49=SERVER|52=20250116-19:07:21.649|56=CLIENT|10=216|
8=FIX.4.4|9=57|35=0|34=138|49=CLIENT|52=20250116-19:07:21.653|56=SERVER|10=220|
8=FIX.4.4|9=57|35=0|34=112|49=SERVER|52=20250116-19:07:51.648|56=CLIENT|10=219|
8=FIX.4.4|9=57|35=0|34=139|49=CLIENT|52=20250116-19:07:51.648|56=SERVER|10=228|
8=FIX.4.4|9=57|35=0|34=140|49=CLIENT|52=20250116-19:08:21.836|56=SERVER|10=217|
8=FIX.4.4|9=57|35=0|34=113|49=SERVER|52=20250116-19:08:21.840|56=CLIENT|10=212|
8=FIX.4.4|9=57|35=0|34=141|49=CLIENT|52=20250116-19:08:51.843|56=SERVER|10=219|
8=FIX.4.4|9=57|35=0|34=114|49=SERVER|52=20250116-19:08:51.848|56=CLIENT|10=224|
8=FIX.4.4|9=69|35=A|34=143|49=CLIENT|52=20250116-19:09:21.021|56=SERVER|98=0|108=30|10=252|
8=FIX.4.4|9=69|35=A|34=115|49=SERVER|52=20250116-19:09:21.028|56=CLIENT|98=0|108=30|10=002|
8=FIX.4.4|9=68|35=2|34=116|49=SERVER|52=20250116-19:09:21.029|56=CLIENT|7=142|16=0|10=188|
8=FIX.4.4|9=156|35=D|34=142|43=Y|49=CLIENT|52=20250116-19:09:21.045|56=SERVER|122=20250116-19:09:21.010|11=12345|38=100|40=2|44=100.5|54=1|55=AAPL|60=20250116-19:09:21.010|10=192|
8=FIX.4.4|9=101|35=4|34=143|43=Y|49=CLIENT|52=20250116-19:09:21.046|56=SERVER|122=20250116-19:09:21.046|36=144|123=Y|10=110|
8=FIX.4.4|9=69|35=A|34=144|49=CLIENT|52=20250116-19:09:34.437|56=SERVER|98=0|108=30|10=012|
8=FIX.4.4|9=69|35=A|34=146|49=CLIENT|52=20250116-19:09:49.374|56=SERVER|98=0|108=30|10=020|
8=FIX.4.4|9=57|35=0|34=117|49=SERVER|52=20250116-19:09:51.482|56=CLIENT|10=222|
8=FIX.4.4|9=57|35=0|34=144|49=CLIENT|52=20250116-19:09:51.483|56=SERVER|10=223|
8=FIX.4.4|9=69|35=A|34=146|49=CLIENT|52=20250116-19:10:04.444|56=SERVER|98=0|108=30|10=001|
8=FIX.4.4|9=69|35=A|34=148|49=CLIENT|52=20250116-19:10:19.366|56=SERVER|98=0|108=30|10=012|
8=FIX.4.4|9=57|35=0|34=118|49=SERVER|52=20250116-19:10:21.487|56=CLIENT|10=217|
8=FIX.4.4|9=57|35=0|34=145|49=CLIENT|52=20250116-19:10:21.487|56=SERVER|10=217|
8=FIX.4.4|9=69|35=A|34=147|49=CLIENT|52=20250116-19:12:28.179|56=SERVER|98=0|108=30|10=015|
8=FIX.4.4|9=69|35=A|34=119|49=SERVER|52=20250116-19:12:28.185|56=CLIENT|98=0|108=30|10=011|
8=FIX.4.4|9=68|35=2|34=120|49=SERVER|52=20250116-19:12:28.186|56=CLIENT|7=146|16=0|10=192|
8=FIX.4.4|9=156|35=D|34=146|43=Y|49=CLIENT|52=20250116-19:12:28.202|56=SERVER|122=20250116-19:12:28.167|11=12345|38=100|40=2|44=100.5|54=1|55=AAPL|60=20250116-19:12:28.166|10=219|
8=FIX.4.4|9=101|35=4|34=147|43=Y|49=CLIENT|52=20250116-19:12:28.202|56=SERVER|122=20250116-19:12:28.202|36=148|123=Y|10=108|
8=FIX.4.4|9=69|35=A|34=148|49=CLIENT|52=20250116-19:12:33.414|56=SERVER|98=0|108=30|10=004|
8=FIX.4.4|9=57|35=0|34=121|49=SERVER|52=20250116-19:12:59.060|56=CLIENT|10=211|
8=FIX.4.4|9=57|35=0|34=148|49=CLIENT|52=20250116-19:12:59.063|56=SERVER|10=223|
8=FIX.4.4|9=69|35=A|34=150|49=CLIENT|52=20250116-19:13:03.407|56=SERVER|98=0|108=30|10=253|
8=FIX.4.4|9=57|35=0|34=122|49=SERVER|52=20250116-19:13:29.055|56=CLIENT|10=214|
8=FIX.4.4|9=57|35=0|34=149|49=CLIENT|52=20250116-19:13:29.056|56=SERVER|10=224|
8=FIX.4.4|9=69|35=A|34=151|49=CLIENT|52=20250116-19:13:33.407|56=SERVER|98=0|108=30|10=001|
8=FIX.4.4|9=57|35=0|34=123|49=SERVER|52=20250116-19:13:59.056|56=CLIENT|10=219|
8=FIX.4.4|9=57|35=0|34=150|49=CLIENT|52=20250116-19:13:59.057|56=SERVER|10=220|
8=FIX.4.4|9=69|35=A|34=152|49=CLIENT|52=20250116-19:14:03.404|56=SERVER|98=0|108=30|10=253|
8=FIX.4.4|9=57|35=0|34=124|49=SERVER|52=20250116-19:14:29.058|56=CLIENT|10=220|
8=FIX.4.4|9=57|35=0|34=151|49=CLIENT|52=20250116-19:14:29.063|56=SERVER|10=216|
8=FIX.4.4|9=69|35=A|34=153|49=CLIENT|52=20250116-19:14:34.410|56=SERVER|98=0|108=30|10=255|
8=FIX.4.4|9=57|35=0|34=152|49=CLIENT|52=20250116-19:14:59.167|56=SERVER|10=225|
8=FIX.4.4|9=57|35=0|34=125|49=SERVER|52=20250116-19:14:59.171|56=CLIENT|10=220|
8=FIX.4.4|9=69|35=A|34=154|49=CLIENT|52=20250116-19:15:04.414|56=SERVER|98=0|108=30|10=002|
8=FIX.4.4|9=57|35=0|34=153|49=CLIENT|52=20250116-19:15:29.164|56=SERVER|10=221|
8=FIX.4.4|9=57|35=0|34=126|49=SERVER|52=20250116-19:15:29.165|56=CLIENT|10=222|
8=FIX.4.4|9=69|35=A|34=155|49=CLIENT|52=20250116-19:15:34.414|56=SERVER|98=0|108=30|10=006|
8=FIX.4.4|9=69|35=A|34=157|49=CLIENT|52=20250116-19:16:32.148|56=SERVER|98=0|108=30|10=011|
8=FIX.4.4|9=69|35=A|34=127|49=SERVER|52=20250116-19:16:32.155|56=CLIENT|98=0|108=30|10=006|
8=FIX.4.4|9=68|35=2|34=128|49=SERVER|52=20250116-19:16:32.156|56=CLIENT|7=154|16=0|10=195|
8=FIX.4.4|9=101|35=4|34=154|43=Y|49=CLIENT|52=20250116-19:16:32.174|56=SERVER|122=20250116-19:16:32.174|36=156|123=Y|10=119|
8=FIX.4.4|9=156|35=D|34=156|43=Y|49=CLIENT|52=20250116-19:16:32.174|56=SERVER|122=20250116-19:16:32.136|11=12345|38=100|40=2|44=100.5|54=1|55=AAPL|60=20250116-19:16:32.136|10=218|
8=FIX.4.4|9=101|35=4|34=157|43=Y|49=CLIENT|52=20250116-19:16:32.174|56=SERVER|122=20250116-19:16:32.174|36=158|123=Y|10=124|
8=FIX.4.4|9=69|35=A|34=158|49=CLIENT|52=20250116-19:16:39.092|56=SERVER|98=0|108=30|10=017|
8=FIX.4.4|9=57|35=0|34=129|49=SERVER|52=20250116-19:17:03.104|56=CLIENT|10=212|
8=FIX.4.4|9=57|35=0|34=158|49=CLIENT|52=20250116-19:17:03.106|56=SERVER|10=216|
8=FIX.4.4|9=69|35=A|34=160|49=CLIENT|52=20250116-19:17:09.101|56=SERVER|98=0|108=30|10=255|
8=FIX.4.4|9=69|35=A|34=161|49=CLIENT|52=20250116-19:18:01.606|56=SERVER|98=0|108=30|10=003|
8=FIX.4.4|9=69|35=A|34=130|49=SERVER|52=20250116-19:18:01.622|56=CLIENT|98=0|108=30|10=253|
8=FIX.4.4|9=68|35=2|34=131|49=SERVER|52=20250116-19:18:01.622|56=CLIENT|7=159|16=0|10=190|
8=FIX.4.4|9=156|35=D|34=159|43=Y|49=CLIENT|52=20250116-19:18:01.634|56=SERVER|122=20250116-19:16:39.093|11=12345|38=100|40=2|44=100.5|54=1|55=AAPL|60=20250116-19:16:39.092|10=237|
8=FIX.4.4|9=101|35=4|34=160|43=Y|49=CLIENT|52=20250116-19:18:01.635|56=SERVER|122=20250116-19:18:01.635|36=162|123=Y|10=113|
8=FIX.4.4|9=57|35=0|34=132|49=SERVER|52=20250116-19:18:31.982|56=CLIENT|10=222|
8=FIX.4.4|9=57|35=0|34=162|49=CLIENT|52=20250116-19:18:31.983|56=SERVER|10=226|
8=FIX.4.4|9=57|35=0|34=133|49=SERVER|52=20250116-19:19:01.980|56=CLIENT|10=219|
8=FIX.4.4|9=57|35=0|34=163|49=CLIENT|52=20250116-19:19:01.980|56=SERVER|10=222|
8=FIX.4.4|9=57|35=0|34=134|49=SERVER|52=20250116-19:19:31.981|56=CLIENT|10=224|
8=FIX.4.4|9=57|35=0|34=164|49=CLIENT|52=20250116-19:19:31.982|56=SERVER|10=228|
8=FIX.4.4|9=69|35=A|34=165|49=CLIENT|52=20250116-19:22:01.998|56=SERVER|98=0|108=30|10=016|
8=FIX.4.4|9=69|35=A|34=135|49=SERVER|52=20250116-19:22:02.015|56=CLIENT|98=0|108=30|10=250|
8=FIX.4.4|9=69|35=A|34=166|49=CLIENT|52=20250116-19:22:58.327|56=SERVER|98=0|108=30|10=015|
8=FIX.4.4|9=69|35=A|34=136|49=SERVER|52=20250116-19:22:58.346|56=CLIENT|98=0|108=30|10=013|
8=FIX.4.4|9=57|35=0|34=167|49=CLIENT|52=20250116-19:23:28.333|56=SERVER|10=222|
8=FIX.4.4|9=57|35=0|34=137|49=SERVER|52=20250116-19:23:28.680|56=CLIENT|10=224|
8=FIX.4.4|9=69|35=A|34=168|49=CLIENT|52=20250116-19:26:15.210|56=SERVER|98=0|108=30|10=005|
8=FIX.4.4|9=69|35=A|34=138|49=SERVER|52=20250116-19:26:15.227|56=CLIENT|98=0|108=30|10=010|
8=FIX.4.4|9=125|35=D|34=169|49=CLIENT|52=20250116-19:26:23.831|56=SERVER|11=12345|38=100|40=2|44=100.5|54=1|55=AAPL|60=20250116-19:26:23.831|10=221|
8=FIX.4.4|9=125|35=D|34=170|49=CLIENT|52=20250116-19:26:28.145|56=SERVER|11=12345|38=100|40=2|44=100.5|54=1|55=AAPL|60=20250116-19:26:28.145|10=219|
8=FIX.4.4|9=125|35=D|34=171|49=CLIENT|52=20250116-19:26:29.368|56=SERVER|11=12345|38=100|40=2|44=100.5|54=1|55=AAPL|60=20250116-19:26:29.368|10=236|
8=FIX.4.4|9=125|35=D|34=172|49=CLIENT|52=20250116-19:26:30.120|56=SERVER|11=12345|38=100|40=2|44=100.5|54=1|55=AAPL|60=20250116-19:26:30.120|10=193|
8=FIX.4.4|9=125|35=D|34=173|49=CLIENT|52=20250116-19:26:30.805|56=SERVER|11=12345|38=100|40=2|44=100.5|54=1|55=AAPL|60=20250116-19:26:30.805|10=214|
8=FIX.4.4|9=69|35=A|34=174|49=CLIENT|52=20250116-19:26:48.360|56=SERVER|98=0|108=30|10=014|
8=FIX.4.4|9=69|35=A|34=139|49=SERVER|52=20250116-19:26:48.376|56=CLIENT|98=0|108=30|10=022|
8=FIX.4.4|9=57|35=0|34=175|49=CLIENT|52=20250116-19:27:18.354|56=SERVER|10=227|
8=FIX.4.4|9=57|35=0|34=140|49=SERVER|52=20250116-19:27:18.918|56=CLIENT|10=225|
8=FIX.4.4|9=57|35=0|34=176|49=CLIENT|52=20250116-19:27:48.357|56=SERVER|10=234|
8=FIX.4.4|9=57|35=0|34=141|49=SERVER|52=20250116-19:27:48.916|56=CLIENT|10=227|
8=FIX.4.4|9=57|35=0|34=177|49=CLIENT|52=20250116-19:28:18.349|56=SERVER|10=234|
8=FIX.4.4|9=57|35=0|34=142|49=SERVER|52=20250116-19:28:18.923|56=CLIENT|10=224|
8=FIX.4.4|9=57|35=0|34=178|49=CLIENT|52=20250116-19:28:48.346|56=SERVER|10=235|
8=FIX.4.4|9=57|35=0|34=143|49=SERVER|52=20250116-19:28:48.916|56=CLIENT|10=230|
8=FIX.4.4|9=69|35=A|34=179|49=CLIENT|52=20250116-19:29:07.607|56=SERVER|98=0|108=30|10=021|
8=FIX.4.4|9=69|35=A|34=144|49=SERVER|52=20250116-19:29:07.623|56=CLIENT|98=0|108=30|10=011|
8=FIX.4.4|9=125|35=D|34=180|49=CLIENT|52=20250116-19:29:13.553|56=SERVER|11=12345|38=100|40=2|44=100.5|54=1|55=AAPL|60=20250116-19:29:13.552|10=219|
8=FIX.4.4|9=125|35=D|34=181|49=CLIENT|52=20250116-19:29:15.536|56=SERVER|11=12345|38=100|40=2|44=100.5|54=1|55=AAPL|60=20250116-19:29:15.536|10=227|
8=FIX.4.4|9=125|35=D|34=182|49=CLIENT|52=20250116-19:29:16.233|56=SERVER|11=12345|38=100|40=2|44=100.5|54=1|55=AAPL|60=20250116-19:29:16.233|10=218|
8=FIX.4.4|9=125|35=D|34=183|49=CLIENT|52=20250116-19:29:16.829|56=SERVER|11=12345|38=100|40=2|44=100.5|54=1|55=AAPL|60=20250116-19:29:16.829|10=241|
8=FIX.4.4|9=125|35=D|34=184|49=CLIENT|52=20250116-19:29:17.598|56=SERVER|11=12345|38=100|40=2|44=100.5|54=1|55=AAPL|60=20250116-19:29:17.598|10=250|
8=FIX.4.4|9=125|35=D|34=185|49=CLIENT|52=20250116-19:29:18.246|56=SERVER|11=12345|38=100|40=2|44=100.5|54=1|55=AAPL|60=20250116-19:29:18.246|10=233|
8=FIX.4.4|9=57|35=0|34=145|49=SERVER|52=20250116-19:29:37.636|56=CLIENT|10=230|
8=FIX.4.4|9=57|35=0|34=186|49=CLIENT|52=20250116-19:29:48.604|56=SERVER|10=232|
8=FIX.4.4|9=57|35=0|34=146|49=SERVER|52=20250116-19:30:07.645|56=CLIENT|10=220|
8=FIX.4.4|9=57|35=0|34=187|49=CLIENT|52=20250116-19:30:18.615|56=SERVER|10=224|
8=FIX.4.4|9=57|35=0|34=147|49=SERVER|52=20250116-19:30:37.639|56=CLIENT|10=227|
8=FIX.4.4|9=57|35=0|34=188|49=CLIENT|52=20250116-19:30:48.614|56=SERVER|10=227|
8=FIX.4.4|9=57|35=0|34=148|49=SERVER|52=20250116-19:31:07.636|56=CLIENT|10=223|
8=FIX.4.4|9=69|35=A|34=189|49=CLIENT|52=20250116-19:31:31.064|56=SERVER|98=0|108=30|10=009|
8=FIX.4.4|9=69|35=A|34=149|49=SERVER|52=20250116-19:31:31.081|56=CLIENT|98=0|108=30|10=004|
8=FIX.4.4|9=125|35=D|34=190|49=CLIENT|52=20250116-19:31:31.576|56=SERVER|11=12345|38=100|40=2|44=100.5|54=1|55=AAPL|60=20250116-19:31:31.576|10=217|
8=FIX.4.4|9=125|35=D|34=191|49=CLIENT|52=20250116-19:31:33.800|56=SERVER|11=12345|38=100|40=2|44=100.5|54=1|55=AAPL|60=20250116-19:31:33.800|10=202|
8=FIX.4.4|9=125|35=D|34=192|49=CLIENT|52=20250116-19:31:37.009|56=SERVER|11=12345|38=100|40=2|44=100.5|54=1|55=AAPL|60=20250116-19:31:37.009|10=213|
8=FIX.4.4|9=125|35=D|34=193|49=CLIENT|52=20250116-19:31:37.852|56=SERVER|11=12345|38=100|40=2|44=100.5|54=1|55=AAPL|60=20250116-19:31:37.852|10=226|
8=FIX.4.4|9=125|35=D|34=194|49=CLIENT|52=20250116-19:31:38.572|56=SERVER|11=12345|38=100|40=2|44=100.5|54=1|55=AAPL|60=20250116-19:31:38.571|10=226|
8=FIX.4.4|9=125|35=D|34=195|49=CLIENT|52=20250116-19:31:39.229|56=SERVER|11=12345|38=100|40=2|44=100.5|54=1|55=AAPL|60=20250116-19:31:39.229|10=228|
8=FIX.4.4|9=125|35=D|34=196|49=CLIENT|52=20250116-19:31:39.870|56=SERVER|11=12345|38=100|40=2|44=100.5|54=1|55=AAPL|60=20250116-19:31:39.870|10=233|
8=FIX.4.4|9=125|35=D|34=197|49=CLIENT|52=20250116-19:31:40.468|56=SERVER|11=12345|38=100|40=2|44=100.5|54=1|55=AAPL|60=20250116-19:31:40.468|10=224|
8=FIX.4.4|9=125|35=D|34=198|49=CLIENT|52=20250116-19:31:41.134|56=SERVER|11=12345|38=100|40=2|44=100.5|54=1|55=AAPL|60=20250116-19:31:41.134|10=207|
8=FIX.4.4|9=57|35=0|34=150|49=SERVER|52=20250116-19:32:01.144|56=CLIENT|10=205|
8=FIX.4.4|9=57|35=0|34=199|49=CLIENT|52=20250116-19:32:12.056|56=SERVER|10=222|
8=FIX.4.4|9=57|35=0|34=151|49=SERVER|52=20250116-19:32:31.148|56=CLIENT|10=213|
8=FIX.4.4|9=57|35=0|34=200|49=CLIENT|52=20250116-19:32:42.056|56=SERVER|10=208|
8=FIX.4.4|9=57|35=0|34=152|49=SERVER|52=20250116-19:33:01.139|56=CLIENT|10=212|
8=FIX.4.4|9=57|35=0|34=201|49=CLIENT|52=20250116-19:33:12.050|56=SERVER|10=201|
8=FIX.4.4|9=57|35=0|34=153|49=SERVER|52=20250116-19:33:31.143|56=CLIENT|10=211|
8=FIX.4.4|9=57|35=0|34=202|49=CLIENT|52=20250116-19:33:42.053|56=SERVER|10=208|
8=FIX.4.4|9=57|35=0|34=154|49=SERVER|52=20250116-19:34:01.139|56=CLIENT|10=215|
8=FIX.4.4|9=57|35=0|34=203|49=CLIENT|52=20250116-19:34:12.064|56=SERVER|10=209|
8=FIX.4.4|9=57|35=0|34=155|49=SERVER|52=20250116-19:34:31.145|56=CLIENT|10=216|
8=FIX.4.4|9=57|35=0|34=204|49=CLIENT|52=20250116-19:34:42.061|56=SERVER|10=210|
8=FIX.4.4|9=57|35=0|34=156|49=SERVER|52=20250116-19:35:01.147|56=CLIENT|10=217|
8=FIX.4.4|9=57|35=0|34=205|49=CLIENT|52=20250116-19:35:12.054|56=SERVER|10=211|
8=FIX.4.4|9=57|35=0|34=157|49=SERVER|52=20250116-19:35:31.139|56=CLIENT|10=222|
8=FIX.4.4|9=57|35=0|34=206|49=CLIENT|52=20250116-19:35:42.063|56=SERVER|10=215|
8=FIX.4.4|9=57|35=0|34=158|49=SERVER|52=20250116-19:36:01.143|56=CLIENT|10=216|
8=FIX.4.4|9=57|35=0|34=207|49=CLIENT|52=20250116-19:36:12.055|56=SERVER|10=215|
8=FIX.4.4|9=57|35=0|34=159|49=SERVER|52=20250116-19:36:31.146|56=CLIENT|10=223|
8=FIX.4.4|9=57|35=0|34=208|49=CLIENT|52=20250116-19:36:42.059|56=SERVER|10=223|
8=FIX.4.4|9=57|35=0|34=160|49=SERVER|52=20250116-19:37:01.144|56=CLIENT|10=211|
8=FIX.4.4|9=57|35=0|34=209|49=CLIENT|52=20250116-19:37:12.060|56=SERVER|10=214|
8=FIX.4.4|9=57|35=0|34=161|49=SERVER|52=20250116-19:37:31.143|56=CLIENT|10=214|
8=FIX.4.4|9=57|35=0|34=210|49=CLIENT|52=20250116-19:37:42.051|56=SERVER|10=209|
8=FIX.4.4|9=57|35=0|34=162|49=SERVER|52=20250116-19:38:01.145|56=CLIENT|10=215|
8=FIX.4.4|9=57|35=0|34=211|49=CLIENT|52=20250116-19:38:12.051|56=SERVER|10=208|
8=FIX.4.4|9=57|35=0|34=163|49=SERVER|52=20250116-19:38:31.141|56=CLIENT|10=215|
8=FIX.4.4|9=57|35=0|34=212|49=CLIENT|52=20250116-19:38:42.060|56=SERVER|10=212|
8=FIX.4.4|9=57|35=0|34=164|49=SERVER|52=20250116-19:39:01.138|56=CLIENT|10=220|
8=FIX.4.4|9=57|35=0|34=213|49=CLIENT|52=20250116-19:39:12.052|56=SERVER|10=212|
8=FIX.4.4|9=57|35=0|34=165|49=SERVER|52=20250116-19:39:31.149|56=CLIENT|10=226|
8=FIX.4.4|9=57|35=0|34=214|49=CLIENT|52=20250116-19:39:42.054|56=SERVER|10=218|
8=FIX.4.4|9=57|35=0|34=166|49=SERVER|52=20250116-19:40:01.142|56=CLIENT|10=209|
8=FIX.4.4|9=57|35=0|34=215|49=CLIENT|52=20250116-19:40:12.055|56=SERVER|10=209|
8=FIX.4.4|9=57|35=0|34=167|49=SERVER|52=20250116-19:40:31.144|56=CLIENT|10=215|
8=FIX.4.4|9=57|35=0|34=216|49=CLIENT|52=20250116-19:40:42.063|56=SERVER|10=212|
8=FIX.4.4|9=57|35=0|34=168|49=SERVER|52=20250116-19:41:01.143|56=CLIENT|10=213|
8=FIX.4.4|9=57|35=0|34=217|49=CLIENT|52=20250116-19:41:12.055|56=SERVER|10=212|
8=FIX.4.4|9=57|35=0|34=169|49=SERVER|52=20250116-19:41:31.143|56=CLIENT|10=217|
8=FIX.4.4|9=57|35=0|34=218|49=CLIENT|52=20250116-19:41:42.062|56=SERVER|10=214|
8=FIX.4.4|9=57|35=0|34=170|49=SERVER|52=20250116-19:42:01.152|56=CLIENT|10=207|
8=FIX.4.4|9=57|35=0|34=219|49=CLIENT|52=20250116-19:42:12.060|56=SERVER|10=211|
8=FIX.4.4|9=57|35=0|34=171|49=SERVER|52=20250116-19:42:32.150|56=CLIENT|10=210|
8=FIX.4.4|9=57|35=0|34=220|49=CLIENT|52=20250116-19:42:43.053|56=SERVER|10=209|
8=FIX.4.4|9=69|35=A|34=221|49=CLIENT|52=20250116-19:43:22.637|56=SERVER|98=0|108=30|10=005|
8=FIX.4.4|9=69|35=A|34=172|49=SERVER|52=20250116-19:43:22.656|56=CLIENT|98=0|108=30|10=011|
8=FIX.4.4|9=120|35=D|34=222|49=CLIENT|52=20250116-19:43:23.163|56=SERVER|11=12345|38=50|40=2|44=50|54=1|55=BTC|60=20250116-19:43:23.163|10=200|
8=FIX.4.4|9=120|35=D|34=223|49=CLIENT|52=20250116-19:43:26.106|56=SERVER|11=12345|38=50|40=2|44=50|54=1|55=BTC|60=20250116-19:43:26.105|10=200|
8=FIX.4.4|9=57|35=0|34=173|49=SERVER|52=20250116-19:43:53.094|56=CLIENT|10=223|
8=FIX.4.4|9=57|35=0|34=224|49=CLIENT|52=20250116-19:43:56.618|56=SERVER|10=225|
8=FIX.4.4|9=57|35=0|34=174|49=SERVER|52=20250116-19:44:23.107|56=CLIENT|10=217|
8=FIX.4.4|9=57|35=0|34=225|49=CLIENT|52=20250116-19:44:26.619|56=SERVER|10=225|
8=FIX.4.4|9=69|35=A|34=226|49=CLIENT|52=20250116-19:44:58.743|56=SERVER|98=0|108=30|10=018|
8=FIX.4.4|9=69|35=A|34=175|49=SERVER|52=20250116-19:44:58.768|56=CLIENT|98=0|108=30|10=028|
8=FIX.4.4|9=120|35=D|34=227|49=CLIENT|52=20250116-19:44:59.271|56=SERVER|11=12345|38=50|40=2|44=50|54=1|55=BTC|60=20250116-19:44:59.271|10=225|
8=FIX.4.4|9=57|35=0|34=176|49=SERVER|52=20250116-19:45:29.491|56=CLIENT|10=232|
8=FIX.4.4|9=57|35=0|34=228|49=CLIENT|52=20250116-19:45:29.493|56=SERVER|10=232|
8=FIX.4.4|9=57|35=0|34=177|49=SERVER|52=20250116-19:45:59.485|56=CLIENT|10=239|
8=FIX.4.4|9=57|35=0|34=229|49=CLIENT|52=20250116-19:45:59.488|56=SERVER|10=240|
8=FIX.4.4|9=57|35=0|34=178|49=SERVER|52=20250116-19:46:29.484|56=CLIENT|10=237|
8=FIX.4.4|9=57|35=0|34=230|49=CLIENT|52=20250116-19:46:29.485|56=SERVER|10=227|
8=FIX.4.4|9=57|35=0|34=179|49=SERVER|52=20250116-19:46:59.483|56=CLIENT|10=240|
8=FIX.4.4|9=57|35=0|34=231|49=CLIENT|52=20250116-19:46:59.483|56=SERVER|10=229|
8=FIX.4.4|9=57|35=0|34=180|49=SERVER|52=20250116-19:47:29.489|56=CLIENT|10=236|
8=FIX.4.4|9=57|35=0|34=232|49=CLIENT|52=20250116-19:47:29.490|56=SERVER|10=226|
8=FIX.4.4|9=57|35=0|34=181|49=SERVER|52=20250116-19:47:59.488|56=CLIENT|10=239|
8=FIX.4.4|9=57|35=0|34=233|49=CLIENT|52=20250116-19:47:59.489|56=SERVER|10=238|
8=FIX.4.4|9=69|35=A|34=234|49=CLIENT|52=20250116-19:48:51.633|56=SERVER|98=0|108=30|10=012|
8=FIX.4.4|9=69|35=A|34=182|49=SERVER|52=20250116-19:48:51.651|56=CLIENT|98=0|108=30|10=014|
8=FIX.4.4|9=120|35=D|34=235|49=CLIENT|52=20250116-19:48:52.151|56=SERVER|11=12345|38=50|40=2|44=50|54=1|55=BTC|60=20250116-19:48:52.151|10=212|
8=FIX.4.4|9=120|35=D|34=236|49=CLIENT|52=20250116-19:48:53.928|56=SERVER|11=12345|38=50|40=2|44=50|54=1|55=BTC|60=20250116-19:48:53.927|10=238|
8=FIX.4.4|9=57|35=0|34=183|49=SERVER|52=20250116-19:49:22.082|56=CLIENT|10=223|
8=FIX.4.4|9=57|35=0|34=237|49=CLIENT|52=20250116-19:49:24.632|56=SERVER|10=226|
8=FIX.4.4|9=57|35=0|34=184|49=SERVER|52=20250116-19:49:52.075|56=CLIENT|10=229|
8=FIX.4.4|9=57|35=0|34=238|49=CLIENT|52=20250116-19:49:55.621|56=SERVER|10=229|
8=FIX.4.4|9=57|35=0|34=185|49=SERVER|52=20250116-19:50:22.088|56=CLIENT|10=223|
8=FIX.4.4|9=57|35=0|34=239|49=CLIENT|52=20250116-19:50:25.630|56=SERVER|10=219|
8=FIX.4.4|9=57|35=0|34=186|49=SERVER|52=20250116-19:50:53.083|56=CLIENT|10=223|
8=FIX.4.4|9=57|35=0|34=240|49=CLIENT|52=20250116-19:50:55.624|56=SERVER|10=217|
8=FIX.4.4|9=57|35=0|34=187|49=SERVER|52=20250116-19:51:23.086|56=CLIENT|10=225|
8=FIX.4.4|9=57|35=0|34=241|49=CLIENT|52=20250116-19:51:25.629|56=SERVER|10=221|
8=FIX.4.4|9=57|35=0|34=188|49=SERVER|52=20250116-19:51:53.082|56=CLIENT|10=225|
8=FIX.4.4|9=57|35=0|34=242|49=CLIENT|52=20250116-19:51:55.632|56=SERVER|10=219|
8=FIX.4.4|9=57|35=0|34=189|49=SERVER|52=20250116-19:52:23.084|56=CLIENT|10=226|
8=FIX.4.4|9=57|35=0|34=243|49=CLIENT|52=20250116-19:52:25.634|56=SERVER|10=220|
8=FIX.4.4|9=57|35=0|34=190|49=SERVER|52=20250116-19:52:53.081|56=CLIENT|10=218|
8=FIX.4.4|9=57|35=0|34=244|49=CLIENT|52=20250116-19:52:55.635|56=SERVER|10=225|
8=FIX.4.4|9=57|35=0|34=191|49=SERVER|52=20250116-19:53:23.090|56=CLIENT|10=217|
8=FIX.4.4|9=57|35=0|34=245|49=CLIENT|52=20250116-19:53:25.626|56=SERVER|10=224|
8=FIX.4.4|9=57|35=0|34=192|49=SERVER|52=20250116-19:53:53.083|56=CLIENT|10=223|
8=FIX.4.4|9=57|35=0|34=246|49=CLIENT|52=20250116-19:53:55.624|56=SERVER|10=226|
8=FIX.4.4|9=69|35=A|34=247|49=CLIENT|52=20250116-19:54:26.036|56=SERVER|98=0|108=30|10=012|
8=FIX.4.4|9=69|35=A|34=193|49=SERVER|52=20250116-19:54:26.053|56=CLIENT|98=0|108=30|10=011|
8=FIX.4.4|9=120|35=D|34=248|49=CLIENT|52=20250116-19:54:26.562|56=SERVER|11=12345|38=50|40=2|44=50|54=1|55=BTC|60=20250116-19:54:26.562|10=224|
8=FIX.4.4|9=57|35=0|34=194|49=SERVER|52=20250116-19:54:56.119|56=CLIENT|10=229|
8=FIX.4.4|9=57|35=0|34=249|49=CLIENT|52=20250116-19:54:57.033|56=SERVER|10=226|
8=FIX.4.4|9=57|35=0|34=195|49=SERVER|52=20250116-19:55:26.115|56=CLIENT|10=224|
8=FIX.4.4|9=57|35=0|34=250|49=CLIENT|52=20250116-19:55:27.035|56=SERVER|10=218|
8=FIX.4.4|9=69|35=A|34=251|49=CLIENT|52=20250116-19:56:27.574|56=SERVER|98=0|108=30|10=017|
8=FIX.4.4|9=69|35=A|34=196|49=SERVER|52=20250116-19:56:27.592|56=CLIENT|98=0|108=30|10=025|
8=FIX.4.4|9=69|35=A|34=252|49=CLIENT|52=20250116-19:57:03.628|56=SERVER|98=0|108=30|10=013|
8=FIX.4.4|9=69|35=A|34=197|49=SERVER|52=20250116-19:57:03.645|56=CLIENT|98=0|108=30|10=020|
8=FIX.4.4|9=120|35=D|34=253|49=CLIENT|52=20250116-19:57:04.128|56=SERVER|11=12345|38=50|40=2|44=50|54=1|55=BTC|60=20250116-19:57:04.128|10=214|
8=FIX.4.4|9=120|35=D|34=254|49=CLIENT|52=20250116-19:57:06.554|56=SERVER|11=12345|38=50|40=2|44=50|54=1|55=BTC|60=20250116-19:57:06.554|10=225|
8=FIX.4.4|9=57|35=0|34=198|49=SERVER|52=20250116-19:57:34.605|56=CLIENT|10=232|
8=FIX.4.4|9=57|35=0|34=255|49=CLIENT|52=20250116-19:57:36.611|56=SERVER|10=225|
8=FIX.4.4|9=57|35=0|34=199|49=SERVER|52=20250116-19:58:04.596|56=CLIENT|10=240|
8=FIX.4.4|9=57|35=0|34=256|49=CLIENT|52=20250116-19:58:06.620|56=SERVER|10=224|
8=FIX.4.4|9=57|35=0|34=200|49=SERVER|52=20250116-19:58:34.605|56=CLIENT|10=217|
8=FIX.4.4|9=57|35=0|34=257|49=CLIENT|52=20250116-19:58:36.617|56=SERVER|10=234|
8=FIX.4.4|9=57|35=0|34=201|49=SERVER|52=20250116-19:59:04.602|56=CLIENT|10=213|
8=FIX.4.4|9=57|35=0|34=258|49=CLIENT|52=20250116-19:59:07.605|56=SERVER|10=231|
8=FIX.4.4|9=57|35=0|34=202|49=SERVER|52=20250116-19:59:34.601|56=CLIENT|10=216|
8=FIX.4.4|9=57|35=0|34=259|49=CLIENT|52=20250116-19:59:37.615|56=SERVER|10=236|
8=FIX.4.4|9=57|35=0|34=203|49=SERVER|52=20250116-20:00:04.593|56=CLIENT|10=202|
8=FIX.4.4|9=57|35=0|34=260|49=CLIENT|52=20250116-20:00:07.610|56=SERVER|10=198|
8=FIX.4.4|9=57|35=0|34=204|49=SERVER|52=20250116-20:00:34.593|56=CLIENT|10=206|
8=FIX.4.4|9=57|35=0|34=261|49=CLIENT|52=20250116-20:00:37.618|56=SERVER|10=210|
8=FIX.4.4|9=57|35=0|34=205|49=SERVER|52=20250116-20:01:04.597|56=CLIENT|10=209|
8=FIX.4.4|9=57|35=0|34=262|49=CLIENT|52=20250116-20:01:07.620|56=SERVER|10=202|
8=FIX.4.4|9=57|35=0|34=206|49=SERVER|52=20250116-20:01:34.598|56=CLIENT|10=214|
8=FIX.4.4|9=57|35=0|34=263|49=CLIENT|52=20250116-20:01:38.609|56=SERVER|10=214|
8=FIX.4.4|9=57|35=0|34=207|49=SERVER|52=20250116-20:02:04.601|56=CLIENT|10=198|
8=FIX.4.4|9=57|35=0|34=264|49=CLIENT|52=20250116-20:02:08.609|56=SERVER|10=213|
8=FIX.4.4|9=57|35=0|34=208|49=SERVER|52=20250116-20:02:34.602|56=CLIENT|10=203|
8=FIX.4.4|9=57|35=0|34=265|49=CLIENT|52=20250116-20:02:38.611|56=SERVER|10=210|
8=FIX.4.4|9=57|35=0|34=209|49=SERVER|52=20250116-20:03:04.599|56=CLIENT|10=217|
8=FIX.4.4|9=57|35=0|34=266|49=CLIENT|52=20250116-20:03:08.618|56=SERVER|10=216|
8=FIX.4.4|9=57|35=0|34=210|49=SERVER|52=20250116-20:03:34.600|56=CLIENT|10=195|
8=FIX.4.4|9=57|35=0|34=267|49=CLIENT|52=20250116-20:03:38.613|56=SERVER|10=215|
8=FIX.4.4|9=57|35=0|34=211|49=SERVER|52=20250116-20:04:04.598|56=CLIENT|10=210|
8=FIX.4.4|9=57|35=0|34=268|49=CLIENT|52=20250116-20:04:08.620|56=SERVER|10=212|
8=FIX.4.4|9=57|35=0|34=212|49=SERVER|52=20250116-20:04:34.602|56=CLIENT|10=200|
8=FIX.4.4|9=57|35=0|34=269|49=CLIENT|52=20250116-20:04:38.611|56=SERVER|10=216|
8=FIX.4.4|9=57|35=0|34=213|49=SERVER|52=20250116-20:05:04.599|56=CLIENT|10=214|
8=FIX.4.4|9=57|35=0|34=270|49=CLIENT|52=20250116-20:05:08.612|56=SERVER|10=207|
8=FIX.4.4|9=57|35=0|34=214|49=SERVER|52=20250116-20:05:34.591|56=CLIENT|10=210|
8=FIX.4.4|9=57|35=0|34=271|49=CLIENT|52=20250116-20:05:38.610|56=SERVER|10=209|
8=FIX.4.4|9=57|35=0|34=215|49=SERVER|52=20250116-20:06:04.602|56=CLIENT|10=202|
8=FIX.4.4|9=57|35=0|34=272|49=CLIENT|52=20250116-20:06:08.619|56=SERVER|10=217|
8=FIX.4.4|9=57|35=0|34=216|49=SERVER|52=20250116-20:06:34.600|56=CLIENT|10=204|
8=FIX.4.4|9=57|35=0|34=273|49=CLIENT|52=20250116-20:06:38.620|56=SERVER|10=213|
8=FIX.4.4|9=57|35=0|34=217|49=SERVER|52=20250116-20:07:04.591|56=CLIENT|10=212|
8=FIX.4.4|9=57|35=0|34=274|49=CLIENT|52=20250116-20:07:08.618|56=SERVER|10=219|
8=FIX.4.4|9=57|35=0|34=218|49=SERVER|52=20250116-20:07:34.591|56=CLIENT|10=216|
8=FIX.4.4|9=57|35=0|34=275|49=CLIENT|52=20250116-20:07:38.617|56=SERVER|10=222|
8=FIX.4.4|9=57|35=0|34=219|49=SERVER|52=20250116-20:08:04.592|56=CLIENT|10=216|
8=FIX.4.4|9=57|35=0|34=276|49=CLIENT|52=20250116-20:08:08.610|56=SERVER|10=214|
8=FIX.4.4|9=57|35=0|34=220|49=SERVER|52=20250116-20:08:34.605|56=CLIENT|10=206|
8=FIX.4.4|9=57|35=0|34=277|49=CLIENT|52=20250116-20:08:38.614|56=SERVER|10=222|
8=FIX.4.4|9=57|35=0|34=221|49=SERVER|52=20250116-20:09:04.596|56=CLIENT|10=214|
8=FIX.4.4|9=57|35=0|34=278|49=CLIENT|52=20250116-20:09:08.610|56=SERVER|10=217|
8=FIX.4.4|9=57|35=0|34=222|49=SERVER|52=20250116-20:09:34.602|56=CLIENT|10=206|
8=FIX.4.4|9=57|35=0|34=279|49=CLIENT|52=20250116-20:09:38.607|56=SERVER|10=227|
8=FIX.4.4|9=57|35=0|34=223|49=SERVER|52=20250116-20:10:04.599|56=CLIENT|10=211|
8=FIX.4.4|9=57|35=0|34=280|49=CLIENT|52=20250116-20:10:08.610|56=SERVER|10=202|
8=FIX.4.4|9=57|35=0|34=224|49=SERVER|52=20250116-20:10:34.602|56=CLIENT|10=200|
8=FIX.4.4|9=57|35=0|34=281|49=CLIENT|52=20250116-20:10:38.617|56=SERVER|10=213|
8=FIX.4.4|9=57|35=0|34=225|49=SERVER|52=20250116-20:11:04.603|56=CLIENT|10=200|
8=FIX.4.4|9=57|35=0|34=282|49=CLIENT|52=20250116-20:11:08.616|56=SERVER|10=211|
8=FIX.4.4|9=57|35=0|34=226|49=SERVER|52=20250116-20:11:35.604|56=CLIENT|10=206|
8=FIX.4.4|9=57|35=0|34=283|49=CLIENT|52=20250116-20:11:38.617|56=SERVER|10=216|
8=FIX.4.4|9=57|35=0|34=227|49=SERVER|52=20250116-20:12:06.595|56=CLIENT|10=215|
8=FIX.4.4|9=57|35=0|34=284|49=CLIENT|52=20250116-20:12:08.609|56=SERVER|10=216|
8=FIX.4.4|9=57|35=0|34=228|49=SERVER|52=20250116-20:12:36.595|56=CLIENT|10=219|
8=FIX.4.4|9=57|35=0|34=285|49=CLIENT|52=20250116-20:12:38.611|56=SERVER|10=213|
8=FIX.4.4|9=57|35=0|34=229|49=SERVER|52=20250116-20:13:06.591|56=CLIENT|10=214|
8=FIX.4.4|9=57|35=0|34=286|49=CLIENT|52=20250116-20:13:08.614|56=SERVER|10=215|
8=FIX.4.4|9=57|35=0|34=230|49=SERVER|52=20250116-20:13:36.598|56=CLIENT|10=216|
8=FIX.4.4|9=57|35=0|34=287|49=CLIENT|52=20250116-20:13:38.613|56=SERVER|10=218|
8=FIX.4.4|9=57|35=0|34=231|49=SERVER|52=20250116-20:14:06.599|56=CLIENT|10=216|
8=FIX.4.4|9=57|35=0|34=288|49=CLIENT|52=20250116-20:14:08.607|56=SERVER|10=220|
8=FIX.4.4|9=57|35=0|34=232|49=SERVER|52=20250116-20:14:36.595|56=CLIENT|10=216|
8=FIX.4.4|9=57|35=0|34=289|49=CLIENT|52=20250116-20:14:38.616|56=SERVER|10=224|
8=FIX.4.4|9=57|35=0|34=233|49=SERVER|52=20250116-20:15:06.598|56=CLIENT|10=218|
8=FIX.4.4|9=57|35=0|34=290|49=CLIENT|52=20250116-20:15:08.614|56=SERVER|10=212|
8=FIX.4.4|9=57|35=0|34=234|49=SERVER|52=20250116-20:15:36.600|56=CLIENT|10=206|
8=FIX.4.4|9=57|35=0|34=291|49=CLIENT|52=20250116-20:15:38.621|56=SERVER|10=214|
8=FIX.4.4|9=57|35=0|34=235|49=SERVER|52=20250116-20:16:06.599|56=CLIENT|10=222|
8=FIX.4.4|9=57|35=0|34=292|49=CLIENT|52=20250116-20:16:09.616|56=SERVER|10=218|
8=FIX.4.4|9=57|35=0|34=236|49=SERVER|52=20250116-20:16:36.591|56=CLIENT|10=218|
8=FIX.4.4|9=57|35=0|34=293|49=CLIENT|52=20250116-20:16:39.612|56=SERVER|10=218|
8=FIX.4.4|9=57|35=0|34=237|49=SERVER|52=20250116-20:17:06.597|56=CLIENT|10=223|
8=FIX.4.4|9=57|35=0|34=294|49=CLIENT|52=20250116-20:17:09.610|56=SERVER|10=215|
8=FIX.4.4|9=57|35=0|34=238|49=SERVER|52=20250116-20:17:36.594|56=CLIENT|10=224|
8=FIX.4.4|9=57|35=0|34=295|49=CLIENT|52=20250116-20:17:39.607|56=SERVER|10=225|
8=FIX.4.4|9=57|35=0|34=239|49=SERVER|52=20250116-20:18:06.591|56=CLIENT|10=220|
8=FIX.4.4|9=57|35=0|34=296|49=CLIENT|52=20250116-20:18:09.606|56=SERVER|10=223|
8=FIX.4.4|9=57|35=0|34=240|49=SERVER|52=20250116-20:18:36.601|56=CLIENT|10=207|
8=FIX.4.4|9=57|35=0|34=297|49=CLIENT|52=20250116-20:18:39.613|56=SERVER|10=225|
8=FIX.4.4|9=57|35=0|34=241|49=SERVER|52=20250116-20:19:06.598|56=CLIENT|10=221|
8=FIX.4.4|9=57|35=0|34=298|49=CLIENT|52=20250116-20:19:09.607|56=SERVER|10=227|
8=FIX.4.4|9=57|35=0|34=242|49=SERVER|52=20250116-20:19:36.592|56=CLIENT|10=219|
8=FIX.4.4|9=57|35=0|34=299|49=CLIENT|52=20250116-20:19:39.616|56=SERVER|10=231|
8=FIX.4.4|9=57|35=0|34=243|49=SERVER|52=20250116-20:20:06.605|56=CLIENT|10=204|
8=FIX.4.4|9=57|35=0|34=300|49=CLIENT|52=20250116-20:20:09.617|56=SERVER|10=204|
8=FIX.4.4|9=57|35=0|34=244|49=SERVER|52=20250116-20:20:37.600|56=CLIENT|10=204|
8=FIX.4.4|9=57|35=0|34=301|49=CLIENT|52=20250116-20:20:39.609|56=SERVER|10=209|
8=FIX.4.4|9=57|35=0|34=245|49=SERVER|52=20250116-20:21:07.602|56=CLIENT|10=205|
8=FIX.4.4|9=57|35=0|34=302|49=CLIENT|52=20250116-20:21:09.608|56=SERVER|10=207|
8=FIX.4.4|9=57|35=0|34=246|49=SERVER|52=20250116-20:21:37.600|56=CLIENT|10=207|
8=FIX.4.4|9=57|35=0|34=303|49=CLIENT|52=20250116-20:21:39.619|56=SERVER|10=213|
8=FIX.4.4|9=57|35=0|34=247|49=SERVER|52=20250116-20:22:07.601|56=CLIENT|10=207|
8=FIX.4.4|9=57|35=0|34=304|49=CLIENT|52=20250116-20:22:09.616|56=SERVER|10=209|
8=FIX.4.4|9=57|35=0|34=248|49=SERVER|52=20250116-20:22:37.603|56=CLIENT|10=213|
8=FIX.4.4|9=57|35=0|34=305|49=CLIENT|52=20250116-20:22:39.609|56=SERVER|10=215|
8=FIX.4.4|9=57|35=0|34=249|49=SERVER|52=20250116-20:23:07.602|56=CLIENT|10=211|
8=FIX.4.4|9=57|35=0|34=306|49=CLIENT|52=20250116-20:23:09.609|56=SERVER|10=214|
8=FIX.4.4|9=57|35=0|34=250|49=SERVER|52=20250116-20:23:37.603|56=CLIENT|10=207|
8=FIX.4.4|9=57|35=0|34=307|49=CLIENT|52=20250116-20:23:39.618|56=SERVER|10=218|
8=FIX.4.4|9=57|35=0|34=251|49=SERVER|52=20250116-20:24:08.604|56=CLIENT|10=208|
8=FIX.4.4|9=57|35=0|34=308|49=CLIENT|52=20250116-20:24:10.616|56=SERVER|10=207|
8=FIX.4.4|9=57|35=0|34=252|49=SERVER|52=20250116-20:24:38.604|56=CLIENT|10=212|
8=FIX.4.4|9=57|35=0|34=309|49=CLIENT|52=20250116-20:24:40.608|56=SERVER|10=212|
8=FIX.4.4|9=57|35=0|34=253|49=SERVER|52=20250116-20:25:08.599|56=CLIENT|10=224|
8=FIX.4.4|9=57|35=0|34=310|49=CLIENT|52=20250116-20:25:10.619|56=SERVER|10=204|
8=FIX.4.4|9=57|35=0|34=254|49=SERVER|52=20250116-20:25:38.606|56=CLIENT|10=217|
8=FIX.4.4|9=57|35=0|34=311|49=CLIENT|52=20250116-20:25:41.608|56=SERVER|10=207|
8=FIX.4.4|9=57|35=0|34=255|49=SERVER|52=20250116-20:26:08.603|56=CLIENT|10=213|
8=FIX.4.4|9=57|35=0|34=312|49=CLIENT|52=20250116-20:26:11.608|56=SERVER|10=206|
8=FIX.4.4|9=57|35=0|34=256|49=SERVER|52=20250116-20:26:38.606|56=CLIENT|10=220|
8=FIX.4.4|9=57|35=0|34=313|49=CLIENT|52=20250116-20:26:41.611|56=SERVER|10=204|
8=FIX.4.4|9=57|35=0|34=257|49=SERVER|52=20250116-20:27:08.602|56=CLIENT|10=215|
8=FIX.4.4|9=57|35=0|34=314|49=CLIENT|52=20250116-20:27:11.609|56=SERVER|10=210|
8=FIX.4.4|9=57|35=0|34=258|49=SERVER|52=20250116-20:27:38.598|56=CLIENT|10=233|
8=FIX.4.4|9=57|35=0|34=315|49=CLIENT|52=20250116-20:27:41.619|56=SERVER|10=215|
8=FIX.4.4|9=57|35=0|34=259|49=SERVER|52=20250116-20:28:08.595|56=CLIENT|10=229|
8=FIX.4.4|9=57|35=0|34=316|49=CLIENT|52=20250116-20:28:11.612|56=SERVER|10=207|
8=FIX.4.4|9=57|35=0|34=260|49=SERVER|52=20250116-20:28:38.596|56=CLIENT|10=225|
8=FIX.4.4|9=57|35=0|34=317|49=CLIENT|52=20250116-20:28:41.616|56=SERVER|10=215|
8=FIX.4.4|9=57|35=0|34=261|49=SERVER|52=20250116-20:29:08.603|56=CLIENT|10=213|
8=FIX.4.4|9=57|35=0|34=318|49=CLIENT|52=20250116-20:29:11.611|56=SERVER|10=209|
8=FIX.4.4|9=57|35=0|34=262|49=SERVER|52=20250116-20:29:38.603|56=CLIENT|10=217|
8=FIX.4.4|9=57|35=0|34=319|49=CLIENT|52=20250116-20:29:41.606|56=SERVER|10=217|
8=FIX.4.4|9=69|35=A|34=320|49=CLIENT|52=20250116-20:30:09.602|56=SERVER|98=0|108=30|10=246|
8=FIX.4.4|9=69|35=A|34=263|49=SERVER|52=20250116-20:30:09.623|56=CLIENT|98=0|108=30|10=255|
8=FIX.4.4|9=120|35=D|34=321|49=CLIENT|52=20250116-20:30:10.127|56=SERVER|11=12345|38=50|40=2|44=50|54=1|55=BTC|60=20250116-20:30:10.127|10=168|
8=FIX.4.4|9=57|35=0|34=264|49=SERVER|52=20250116-20:30:40.046|56=CLIENT|10=205|
8=FIX.4.4|9=57|35=0|34=322|49=CLIENT|52=20250116-20:30:40.595|56=SERVER|10=209|
8=FIX.4.4|9=57|35=0|34=265|49=SERVER|52=20250116-20:31:10.046|56=CLIENT|10=204|
8=FIX.4.4|9=57|35=0|34=323|49=CLIENT|52=20250116-20:31:10.595|56=SERVER|10=208|
8=FIX.4.4|9=57|35=0|34=266|49=SERVER|52=20250116-20:31:40.041|56=CLIENT|10=203|
8=FIX.4.4|9=57|35=0|34=324|49=CLIENT|52=20250116-20:31:40.601|56=SERVER|10=200|
8=FIX.4.4|9=57|35=0|34=267|49=SERVER|52=20250116-20:32:10.043|56=CLIENT|10=204|
8=FIX.4.4|9=57|35=0|34=325|49=CLIENT|52=20250116-20:32:10.607|56=SERVER|10=205|
8=FIX.4.4|9=57|35=0|34=268|49=SERVER|52=20250116-20:32:40.046|56=CLIENT|10=211|
8=FIX.4.4|9=57|35=0|34=326|49=CLIENT|52=20250116-20:32:40.608|56=SERVER|10=210|
8=FIX.4.4|9=57|35=0|34=269|49=SERVER|52=20250116-20:33:10.043|56=CLIENT|10=207|
8=FIX.4.4|9=57|35=0|34=327|49=CLIENT|52=20250116-20:33:10.605|56=SERVER|10=206|
8=FIX.4.4|9=57|35=0|34=270|49=SERVER|52=20250116-20:33:40.038|56=CLIENT|10=206|
8=FIX.4.4|9=57|35=0|34=328|49=CLIENT|52=20250116-20:33:40.602|56=SERVER|10=207|
8=FIX.4.4|9=57|35=0|34=271|49=SERVER|52=20250116-20:34:10.050|56=CLIENT|10=199|
8=FIX.4.4|9=57|35=0|34=329|49=CLIENT|52=20250116-20:34:10.600|56=SERVER|10=204|
8=FIX.4.4|9=69|35=A|34=330|49=CLIENT|52=20250116-20:34:19.691|56=SERVER|98=0|108=30|10=004|
8=FIX.4.4|9=69|35=A|34=272|49=SERVER|52=20250116-20:34:19.710|56=CLIENT|98=0|108=30|10=001|
8=FIX.4.4|9=120|35=D|34=331|49=CLIENT|52=20250116-20:34:20.194|56=SERVER|11=12345|38=50|40=2|44=50|54=1|55=BTC|60=20250116-20:34:20.194|10=187|
8=FIX.4.4|9=57|35=0|34=273|49=SERVER|52=20250116-20:34:50.589|56=CLIENT|10=222|
8=FIX.4.4|9=57|35=0|34=332|49=CLIENT|52=20250116-20:34:50.590|56=SERVER|10=210|
8=FIX.4.4|9=57|35=0|34=274|49=SERVER|52=20250116-20:35:20.586|56=CLIENT|10=218|
8=FIX.4.4|9=57|35=0|34=333|49=CLIENT|52=20250116-20:35:20.587|56=SERVER|10=215|
8=FIX.4.4|9=57|35=0|34=275|49=SERVER|52=20250116-20:35:50.590|56=CLIENT|10=217|
8=FIX.4.4|9=57|35=0|34=334|49=CLIENT|52=20250116-20:35:50.594|56=SERVER|10=217|
8=FIX.4.4|9=57|35=0|34=276|49=SERVER|52=20250116-20:36:20.595|56=CLIENT|10=221|
8=FIX.4.4|9=57|35=0|34=335|49=CLIENT|52=20250116-20:36:20.599|56=SERVER|10=221|
8=FIX.4.4|9=57|35=0|34=277|49=SERVER|52=20250116-20:36:50.589|56=CLIENT|10=228|
8=FIX.4.4|9=57|35=0|34=336|49=CLIENT|52=20250116-20:36:50.590|56=SERVER|10=216|
8=FIX.4.4|9=57|35=0|34=278|49=SERVER|52=20250116-20:37:20.589|56=CLIENT|10=227|
8=FIX.4.4|9=57|35=0|34=337|49=CLIENT|52=20250116-20:37:20.590|56=SERVER|10=215|
8=FIX.4.4|9=57|35=0|34=279|49=SERVER|52=20250116-20:37:50.584|56=CLIENT|10=226|
8=FIX.4.4|9=57|35=0|34=338|49=CLIENT|52=20250116-20:37:50.586|56=SERVER|10=224|
8=FIX.4.4|9=57|35=0|34=280|49=SERVER|52=20250116-20:38:20.581|56=CLIENT|10=213|
8=FIX.4.4|9=57|35=0|34=339|49=CLIENT|52=20250116-20:38:20.581|56=SERVER|10=218|
8=FIX.4.4|9=57|35=0|34=281|49=SERVER|52=20250116-20:38:50.596|56=CLIENT|10=223|
8=FIX.4.4|9=57|35=0|34=340|49=CLIENT|52=20250116-20:38:50.599|56=SERVER|10=222|
8=FIX.4.4|9=57|35=0|34=282|49=SERVER|52=20250116-20:39:20.587|56=CLIENT|10=222|
8=FIX.4.4|9=57|35=0|34=341|49=CLIENT|52=20250116-20:39:20.591|56=SERVER|10=213|
8=FIX.4.4|9=57|35=0|34=283|49=SERVER|52=20250116-20:39:50.582|56=CLIENT|10=221|
8=FIX.4.4|9=57|35=0|34=342|49=CLIENT|52=20250116-20:39:50.582|56=SERVER|10=217|
8=FIX.4.4|9=57|35=0|34=284|49=SERVER|52=20250116-20:40:20.594|56=CLIENT|10=214|
8=FIX.4.4|9=57|35=0|34=343|49=CLIENT|52=20250116-20:40:20.595|56=SERVER|10=211|
8=FIX.4.4|9=57|35=0|34=285|49=SERVER|52=20250116-20:40:50.595|56=CLIENT|10=219|
8=FIX.4.4|9=57|35=0|34=344|49=CLIENT|52=20250116-20:40:50.596|56=SERVER|10=216|
8=FIX.4.4|9=57|35=0|34=286|49=SERVER|52=20250116-20:41:20.591|56=CLIENT|10=214|
8=FIX.4.4|9=57|35=0|34=345|49=CLIENT|52=20250116-20:41:20.592|56=SERVER|10=211|
8=FIX.4.4|9=57|35=0|34=287|49=SERVER|52=20250116-20:41:50.589|56=CLIENT|10=225|
8=FIX.4.4|9=57|35=0|34=346|49=CLIENT|52=20250116-20:41:50.592|56=SERVER|10=215|
8=FIX.4.4|9=57|35=0|34=288|49=SERVER|52=20250116-20:42:20.581|56=CLIENT|10=216|
8=FIX.4.4|9=57|35=0|34=347|49=CLIENT|52=20250116-20:42:20.583|56=SERVER|10=214|
8=FIX.4.4|9=57|35=0|34=289|49=SERVER|52=20250116-20:42:50.587|56=CLIENT|10=226|
8=FIX.4.4|9=57|35=0|34=348|49=CLIENT|52=20250116-20:42:50.589|56=SERVER|10=224|
8=FIX.4.4|9=57|35=0|34=290|49=SERVER|52=20250116-20:43:20.584|56=CLIENT|10=213|
8=FIX.4.4|9=57|35=0|34=349|49=CLIENT|52=20250116-20:43:20.586|56=SERVER|10=220|
8=FIX.4.4|9=57|35=0|34=291|49=SERVER|52=20250116-20:43:50.590|56=CLIENT|10=214|
8=FIX.4.4|9=57|35=0|34=350|49=CLIENT|52=20250116-20:43:50.590|56=SERVER|10=210|
8=FIX.4.4|9=57|35=0|34=292|49=SERVER|52=20250116-20:44:20.586|56=CLIENT|10=218|
8=FIX.4.4|9=57|35=0|34=351|49=CLIENT|52=20250116-20:44:20.587|56=SERVER|10=215|
8=FIX.4.4|9=57|35=0|34=293|49=SERVER|52=20250116-20:44:50.584|56=CLIENT|10=220|
8=FIX.4.4|9=57|35=0|34=352|49=CLIENT|52=20250116-20:44:50.584|56=SERVER|10=216|
8=FIX.4.4|9=57|35=0|34=294|49=SERVER|52=20250116-20:45:20.582|56=CLIENT|10=217|
8=FIX.4.4|9=57|35=0|34=353|49=CLIENT|52=20250116-20:45:20.582|56=SERVER|10=213|
8=FIX.4.4|9=57|35=0|34=295|49=SERVER|52=20250116-20:45:50.587|56=CLIENT|10=226|
8=FIX.4.4|9=57|35=0|34=354|49=CLIENT|52=20250116-20:45:50.592|56=SERVER|10=218|
8=FIX.4.4|9=57|35=0|34=296|49=SERVER|52=20250116-20:46:20.587|56=CLIENT|10=225|
8=FIX.4.4|9=57|35=0|34=355|49=CLIENT|52=20250116-20:46:20.590|56=SERVER|10=215|
8=FIX.4.4|9=57|35=0|34=297|49=SERVER|52=20250116-20:46:50.595|56=CLIENT|10=228|
8=FIX.4.4|9=57|35=0|34=356|49=CLIENT|52=20250116-20:46:50.599|56=SERVER|10=228|
8=FIX.4.4|9=57|35=0|34=298|49=SERVER|52=20250116-20:47:20.586|56=CLIENT|10=227|
8=FIX.4.4|9=57|35=0|34=357|49=CLIENT|52=20250116-20:47:20.590|56=SERVER|10=218|
8=FIX.4.4|9=57|35=0|34=299|49=SERVER|52=20250116-20:47:50.589|56=CLIENT|10=234|
8=FIX.4.4|9=57|35=0|34=358|49=CLIENT|52=20250116-20:47:50.589|56=SERVER|10=230|
8=FIX.4.4|9=57|35=0|34=300|49=SERVER|52=20250116-20:48:20.592|56=CLIENT|10=209|
8=FIX.4.4|9=57|35=0|34=359|49=CLIENT|52=20250116-20:48:20.593|56=SERVER|10=224|
8=FIX.4.4|9=57|35=0|34=301|49=SERVER|52=20250116-20:48:50.588|56=CLIENT|10=218|
8=FIX.4.4|9=57|35=0|34=360|49=CLIENT|52=20250116-20:48:50.588|56=SERVER|10=223|
8=FIX.4.4|9=69|35=A|34=361|49=CLIENT|52=20250116-20:49:33.029|56=SERVER|98=0|108=30|10=005|
8=FIX.4.4|9=69|35=A|34=302|49=SERVER|52=20250116-20:49:33.045|56=CLIENT|98=0|108=30|10=254|
8=FIX.4.4|9=120|35=D|34=362|49=CLIENT|52=20250116-20:49:33.551|56=SERVER|11=12345|38=50|40=2|44=50|54=1|55=BTC|60=20250116-20:49:33.551|10=205|
8=FIX.4.4|9=57|35=0|34=303|49=SERVER|52=20250116-20:50:03.380|56=CLIENT|10=201|
8=FIX.4.4|9=57|35=0|34=363|49=CLIENT|52=20250116-20:50:04.020|56=SERVER|10=199|
8=FIX.4.4|9=120|35=D|34=364|49=CLIENT|52=20250116-20:50:16.048|56=SERVER|11=12345|38=50|40=2|44=50|54=1|55=ETH|60=20250116-20:50:16.048|10=203|
8=FIX.4.4|9=57|35=0|34=304|49=SERVER|52=20250116-20:50:33.385|56=CLIENT|10=210|
8=FIX.4.4|9=57|35=0|34=365|49=CLIENT|52=20250116-20:50:47.026|56=SERVER|10=214|
8=FIX.4.4|9=57|35=0|34=305|49=SERVER|52=20250116-20:51:03.381|56=CLIENT|10=205|
8=FIX.4.4|9=57|35=0|34=366|49=CLIENT|52=20250116-20:51:17.021|56=SERVER|10=208|
8=FIX.4.4|9=57|35=0|34=306|49=SERVER|52=20250116-20:51:33.386|56=CLIENT|10=214|
8=FIX.4.4|9=57|35=0|34=367|49=CLIENT|52=20250116-20:51:47.025|56=SERVER|10=216|
8=FIX.4.4|9=57|35=0|34=307|49=SERVER|52=20250116-20:52:04.379|56=CLIENT|10=216|
8=FIX.4.4|9=57|35=0|34=368|49=CLIENT|52=20250116-20:52:17.023|56=SERVER|10=213|
8=FIX.4.4|9=57|35=0|34=308|49=SERVER|52=20250116-20:52:34.377|56=CLIENT|10=218|
8=FIX.4.4|9=57|35=0|34=369|49=CLIENT|52=20250116-20:52:47.027|56=SERVER|10=221|
8=FIX.4.4|9=57|35=0|34=309|49=SERVER|52=20250116-20:53:04.379|56=CLIENT|10=219|
8=FIX.4.4|9=57|35=0|34=370|49=CLIENT|52=20250116-20:53:17.026|56=SERVER|10=210|
8=FIX.4.4|9=57|35=0|34=310|49=SERVER|52=20250116-20:53:34.373|56=CLIENT|10=208|
8=FIX.4.4|9=57|35=0|34=371|49=CLIENT|52=20250116-20:53:47.024|56=SERVER|10=212|
8=FIX.4.4|9=57|35=0|34=311|49=SERVER|52=20250116-20:54:04.380|56=CLIENT|10=205|
8=FIX.4.4|9=57|35=0|34=372|49=CLIENT|52=20250116-20:54:17.032|56=SERVER|10=210|
8=FIX.4.4|9=57|35=0|34=312|49=SERVER|52=20250116-20:54:34.377|56=CLIENT|10=215|
8=FIX.4.4|9=57|35=0|34=373|49=CLIENT|52=20250116-20:54:48.031|56=SERVER|10=214|
8=FIX.4.4|9=57|35=0|34=313|49=SERVER|52=20250116-20:55:04.384|56=CLIENT|10=212|
8=FIX.4.4|9=57|35=0|34=374|49=CLIENT|52=20250116-20:55:18.028|56=SERVER|10=219|
8=FIX.4.4|9=57|35=0|34=314|49=SERVER|52=20250116-20:55:34.377|56=CLIENT|10=218|
8=FIX.4.4|9=57|35=0|34=375|49=CLIENT|52=20250116-20:55:48.022|56=SERVER|10=217|
8=FIX.4.4|9=57|35=0|34=315|49=SERVER|52=20250116-20:56:04.379|56=CLIENT|10=219|
8=FIX.4.4|9=57|35=0|34=376|49=CLIENT|52=20250116-20:56:18.028|56=SERVER|10=222|
8=FIX.4.4|9=57|35=0|34=316|49=SERVER|52=20250116-20:56:34.383|56=CLIENT|10=218|
8=FIX.4.4|9=57|35=0|34=377|49=CLIENT|52=20250116-20:56:48.027|56=SERVER|10=225|
8=FIX.4.4|9=57|35=0|34=317|49=SERVER|52=20250116-20:57:04.374|56=CLIENT|10=217|
8=FIX.4.4|9=57|35=0|34=378|49=CLIENT|52=20250116-20:57:18.029|56=SERVER|10=226|
8=FIX.4.4|9=57|35=0|34=318|49=SERVER|52=20250116-20:57:34.386|56=CLIENT|10=224|
8=FIX.4.4|9=57|35=0|34=379|49=CLIENT|52=20250116-20:57:48.023|56=SERVER|10=224|
8=FIX.4.4|9=57|35=0|34=319|49=SERVER|52=20250116-20:58:04.380|56=CLIENT|10=217|
8=FIX.4.4|9=57|35=0|34=380|49=CLIENT|52=20250116-20:58:18.029|56=SERVER|10=220|
8=FIX.4.4|9=57|35=0|34=320|49=SERVER|52=20250116-20:58:34.382|56=CLIENT|10=214|
8=FIX.4.4|9=57|35=0|34=381|49=CLIENT|52=20250116-20:58:48.024|56=SERVER|10=219|
8=FIX.4.4|9=57|35=0|34=321|49=SERVER|52=20250116-20:59:05.387|56=CLIENT|10=219|
8=FIX.4.4|9=57|35=0|34=382|49=CLIENT|52=20250116-20:59:18.027|56=SERVER|10=221|
8=FIX.4.4|9=57|35=0|34=322|49=SERVER|52=20250116-20:59:36.380|56=CLIENT|10=217|
8=FIX.4.4|9=57|35=0|34=383|49=CLIENT|52=20250116-20:59:48.023|56=SERVER|10=221|
8=FIX.4.4|9=57|35=0|34=323|49=SERVER|52=20250116-21:00:06.385|56=CLIENT|10=207|
8=FIX.4.4|9=57|35=0|34=384|49=CLIENT|52=20250116-21:00:18.019|56=SERVER|10=211|
8=FIX.4.4|9=57|35=0|34=324|49=SERVER|52=20250116-21:00:36.378|56=CLIENT|10=213|
8=FIX.4.4|9=57|35=0|34=385|49=CLIENT|52=20250116-21:00:48.026|56=SERVER|10=213|
8=FIX.4.4|9=57|35=0|34=325|49=SERVER|52=20250116-21:01:06.388|56=CLIENT|10=213|
8=FIX.4.4|9=57|35=0|34=386|49=CLIENT|52=20250116-21:01:18.027|56=SERVER|10=213|
8=FIX.4.4|9=57|35=0|34=326|49=SERVER|52=20250116-21:01:36.382|56=CLIENT|10=211|
8=FIX.4.4|9=57|35=0|34=387|49=CLIENT|52=20250116-21:01:48.024|56=SERVER|10=214|
8=FIX.4.4|9=57|35=0|34=327|49=SERVER|52=20250116-21:02:06.381|56=CLIENT|10=209|
8=FIX.4.4|9=57|35=0|34=388|49=CLIENT|52=20250116-21:02:18.024|56=SERVER|10=213|
8=FIX.4.4|9=57|35=0|34=328|49=SERVER|52=20250116-21:02:36.374|56=CLIENT|10=215|
8=FIX.4.4|9=57|35=0|34=389|49=CLIENT|52=20250116-21:02:48.024|56=SERVER|10=217|
8=FIX.4.4|9=57|35=0|34=329|49=SERVER|52=20250116-21:03:06.386|56=CLIENT|10=217|
8=FIX.4.4|9=57|35=0|34=390|49=CLIENT|52=20250116-21:03:18.020|56=SERVER|10=203|
8=FIX.4.4|9=57|35=0|34=330|49=SERVER|52=20250116-21:03:37.373|56=CLIENT|10=209|
8=FIX.4.4|9=57|35=0|34=391|49=CLIENT|52=20250116-21:03:48.024|56=SERVER|10=211|
8=FIX.4.4|9=57|35=0|34=331|49=SERVER|52=20250116-21:04:07.379|56=CLIENT|10=214|
8=FIX.4.4|9=57|35=0|34=392|49=CLIENT|52=20250116-21:04:18.021|56=SERVER|10=207|
8=FIX.4.4|9=57|35=0|34=332|49=SERVER|52=20250116-21:04:37.385|56=CLIENT|10=215|
8=FIX.4.4|9=57|35=0|34=393|49=CLIENT|52=20250116-21:04:48.023|56=SERVER|10=213|
8=FIX.4.4|9=57|35=0|34=333|49=SERVER|52=20250116-21:05:07.383|56=CLIENT|10=212|
8=FIX.4.4|9=57|35=0|34=394|49=CLIENT|52=20250116-21:05:18.028|56=SERVER|10=217|
8=FIX.4.4|9=57|35=0|34=334|49=SERVER|52=20250116-21:05:37.387|56=CLIENT|10=220|
8=FIX.4.4|9=57|35=0|34=395|49=CLIENT|52=20250116-21:05:48.025|56=SERVER|10=218|
8=FIX.4.4|9=57|35=0|34=335|49=SERVER|52=20250116-21:06:07.378|56=CLIENT|10=219|
8=FIX.4.4|9=57|35=0|34=396|49=CLIENT|52=20250116-21:06:18.025|56=SERVER|10=217|
8=FIX.4.4|9=57|35=0|34=336|49=SERVER|52=20250116-21:06:37.386|56=CLIENT|10=222|
8=FIX.4.4|9=57|35=0|34=397|49=CLIENT|52=20250116-21:06:48.023|56=SERVER|10=219|
8=FIX.4.4|9=57|35=0|34=337|49=SERVER|52=20250116-21:07:07.378|56=CLIENT|10=222|
8=FIX.4.4|9=57|35=0|34=398|49=CLIENT|52=20250116-21:07:18.026|56=SERVER|10=221|
8=FIX.4.4|9=57|35=0|34=338|49=SERVER|52=20250116-21:07:37.374|56=CLIENT|10=222|
8=FIX.4.4|9=57|35=0|34=399|49=CLIENT|52=20250116-21:07:48.029|56=SERVER|10=228|
8=FIX.4.4|9=57|35=0|34=339|49=SERVER|52=20250116-21:08:07.373|56=CLIENT|10=220|
8=FIX.4.4|9=57|35=0|34=400|49=CLIENT|52=20250116-21:08:18.032|56=SERVER|10=203|
8=FIX.4.4|9=57|35=0|34=340|49=SERVER|52=20250116-21:08:37.378|56=CLIENT|10=220|
8=FIX.4.4|9=57|35=0|34=401|49=CLIENT|52=20250116-21:08:48.026|56=SERVER|10=210|
8=FIX.4.4|9=57|35=0|34=341|49=SERVER|52=20250116-21:09:07.381|56=CLIENT|10=213|
8=FIX.4.4|9=57|35=0|34=402|49=CLIENT|52=20250116-21:09:18.023|56=SERVER|10=206|
8=FIX.4.4|9=57|35=0|34=342|49=SERVER|52=20250116-21:09:37.376|56=CLIENT|10=221|
8=FIX.4.4|9=57|35=0|34=403|49=CLIENT|52=20250116-21:09:48.018|56=SERVER|10=214|
8=FIX.4.4|9=57|35=0|34=343|49=SERVER|52=20250116-21:10:07.383|56=CLIENT|10=209|
8=FIX.4.4|9=57|35=0|34=404|49=CLIENT|52=20250116-21:10:18.029|56=SERVER|10=206|
8=FIX.4.4|9=57|35=0|34=344|49=SERVER|52=20250116-21:10:37.377|56=CLIENT|10=216|
8=FIX.4.4|9=57|35=0|34=405|49=CLIENT|52=20250116-21:10:48.247|56=SERVER|10=212|
8=FIX.4.4|9=57|35=0|34=345|49=SERVER|52=20250116-21:11:07.609|56=CLIENT|10=213|
8=FIX.4.4|9=57|35=0|34=406|49=CLIENT|52=20250116-21:11:18.247|56=SERVER|10=211|
8=FIX.4.4|9=57|35=0|34=346|49=SERVER|52=20250116-21:11:37.605|56=CLIENT|10=213|
8=FIX.4.4|9=57|35=0|34=407|49=CLIENT|52=20250116-21:11:48.257|56=SERVER|10=216|
8=FIX.4.4|9=57|35=0|34=347|49=SERVER|52=20250116-21:12:07.615|56=CLIENT|10=213|
8=FIX.4.4|9=57|35=0|34=408|49=CLIENT|52=20250116-21:12:18.257|56=SERVER|10=215|
8=FIX.4.4|9=57|35=0|34=348|49=SERVER|52=20250116-21:12:37.609|56=CLIENT|10=220|
8=FIX.4.4|9=57|35=0|34=409|49=CLIENT|52=20250116-21:12:48.260|56=SERVER|10=213|
8=FIX.4.4|9=57|35=0|34=349|49=SERVER|52=20250116-21:13:07.611|56=CLIENT|10=212|
8=FIX.4.4|9=57|35=0|34=410|49=CLIENT|52=20250116-21:13:18.256|56=SERVER|10=208|
8=FIX.4.4|9=57|35=0|34=350|49=SERVER|52=20250116-21:13:37.614|56=CLIENT|10=210|
8=FIX.4.4|9=57|35=0|34=411|49=CLIENT|52=20250116-21:13:48.247|56=SERVER|10=212|
8=FIX.4.4|9=57|35=0|34=351|49=SERVER|52=20250116-21:14:07.610|56=CLIENT|10=205|
8=FIX.4.4|9=57|35=0|34=412|49=CLIENT|52=20250116-21:14:18.260|56=SERVER|10=206|
8=FIX.4.4|9=57|35=0|34=352|49=SERVER|52=20250116-21:14:37.609|56=CLIENT|10=217|
8=FIX.4.4|9=57|35=0|34=413|49=CLIENT|52=20250116-21:14:48.256|56=SERVER|10=215|
8=FIX.4.4|9=57|35=0|34=353|49=SERVER|52=20250116-21:15:07.607|56=CLIENT|10=214|
8=FIX.4.4|9=57|35=0|34=414|49=CLIENT|52=20250116-21:15:18.259|56=SERVER|10=217|
8=FIX.4.4|9=57|35=0|34=354|49=SERVER|52=20250116-21:15:37.602|56=CLIENT|10=213|
8=FIX.4.4|9=57|35=0|34=415|49=CLIENT|52=20250116-21:15:48.254|56=SERVER|10=216|
8=FIX.4.4|9=57|35=0|34=355|49=SERVER|52=20250116-21:16:07.610|56=CLIENT|10=211|
8=FIX.4.4|9=57|35=0|34=416|49=CLIENT|52=20250116-21:16:18.249|56=SERVER|10=219|
8=FIX.4.4|9=57|35=0|34=356|49=SERVER|52=20250116-21:16:37.609|56=CLIENT|10=223|
8=FIX.4.4|9=57|35=0|34=417|49=CLIENT|52=20250116-21:16:48.247|56=SERVER|10=221|
8=FIX.4.4|9=57|35=0|34=357|49=SERVER|52=20250116-21:17:07.603|56=CLIENT|10=216|
8=FIX.4.4|9=57|35=0|34=418|49=CLIENT|52=20250116-21:17:18.261|56=SERVER|10=216|
8=FIX.4.4|9=57|35=0|34=358|49=SERVER|52=20250116-21:17:37.611|56=CLIENT|10=219|
8=FIX.4.4|9=57|35=0|34=419|49=CLIENT|52=20250116-21:17:49.251|56=SERVER|10=220|
8=FIX.4.4|9=57|35=0|34=359|49=SERVER|52=20250116-21:18:07.607|56=CLIENT|10=223|
8=FIX.4.4|9=57|35=0|34=420|49=CLIENT|52=20250116-21:18:19.255|56=SERVER|10=214|
8=FIX.4.4|9=57|35=0|34=360|49=SERVER|52=20250116-21:18:37.607|56=CLIENT|10=218|
8=FIX.4.4|9=57|35=0|34=421|49=CLIENT|52=20250116-21:18:49.250|56=SERVER|10=213|
8=FIX.4.4|9=57|35=0|34=361|49=SERVER|52=20250116-21:19:07.602|56=CLIENT|10=212|
8=FIX.4.4|9=57|35=0|34=422|49=CLIENT|52=20250116-21:19:19.258|56=SERVER|10=220|
8=FIX.4.4|9=57|35=0|34=362|49=SERVER|52=20250116-21:19:37.611|56=CLIENT|10=216|
8=FIX.4.4|9=57|35=0|34=423|49=CLIENT|52=20250116-21:19:49.252|56=SERVER|10=218|
8=FIX.4.4|9=57|35=0|34=363|49=SERVER|52=20250116-21:20:07.609|56=CLIENT|10=213|
8=FIX.4.4|9=57|35=0|34=424|49=CLIENT|52=20250116-21:20:19.246|56=SERVER|10=211|
8=FIX.4.4|9=57|35=0|34=364|49=SERVER|52=20250116-21:20:37.602|56=CLIENT|10=210|
8=FIX.4.4|9=57|35=0|34=425|49=CLIENT|52=20250116-21:20:49.248|56=SERVER|10=217|
8=FIX.4.4|9=57|35=0|34=365|49=SERVER|52=20250116-21:21:07.609|56=CLIENT|10=216|
8=FIX.4.4|9=57|35=0|34=426|49=CLIENT|52=20250116-21:21:19.249|56=SERVER|10=217|
8=FIX.4.4|9=57|35=0|34=366|49=SERVER|52=20250116-21:21:37.605|56=CLIENT|10=216|
8=FIX.4.4|9=57|35=0|34=427|49=CLIENT|52=20250116-21:21:49.249|56=SERVER|10=221|
8=FIX.4.4|9=57|35=0|34=367|49=SERVER|52=20250116-21:22:07.603|56=CLIENT|10=213|
8=FIX.4.4|9=57|35=0|34=428|49=CLIENT|52=20250116-21:22:19.247|56=SERVER|10=218|
8=FIX.4.4|9=57|35=0|34=368|49=SERVER|52=20250116-21:22:37.606|56=CLIENT|10=220|
8=FIX.4.4|9=57|35=0|34=429|49=CLIENT|52=20250116-21:22:49.260|56=SERVER|10=217|
8=FIX.4.4|9=57|35=0|34=369|49=SERVER|52=20250116-21:23:07.602|56=CLIENT|10=215|
8=FIX.4.4|9=57|35=0|34=430|49=CLIENT|52=20250116-21:23:20.255|56=SERVER|10=203|
8=FIX.4.4|9=57|35=0|34=370|49=SERVER|52=20250116-21:23:37.610|56=CLIENT|10=209|
8=FIX.4.4|9=57|35=0|34=431|49=CLIENT|52=20250116-21:23:50.253|56=SERVER|10=205|
8=FIX.4.4|9=57|35=0|34=371|49=SERVER|52=20250116-21:24:07.605|56=CLIENT|10=212|
8=FIX.4.4|9=57|35=0|34=432|49=CLIENT|52=20250116-21:24:20.249|56=SERVER|10=209|
8=FIX.4.4|9=57|35=0|34=372|49=SERVER|52=20250116-21:24:37.607|56=CLIENT|10=218|
8=FIX.4.4|9=57|35=0|34=433|49=CLIENT|52=20250116-21:24:50.253|56=SERVER|10=208|
8=FIX.4.4|9=57|35=0|34=373|49=SERVER|52=20250116-21:25:07.613|56=CLIENT|10=214|
8=FIX.4.4|9=57|35=0|34=434|49=CLIENT|52=20250116-21:25:20.255|56=SERVER|10=209|
8=FIX.4.4|9=57|35=0|34=374|49=SERVER|52=20250116-21:25:37.606|56=CLIENT|10=220|
8=FIX.4.4|9=57|35=0|34=435|49=CLIENT|52=20250116-21:25:50.257|56=SERVER|10=215|
8=FIX.4.4|9=57|35=0|34=375|49=SERVER|52=20250116-21:26:07.614|56=CLIENT|10=218|
8=FIX.4.4|9=57|35=0|34=436|49=CLIENT|52=20250116-21:26:20.260|56=SERVER|10=208|
8=FIX.4.4|9=57|35=0|34=376|49=SERVER|52=20250116-21:26:38.615|56=CLIENT|10=224|
8=FIX.4.4|9=57|35=0|34=437|49=CLIENT|52=20250116-21:26:50.255|56=SERVER|10=216|
8=FIX.4.4|9=57|35=0|34=377|49=SERVER|52=20250116-21:27:09.608|56=CLIENT|10=226|
8=FIX.4.4|9=57|35=0|34=438|49=CLIENT|52=20250116-21:27:20.248|56=SERVER|10=217|
8=FIX.4.4|9=57|35=0|34=378|49=SERVER|52=20250116-21:27:39.615|56=CLIENT|10=228|
8=FIX.4.4|9=57|35=0|34=439|49=CLIENT|52=20250116-21:27:50.251|56=SERVER|10=215|
8=FIX.4.4|9=57|35=0|34=379|49=SERVER|52=20250116-21:28:10.602|56=CLIENT|10=215|
8=FIX.4.4|9=57|35=0|34=440|49=CLIENT|52=20250116-21:28:20.246|56=SERVER|10=209|
8=FIX.4.4|9=57|35=0|34=380|49=SERVER|52=20250116-21:28:40.601|56=CLIENT|10=209|
8=FIX.4.4|9=57|35=0|34=441|49=CLIENT|52=20250116-21:28:50.258|56=SERVER|10=216|
8=FIX.4.4|9=57|35=0|34=381|49=SERVER|52=20250116-21:29:10.612|56=CLIENT|10=210|
8=FIX.4.4|9=57|35=0|34=442|49=CLIENT|52=20250116-21:29:20.260|56=SERVER|10=208|
8=FIX.4.4|9=57|35=0|34=382|49=SERVER|52=20250116-21:29:40.610|56=CLIENT|10=212|
8=FIX.4.4|9=57|35=0|34=443|49=CLIENT|52=20250116-21:29:51.256|56=SERVER|10=218|
8=FIX.4.4|9=57|35=0|34=383|49=SERVER|52=20250116-21:30:10.605|56=CLIENT|10=206|
8=FIX.4.4|9=57|35=0|34=444|49=CLIENT|52=20250116-21:30:21.254|56=SERVER|10=206|
8=FIX.4.4|9=57|35=0|34=384|49=SERVER|52=20250116-21:30:40.610|56=CLIENT|10=206|
8=FIX.4.4|9=57|35=0|34=445|49=CLIENT|52=20250116-21:30:51.252|56=SERVER|10=208|
8=FIX.4.4|9=57|35=0|34=385|49=SERVER|52=20250116-21:31:10.611|56=CLIENT|10=206|
8=FIX.4.4|9=57|35=0|34=446|49=CLIENT|52=20250116-21:31:21.255|56=SERVER|10=210|
8=FIX.4.4|9=57|35=0|34=386|49=SERVER|52=20250116-21:31:40.615|56=CLIENT|10=214|
8=FIX.4.4|9=57|35=0|34=447|49=CLIENT|52=20250116-21:31:51.252|56=SERVER|10=211|
8=FIX.4.4|9=57|35=0|34=387|49=SERVER|52=20250116-21:32:10.612|56=CLIENT|10=210|
8=FIX.4.4|9=57|35=0|34=448|49=CLIENT|52=20250116-21:32:21.254|56=SERVER|10=212|
8=FIX.4.4|9=57|35=0|34=388|49=SERVER|52=20250116-21:32:40.610|56=CLIENT|10=212|
8=FIX.4.4|9=57|35=0|34=449|49=CLIENT|52=20250116-21:32:51.259|56=SERVER|10=221|
8=FIX.4.4|9=57|35=0|34=389|49=SERVER|52=20250116-21:33:10.604|56=CLIENT|10=214|
8=FIX.4.4|9=57|35=0|34=450|49=CLIENT|52=20250116-21:33:21.251|56=SERVER|10=203|
8=FIX.4.4|9=57|35=0|34=390|49=SERVER|52=20250116-21:33:40.611|56=CLIENT|10=207|
8=FIX.4.4|9=57|35=0|34=451|49=CLIENT|52=20250116-21:33:51.250|56=SERVER|10=206|
8=FIX.4.4|9=57|35=0|34=391|49=SERVER|52=20250116-21:34:10.609|56=CLIENT|10=213|
8=FIX.4.4|9=57|35=0|34=452|49=CLIENT|52=20250116-21:34:21.255|56=SERVER|10=210|
8=FIX.4.4|9=57|35=0|34=392|49=SERVER|52=20250116-21:34:40.611|56=CLIENT|10=210|
8=FIX.4.4|9=57|35=0|34=453|49=CLIENT|52=20250116-21:34:51.255|56=SERVER|10=214|
8=FIX.4.4|9=57|35=0|34=393|49=SERVER|52=20250116-21:35:10.602|56=CLIENT|10=209|
8=FIX.4.4|9=57|35=0|34=454|49=CLIENT|52=20250116-21:35:21.259|56=SERVER|10=217|
8=FIX.4.4|9=57|35=0|34=394|49=SERVER|52=20250116-21:35:40.610|56=CLIENT|10=212|
8=FIX.4.4|9=57|35=0|34=455|49=CLIENT|52=20250116-21:35:51.260|56=SERVER|10=213|
8=FIX.4.4|9=57|35=0|34=395|49=SERVER|52=20250116-21:36:10.615|56=CLIENT|10=216|
8=FIX.4.4|9=57|35=0|34=456|49=CLIENT|52=20250116-21:36:21.258|56=SERVER|10=219|
8=FIX.4.4|9=57|35=0|34=396|49=SERVER|52=20250116-21:36:40.609|56=CLIENT|10=223|
8=FIX.4.4|9=57|35=0|34=457|49=CLIENT|52=20250116-21:36:51.256|56=SERVER|10=221|
8=FIX.4.4|9=57|35=0|34=397|49=SERVER|52=20250116-21:37:10.606|56=CLIENT|10=219|
8=FIX.4.4|9=57|35=0|34=458|49=CLIENT|52=20250116-21:37:21.253|56=SERVER|10=217|
8=FIX.4.4|9=57|35=0|34=398|49=SERVER|52=20250116-21:37:40.602|56=CLIENT|10=219|
8=FIX.4.4|9=57|35=0|34=459|49=CLIENT|52=20250116-21:37:51.260|56=SERVER|10=219|
8=FIX.4.4|9=57|35=0|34=399|49=SERVER|52=20250116-21:38:10.604|56=CLIENT|10=220|
8=FIX.4.4|9=57|35=0|34=460|49=CLIENT|52=20250116-21:38:22.251|56=SERVER|10=210|
8=FIX.4.4|9=57|35=0|34=400|49=SERVER|52=20250116-21:38:40.611|56=CLIENT|10=204|
8=FIX.4.4|9=57|35=0|34=461|49=CLIENT|52=20250116-21:38:52.249|56=SERVER|10=221|
8=FIX.4.4|9=69|35=A|34=462|49=CLIENT|52=20250116-21:39:56.259|56=SERVER|98=0|108=30|10=017|
8=FIX.4.4|9=69|35=A|34=401|49=SERVER|52=20250116-21:39:56.279|56=CLIENT|98=0|108=30|10=012|
8=FIX.4.4|9=118|35=D|34=463|49=CLIENT|52=20250116-21:39:56.767|56=SERVER|11=12345|38=5|40=2|44=5|54=1|55=BTC|60=20250116-21:39:56.767|10=146|
8=FIX.4.4|9=57|35=0|34=402|49=SERVER|52=20250116-21:40:26.498|56=CLIENT|10=216|
8=FIX.4.4|9=57|35=0|34=464|49=CLIENT|52=20250116-21:40:27.253|56=SERVER|10=214|
8=FIX.4.4|9=57|35=0|34=403|49=SERVER|52=20250116-21:40:56.500|56=CLIENT|10=204|
8=FIX.4.4|9=57|35=0|34=465|49=CLIENT|52=20250116-21:40:57.247|56=SERVER|10=221|
8=FIX.4.4|9=57|35=0|34=404|49=SERVER|52=20250116-21:41:26.503|56=CLIENT|10=206|
8=FIX.4.4|9=57|35=0|34=466|49=CLIENT|52=20250116-21:41:27.253|56=SERVER|10=217|
8=FIX.4.4|9=57|35=0|34=405|49=SERVER|52=20250116-21:41:56.496|56=CLIENT|10=221|
8=FIX.4.4|9=57|35=0|34=467|49=CLIENT|52=20250116-21:41:57.247|56=SERVER|10=224|
8=FIX.4.4|9=57|35=0|34=406|49=SERVER|52=20250116-21:42:26.495|56=CLIENT|10=219|
8=FIX.4.4|9=57|35=0|34=468|49=CLIENT|52=20250116-21:42:27.257|56=SERVER|10=224|
8=FIX.4.4|9=57|35=0|34=407|49=SERVER|52=20250116-21:42:56.504|56=CLIENT|10=214|
8=FIX.4.4|9=57|35=0|34=469|49=CLIENT|52=20250116-21:42:57.259|56=SERVER|10=230|
8=FIX.4.4|9=57|35=0|34=408|49=SERVER|52=20250116-21:43:26.503|56=CLIENT|10=212|
8=FIX.4.4|9=57|35=0|34=470|49=CLIENT|52=20250116-21:43:27.251|56=SERVER|10=212|
8=FIX.4.4|9=57|35=0|34=409|49=SERVER|52=20250116-21:43:56.505|56=CLIENT|10=218|
8=FIX.4.4|9=57|35=0|34=471|49=CLIENT|52=20250116-21:43:57.252|56=SERVER|10=217|
8=FIX.4.4|9=57|35=0|34=410|49=SERVER|52=20250116-21:44:26.496|56=CLIENT|10=217|
8=FIX.4.4|9=57|35=0|34=472|49=CLIENT|52=20250116-21:44:27.258|56=SERVER|10=222|
8=FIX.4.4|9=57|35=0|34=411|49=SERVER|52=20250116-21:44:56.495|56=CLIENT|10=220|
8=FIX.4.4|9=57|35=0|34=473|49=CLIENT|52=20250116-21:44:57.261|56=SERVER|10=220|
8=FIX.4.4|9=57|35=0|34=412|49=SERVER|52=20250116-21:45:26.506|56=CLIENT|10=212|
8=FIX.4.4|9=57|35=0|34=474|49=CLIENT|52=20250116-21:45:27.260|56=SERVER|10=218|
8=FIX.4.4|9=57|35=0|34=413|49=SERVER|52=20250116-21:45:56.501|56=CLIENT|10=211|
8=FIX.4.4|9=57|35=0|34=475|49=CLIENT|52=20250116-21:45:58.249|56=SERVER|10=230|
8=FIX.4.4|9=57|35=0|34=414|49=SERVER|52=20250116-21:46:26.494|56=CLIENT|10=221|
8=FIX.4.4|9=57|35=0|34=476|49=CLIENT|52=20250116-21:46:28.252|56=SERVER|10=223|
8=FIX.4.4|9=57|35=0|34=415|49=SERVER|52=20250116-21:46:56.505|56=CLIENT|10=218|
8=FIX.4.4|9=57|35=0|34=477|49=CLIENT|52=20250116-21:46:58.251|56=SERVER|10=226|
8=FIX.4.4|9=57|35=0|34=416|49=SERVER|52=20250116-21:47:26.499|56=CLIENT|10=229|
8=FIX.4.4|9=57|35=0|34=478|49=CLIENT|52=20250116-21:47:28.247|56=SERVER|10=230|
8=FIX.4.4|9=57|35=0|34=417|49=SERVER|52=20250116-21:47:56.501|56=CLIENT|10=217|
8=FIX.4.4|9=57|35=0|34=479|49=CLIENT|52=20250116-21:47:58.246|56=SERVER|10=233|
8=FIX.4.4|9=57|35=0|34=418|49=SERVER|52=20250116-21:48:26.499|56=CLIENT|10=232|
8=FIX.4.4|9=57|35=0|34=480|49=CLIENT|52=20250116-21:48:28.262|56=SERVER|10=221|
8=FIX.4.4|9=57|35=0|34=419|49=SERVER|52=20250116-21:48:56.493|56=CLIENT|10=230|
8=FIX.4.4|9=57|35=0|34=481|49=CLIENT|52=20250116-21:48:58.253|56=SERVER|10=225|
8=FIX.4.4|9=57|35=0|34=420|49=SERVER|52=20250116-21:49:26.502|56=CLIENT|10=211|
8=FIX.4.4|9=57|35=0|34=482|49=CLIENT|52=20250116-21:49:28.251|56=SERVER|10=222|
8=FIX.4.4|9=69|35=A|34=483|49=CLIENT|52=20250116-21:49:53.639|56=SERVER|98=0|108=30|10=020|
8=FIX.4.4|9=69|35=A|34=421|49=SERVER|52=20250116-21:49:53.657|56=CLIENT|98=0|108=30|10=012|
8=FIX.4.4|9=122|35=D|34=484|49=CLIENT|52=20250116-21:49:54.153|56=SERVER|11=12345|38=5|40=2|44=90000|54=1|55=BTC|60=20250116-21:49:54.153|10=060|
8=FIX.4.4|9=57|35=0|34=422|49=SERVER|52=20250116-21:50:24.414|56=CLIENT|10=205|
8=FIX.4.4|9=57|35=0|34=485|49=CLIENT|52=20250116-21:50:24.415|56=SERVER|10=215|
8=FIX.4.4|9=57|35=0|34=423|49=SERVER|52=20250116-21:50:54.414|56=CLIENT|10=209|
8=FIX.4.4|9=57|35=0|34=486|49=CLIENT|52=20250116-21:50:54.415|56=SERVER|10=219|
8=FIX.4.4|9=57|35=0|34=424|49=SERVER|52=20250116-21:51:24.426|56=CLIENT|10=211|
8=FIX.4.4|9=57|35=0|34=487|49=CLIENT|52=20250116-21:51:24.427|56=SERVER|10=221|
8=FIX.4.4|9=57|35=0|34=425|49=SERVER|52=20250116-21:51:54.422|56=CLIENT|10=211|
8=FIX.4.4|9=57|35=0|34=488|49=CLIENT|52=20250116-21:51:54.423|56=SERVER|10=221|
8=FIX.4.4|9=57|35=0|34=426|49=SERVER|52=20250116-21:52:24.418|56=CLIENT|10=215|
8=FIX.4.4|9=57|35=0|34=489|49=CLIENT|52=20250116-21:52:24.419|56=SERVER|10=225|
8=FIX.4.4|9=57|35=0|34=427|49=SERVER|52=20250116-21:52:54.415|56=CLIENT|10=216|
8=FIX.4.4|9=57|35=0|34=490|49=CLIENT|52=20250116-21:52:54.417|56=SERVER|10=218|
8=FIX.4.4|9=69|35=A|34=491|49=CLIENT|52=20250116-21:53:20.006|56=SERVER|98=0|108=30|10=252|
8=FIX.4.4|9=69|35=A|34=428|49=SERVER|52=20250116-21:53:20.026|56=CLIENT|98=0|108=30|10=254|
8=FIX.4.4|9=122|35=D|34=492|49=CLIENT|52=20250116-21:53:20.513|56=SERVER|11=12345|38=5|40=2|44=90000|54=1|55=BTC|60=20250116-21:53:20.513|10=035|
8=FIX.4.4|9=122|35=D|34=493|49=CLIENT|52=20250116-21:53:22.332|56=SERVER|11=12345|38=5|40=2|44=90000|54=1|55=BTC|60=20250116-21:53:22.332|10=038|
8=FIX.4.4|9=57|35=0|34=429|49=SERVER|52=20250116-21:53:50.452|56=CLIENT|10=216|
8=FIX.4.4|9=57|35=0|34=494|49=CLIENT|52=20250116-21:53:52.990|56=SERVER|10=227|
8=FIX.4.4|9=57|35=0|34=430|49=SERVER|52=20250116-21:54:20.448|56=CLIENT|10=211|
8=FIX.4.4|9=57|35=0|34=495|49=CLIENT|52=20250116-21:54:22.999|56=SERVER|10=235|
8=FIX.4.4|9=57|35=0|34=431|49=SERVER|52=20250116-21:54:50.450|56=CLIENT|10=208|
8=FIX.4.4|9=57|35=0|34=496|49=CLIENT|52=20250116-21:54:52.995|56=SERVER|10=235|
8=FIX.4.4|9=57|35=0|34=432|49=SERVER|52=20250116-21:55:20.449|56=CLIENT|10=215|
8=FIX.4.4|9=57|35=0|34=497|49=CLIENT|52=20250116-21:55:22.991|56=SERVER|10=230|
8=FIX.4.4|9=57|35=0|34=433|49=SERVER|52=20250116-21:55:50.457|56=CLIENT|10=218|
8=FIX.4.4|9=57|35=0|34=498|49=CLIENT|52=20250116-21:55:52.993|56=SERVER|10=236|
8=FIX.4.4|9=57|35=0|34=434|49=SERVER|52=20250116-21:56:20.455|56=CLIENT|10=215|
8=FIX.4.4|9=57|35=0|34=499|49=CLIENT|52=20250116-21:56:22.991|56=SERVER|10=233|
8=FIX.4.4|9=57|35=0|34=435|49=SERVER|52=20250116-21:56:50.452|56=CLIENT|10=216|
8=FIX.4.4|9=57|35=0|34=500|49=CLIENT|52=20250116-21:56:52.998|56=SERVER|10=226|
8=FIX.4.4|9=57|35=0|34=436|49=SERVER|52=20250116-21:57:20.448|56=CLIENT|10=220|
8=FIX.4.4|9=57|35=0|34=501|49=CLIENT|52=20250116-21:57:22.993|56=SERVER|10=220|
8=FIX.4.4|9=57|35=0|34=437|49=SERVER|52=20250116-21:57:50.448|56=CLIENT|10=224|
8=FIX.4.4|9=57|35=0|34=502|49=CLIENT|52=20250116-21:57:53.003|56=SERVER|10=207|
8=FIX.4.4|9=57|35=0|34=438|49=SERVER|52=20250116-21:58:20.448|56=CLIENT|10=223|
8=FIX.4.4|9=57|35=0|34=503|49=CLIENT|52=20250116-21:58:23.991|56=SERVER|10=222|
8=FIX.4.4|9=57|35=0|34=439|49=SERVER|52=20250116-21:58:50.458|56=CLIENT|10=228|
8=FIX.4.4|9=57|35=0|34=504|49=CLIENT|52=20250116-21:58:54.000|56=SERVER|10=208|
8=FIX.4.4|9=57|35=0|34=440|49=SERVER|52=20250116-21:59:20.455|56=CLIENT|10=215|
8=FIX.4.4|9=57|35=0|34=505|49=CLIENT|52=20250116-21:59:23.993|56=SERVER|10=227|
8=FIX.4.4|9=57|35=0|34=441|49=SERVER|52=20250116-21:59:50.462|56=CLIENT|10=217|
8=FIX.4.4|9=57|35=0|34=506|49=CLIENT|52=20250116-21:59:53.993|56=SERVER|10=231|
8=FIX.4.4|9=69|35=A|34=507|49=CLIENT|52=20250116-22:00:30.028|56=SERVER|98=0|108=30|10=248|
8=FIX.4.4|9=69|35=A|34=442|49=SERVER|52=20250116-22:00:30.045|56=CLIENT|98=0|108=30|10=245|
8=FIX.4.4|9=118|35=D|34=508|49=CLIENT|52=20250116-22:00:30.537|56=SERVER|11=12345|38=5|40=2|44=5|54=1|55=BTC|60=20250116-22:00:30.537|10=098|
8=FIX.4.4|9=69|35=A|34=509|49=CLIENT|52=20250116-22:01:02.426|56=SERVER|98=0|108=30|10=252|
8=FIX.4.4|9=69|35=A|34=443|49=SERVER|52=20250116-22:01:02.443|56=CLIENT|98=0|108=30|10=248|
8=FIX.4.4|9=118|35=D|34=510|49=CLIENT|52=20250116-22:01:02.931|56=SERVER|11=12345|38=5|40=2|44=5|54=1|55=BTC|60=20250116-22:01:02.931|10=087|
8=FIX.4.4|9=69|35=A|34=511|49=CLIENT|52=20250116-22:01:24.374|56=SERVER|98=0|108=30|10=251|
8=FIX.4.4|9=69|35=A|34=444|49=SERVER|52=20250116-22:01:24.390|56=CLIENT|98=0|108=30|10=254|
8=FIX.4.4|9=118|35=D|34=512|49=CLIENT|52=20250116-22:01:24.901|56=SERVER|11=12345|38=5|40=2|44=5|54=1|55=BTC|60=20250116-22:01:24.901|10=091|
8=FIX.4.4|9=69|35=A|34=513|49=CLIENT|52=20250116-22:01:49.943|56=SERVER|98=0|108=30|10=006|
8=FIX.4.4|9=69|35=A|34=445|49=SERVER|52=20250116-22:01:49.965|56=CLIENT|98=0|108=30|10=014|
8=FIX.4.4|9=118|35=D|34=514|49=CLIENT|52=20250116-22:01:50.472|56=SERVER|11=12345|38=5|40=2|44=5|54=1|55=BTC|60=20250116-22:01:50.472|10=097|
8=FIX.4.4|9=57|35=0|34=446|49=SERVER|52=20250116-22:02:20.868|56=CLIENT|10=218|
8=FIX.4.4|9=57|35=0|34=515|49=CLIENT|52=20250116-22:02:20.870|56=SERVER|10=208|
8=FIX.4.4|9=57|35=0|34=447|49=SERVER|52=20250116-22:02:50.864|56=CLIENT|10=218|
8=FIX.4.4|9=57|35=0|34=516|49=CLIENT|52=20250116-22:02:50.867|56=SERVER|10=218|
8=FIX.4.4|9=57|35=0|34=448|49=SERVER|52=20250116-22:03:20.871|56=CLIENT|10=215|
8=FIX.4.4|9=57|35=0|34=517|49=CLIENT|52=20250116-22:03:20.872|56=SERVER|10=213|
8=FIX.4.4|9=57|35=0|34=449|49=SERVER|52=20250116-22:03:50.872|56=CLIENT|10=220|
8=FIX.4.4|9=57|35=0|34=518|49=CLIENT|52=20250116-22:03:50.873|56=SERVER|10=218|
8=FIX.4.4|9=69|35=A|34=519|49=CLIENT|52=20250116-22:04:48.693|56=SERVER|98=0|108=30|10=016|
8=FIX.4.4|9=69|35=A|34=450|49=SERVER|52=20250116-22:04:48.717|56=CLIENT|98=0|108=30|10=007|
8=FIX.4.4|9=118|35=D|34=520|49=CLIENT|52=20250116-22:04:49.218|56=SERVER|11=12345|38=5|40=2|44=5|54=1|55=BTC|60=20250116-22:04:49.217|10=111|
8=FIX.4.4|9=57|35=0|34=451|49=SERVER|52=20250116-22:05:18.940|56=CLIENT|10=215|
8=FIX.4.4|9=57|35=0|34=521|49=CLIENT|52=20250116-22:05:19.689|56=SERVER|10=224|
8=FIX.4.4|9=57|35=0|34=452|49=SERVER|52=20250116-22:05:48.944|56=CLIENT|10=223|
8=FIX.4.4|9=57|35=0|34=522|49=CLIENT|52=20250116-22:05:49.686|56=SERVER|10=225|
8=FIX.4.4|9=69|35=A|34=523|49=CLIENT|52=20250116-22:06:23.776|56=SERVER|98=0|108=30|10=008|
8=FIX.4.4|9=69|35=A|34=453|49=SERVER|52=20250116-22:06:23.794|56=CLIENT|98=0|108=30|10=010|
8=FIX.4.4|9=118|35=D|34=524|49=CLIENT|52=20250116-22:06:24.298|56=SERVER|11=12345|38=5|40=2|44=5|54=1|55=BTC|60=20250116-22:06:24.298|10=122|
8=FIX.4.4|9=57|35=0|34=454|49=SERVER|52=20250116-22:06:54.212|56=CLIENT|10=211|
8=FIX.4.4|9=57|35=0|34=525|49=CLIENT|52=20250116-22:06:54.773|56=SERVER|10=222|
8=FIX.4.4|9=57|35=0|34=526|49=CLIENT|52=20250116-22:07:24.785|56=SERVER|10=224|
8=FIX.4.4|9=57|35=0|34=455|49=SERVER|52=20250116-22:07:24.786|56=CLIENT|10=226|
8=FIX.4.4|9=57|35=0|34=527|49=CLIENT|52=20250116-22:07:54.782|56=SERVER|10=225|
8=FIX.4.4|9=57|35=0|34=456|49=SERVER|52=20250116-22:07:54.784|56=CLIENT|10=228|
8=FIX.4.4|9=57|35=0|34=528|49=CLIENT|52=20250116-22:08:24.782|56=SERVER|10=224|
8=FIX.4.4|9=57|35=0|34=457|49=SERVER|52=20250116-22:08:24.783|56=CLIENT|10=226|
8=FIX.4.4|9=57|35=0|34=529|49=CLIENT|52=20250116-22:08:54.783|56=SERVER|10=229|
8=FIX.4.4|9=57|35=0|34=458|49=SERVER|52=20250116-22:08:54.784|56=CLIENT|10=231|
8=FIX.4.4|9=57|35=0|34=530|49=CLIENT|52=20250116-22:09:24.777|56=SERVER|10=222|
8=FIX.4.4|9=57|35=0|34=459|49=SERVER|52=20250116-22:09:24.778|56=CLIENT|10=233|
8=FIX.4.4|9=57|35=0|34=531|49=CLIENT|52=20250116-22:09:54.780|56=SERVER|10=220|
8=FIX.4.4|9=57|35=0|34=460|49=SERVER|52=20250116-22:09:54.781|56=CLIENT|10=222|
8=FIX.4.4|9=69|35=A|34=532|49=CLIENT|52=20250116-22:10:27.601|56=SERVER|98=0|108=30|10=250|
8=FIX.4.4|9=69|35=A|34=461|49=SERVER|52=20250116-22:10:27.619|56=CLIENT|98=0|108=30|10=004|
8=FIX.4.4|9=118|35=D|34=533|49=CLIENT|52=20250116-22:10:28.125|56=SERVER|11=12345|38=5|40=2|44=5|54=1|55=BTC|60=20250116-22:10:28.125|10=098|
8=FIX.4.4|9=57|35=0|34=462|49=SERVER|52=20250116-22:10:58.277|56=CLIENT|10=220|
8=FIX.4.4|9=57|35=0|34=534|49=CLIENT|52=20250116-22:10:58.278|56=SERVER|10=221|
8=FIX.4.4|9=57|35=0|34=463|49=SERVER|52=20250116-22:11:28.272|56=CLIENT|10=214|
8=FIX.4.4|9=57|35=0|34=535|49=CLIENT|52=20250116-22:11:28.276|56=SERVER|10=218|
8=FIX.4.4|9=57|35=0|34=464|49=SERVER|52=20250116-22:11:58.270|56=CLIENT|10=216|
8=FIX.4.4|9=57|35=0|34=536|49=CLIENT|52=20250116-22:11:58.270|56=SERVER|10=216|
8=FIX.4.4|9=69|35=A|34=537|49=CLIENT|52=20250116-22:12:41.189|56=SERVER|98=0|108=30|10=008|
