8=FIX.4.4|9=67|35=A|34=1|49=CLIENT|52=20250124-01:59:26.918|56=SERVER|98=0|108=30|10=162|8=FIX.4.4|9=110|35=D|34=2|49=CLIENT|52=20250124-01:59:27.415|56=SERVER|11=1|38=1|40=2|44=1|54=1|55=w|60=20250124-01:59:27.415|10=205|8=FIX.4.4|9=55|35=0|34=3|49=CLIENT|52=20250124-01:59:57.529|56=SERVER|10=121|