8=FIX.4.4|9=67|35=A|34=1|49=SERVER|52=20250124-01:59:26.936|56=CLIENT|98=0|108=30|10=162|8=FIX.4.4|9=55|35=0|34=2|49=SERVER|52=20250124-01:59:57.528|56=CLIENT|10=119|