8=FIX.4.4|9=67|35=A|34=1|49=SERVER|52=20250116-17:41:58.089|56=CLIENT|98=0|108=30|10=165|8=FIX.4.4|9=55|35=0|34=2|49=SERVER|52=20250116-17:42:28.295|56=CLIENT|10=118|8=FIX.4.4|9=55|35=0|34=3|49=SERVER|52=20250116-17:42:58.299|56=CLIENT|10=126|8=FIX.4.4|9=55|35=0|34=4|49=SERVER|52=20250116-17:43:28.294|56=CLIENT|10=120|8=FIX.4.4|9=55|35=0|34=5|49=SERVER|52=20250116-17:43:58.301|56=CLIENT|10=113|8=FIX.4.4|9=67|35=A|34=6|49=SERVER|52=20250116-17:44:54.431|56=CLIENT|98=0|108=30|10=160|8=FIX.4.4|9=55|35=0|34=7|49=SERVER|52=20250116-17:45:24.804|56=CLIENT|10=118|8=FIX.4.4|9=55|35=0|34=8|49=SERVER|52=20250116-17:45:54.808|56=CLIENT|10=126|8=FIX.4.4|9=67|35=A|34=9|49=SERVER|52=20250116-17:48:15.551|56=CLIENT|98=0|108=30|10=167|8=FIX.4.4|9=56|35=0|34=10|49=SERVER|52=20250116-17:48:45.599|56=CLIENT|10=178|8=FIX.4.4|9=56|35=0|34=11|49=SERVER|52=20250116-17:49:15.606|56=CLIENT|10=166|8=FIX.4.4|9=56|35=0|34=12|49=SERVER|52=20250116-17:49:45.611|56=CLIENT|10=166|8=FIX.4.4|9=56|35=0|34=13|49=SERVER|52=20250116-17:50:15.605|56=CLIENT|10=159|8=FIX.4.4|9=56|35=0|34=14|49=SERVER|52=20250116-17:50:45.600|56=CLIENT|10=158|8=FIX.4.4|9=68|35=A|34=15|49=SERVER|52=20250116-17:52:02.986|56=CLIENT|98=0|108=30|10=216|8=FIX.4.4|9=68|35=A|34=16|49=SERVER|52=20250116-17:53:23.047|56=CLIENT|98=0|108=30|10=209|8=FIX.4.4|9=68|35=A|34=17|49=SERVER|52=20250116-17:57:23.092|56=CLIENT|98=0|108=30|10=214|8=FIX.4.4|9=56|35=0|34=18|49=SERVER|52=20250116-17:57:53.870|56=CLIENT|10=177|8=FIX.4.4|9=56|35=0|34=19|49=SERVER|52=20250116-17:58:23.878|56=CLIENT|10=184|8=FIX.4.4|9=56|35=0|34=20|49=SERVER|52=20250116-17:58:53.877|56=CLIENT|10=178|8=FIX.4.4|9=56|35=0|34=21|49=SERVER|52=20250116-17:59:24.868|56=CLIENT|10=178|8=FIX.4.4|9=56|35=0|34=22|49=SERVER|52=20250116-17:59:54.867|56=CLIENT|10=181|8=FIX.4.4|9=56|35=0|34=23|49=SERVER|52=20250116-18:00:24.866|56=CLIENT|10=165|8=FIX.4.4|9=56|35=0|34=24|49=SERVER|52=20250116-18:00:54.865|56=CLIENT|10=168|8=FIX.4.4|9=56|35=0|34=25|49=SERVER|52=20250116-18:01:24.869|56=CLIENT|10=171|8=FIX.4.4|9=56|35=0|34=26|49=SERVER|52=20250116-18:01:54.871|56=CLIENT|10=168|8=FIX.4.4|9=68|35=A|34=27|49=SERVER|52=20250116-18:10:50.798|56=CLIENT|98=0|108=30|10=218|8=FIX.4.4|9=56|35=0|34=28|49=SERVER|52=20250116-18:11:21.044|56=CLIENT|10=157|8=FIX.4.4|9=66|35=2|34=29|49=SERVER|52=20250116-18:11:21.046|56=CLIENT|7=28|16=0|10=087|8=FIX.4.4|9=115|35=3|34=30|49=SERVER|52=20250116-18:11:21.059|56=CLIENT|45=28|58=Required tag missing, field=60|371=60|372=D|373=1|10=154|8=FIX.4.4|9=56|35=0|34=31|49=SERVER|52=20250116-18:11:51.057|56=CLIENT|10=158|8=FIX.4.4|9=56|35=0|34=32|49=SERVER|52=20250116-18:12:21.055|56=CLIENT|10=155|8=FIX.4.4|9=56|35=0|34=33|49=SERVER|52=20250116-18:12:51.055|56=CLIENT|10=159|8=FIX.4.4|9=68|35=A|34=34|49=SERVER|52=20250116-18:19:55.324|56=CLIENT|98=0|108=30|10=215|8=FIX.4.4|9=56|35=0|34=35|49=SERVER|52=20250116-18:20:26.200|56=CLIENT|10=154|8=FIX.4.4|9=66|35=2|34=36|49=SERVER|52=20250116-18:20:26.205|56=CLIENT|7=34|16=0|10=084|8=FIX.4.4|9=56|35=0|34=37|49=SERVER|52=20250116-18:20:56.302|56=CLIENT|10=162|8=FIX.4.4|9=56|35=0|34=38|49=SERVER|52=20250116-18:21:26.305|56=CLIENT|10=164|8=FIX.4.4|9=56|35=0|34=39|49=SERVER|52=20250116-18:21:56.303|56=CLIENT|10=166|8=FIX.4.4|9=56|35=0|34=40|49=SERVER|52=20250116-18:22:26.298|56=CLIENT|10=169|8=FIX.4.4|9=56|35=0|34=41|49=SERVER|52=20250116-18:22:56.303|56=CLIENT|10=160|8=FIX.4.4|9=56|35=0|34=42|49=SERVER|52=20250116-18:23:26.310|56=CLIENT|10=157|8=FIX.4.4|9=56|35=0|34=43|49=SERVER|52=20250116-18:23:56.303|56=CLIENT|10=163|8=FIX.4.4|9=56|35=0|34=44|49=SERVER|52=20250116-18:24:26.302|56=CLIENT|10=161|8=FIX.4.4|9=56|35=0|34=45|49=SERVER|52=20250116-18:24:56.296|56=CLIENT|10=177|8=FIX.4.4|9=56|35=0|34=46|49=SERVER|52=20250116-18:25:26.301|56=CLIENT|10=163|8=FIX.4.4|9=56|35=0|34=47|49=SERVER|52=20250116-18:25:56.308|56=CLIENT|10=174|8=FIX.4.4|9=56|35=0|34=48|49=SERVER|52=20250116-18:26:27.187|56=CLIENT|10=179|8=FIX.4.4|9=56|35=0|34=49|49=SERVER|52=20250116-18:26:57.194|56=CLIENT|10=181|8=FIX.4.4|9=56|35=0|34=50|49=SERVER|52=20250116-18:27:27.198|56=CLIENT|10=175|8=FIX.4.4|9=56|35=0|34=51|49=SERVER|52=20250116-18:27:57.195|56=CLIENT|10=176|8=FIX.4.4|9=56|35=0|34=52|49=SERVER|52=20250116-18:28:28.190|56=CLIENT|10=171|8=FIX.4.4|9=56|35=0|34=53|49=SERVER|52=20250116-18:28:58.199|56=CLIENT|10=184|8=FIX.4.4|9=56|35=0|34=54|49=SERVER|52=20250116-18:29:28.196|56=CLIENT|10=180|8=FIX.4.4|9=56|35=0|34=55|49=SERVER|52=20250116-18:29:58.194|56=CLIENT|10=182|8=FIX.4.4|9=56|35=0|34=56|49=SERVER|52=20250116-18:30:28.187|56=CLIENT|10=174|8=FIX.4.4|9=56|35=0|34=57|49=SERVER|52=20250116-18:30:58.196|56=CLIENT|10=178|8=FIX.4.4|9=56|35=0|34=58|49=SERVER|52=20250116-18:31:28.188|56=CLIENT|10=178|8=FIX.4.4|9=68|35=A|34=59|49=SERVER|52=20250116-18:42:17.343|56=CLIENT|98=0|108=30|10=217|8=FIX.4.4|9=66|35=2|34=60|49=SERVER|52=20250116-18:42:17.344|56=CLIENT|7=58|16=0|10=095|8=FIX.4.4|9=56|35=0|34=61|49=SERVER|52=20250116-18:42:48.211|56=CLIENT|10=163|8=FIX.4.4|9=56|35=0|34=62|49=SERVER|52=20250116-18:43:18.312|56=CLIENT|10=164|8=FIX.4.4|9=68|35=A|34=63|49=SERVER|52=20250116-18:44:13.805|56=CLIENT|98=0|108=30|10=213|8=FIX.4.4|9=56|35=0|34=64|49=SERVER|52=20250116-18:44:44.328|56=CLIENT|10=173|8=FIX.4.4|9=66|35=2|34=65|49=SERVER|52=20250116-18:44:44.330|56=CLIENT|7=74|16=0|10=095|8=FIX.4.4|9=56|35=0|34=66|49=SERVER|52=20250116-18:45:14.330|56=CLIENT|10=166|8=FIX.4.4|9=56|35=0|34=67|49=SERVER|52=20250116-18:45:44.749|56=CLIENT|10=184|8=FIX.4.4|9=56|35=0|34=68|49=SERVER|52=20250116-18:46:15.327|56=CLIENT|10=176|8=FIX.4.4|9=56|35=0|34=69|49=SERVER|52=20250116-18:46:45.323|56=CLIENT|10=176|8=FIX.4.4|9=56|35=0|34=70|49=SERVER|52=20250116-18:47:15.319|56=CLIENT|10=171|8=FIX.4.4|9=56|35=0|34=71|49=SERVER|52=20250116-18:47:45.331|56=CLIENT|10=169|8=FIX.4.4|9=56|35=0|34=72|49=SERVER|52=20250116-18:48:15.324|56=CLIENT|10=170|8=FIX.4.4|9=68|35=A|34=73|49=SERVER|52=20250116-18:48:47.938|56=CLIENT|98=0|108=30|10=232|8=FIX.4.4|9=66|35=2|34=74|49=SERVER|52=20250116-18:49:18.856|56=CLIENT|7=84|16=0|10=115|8=FIX.4.4|9=56|35=0|34=75|49=SERVER|52=20250116-18:49:48.887|56=CLIENT|10=194|8=FIX.4.4|9=56|35=0|34=76|49=SERVER|52=20250116-18:50:18.900|56=CLIENT|10=170|8=FIX.4.4|9=56|35=0|34=77|49=SERVER|52=20250116-18:50:48.896|56=CLIENT|10=188|8=FIX.4.4|9=68|35=A|34=78|49=SERVER|52=20250116-18:51:28.225|56=CLIENT|98=0|108=30|10=219|8=FIX.4.4|9=66|35=2|34=79|49=SERVER|52=20250116-18:51:58.162|56=CLIENT|7=90|16=0|10=104|8=FIX.4.4|9=56|35=0|34=80|49=SERVER|52=20250116-18:52:28.879|56=CLIENT|10=183|8=FIX.4.4|9=56|35=0|34=81|49=SERVER|52=20250116-18:52:58.890|56=CLIENT|10=180|8=FIX.4.4|9=56|35=0|34=82|49=SERVER|52=20250116-18:53:28.883|56=CLIENT|10=181|8=FIX.4.4|9=56|35=0|34=83|49=SERVER|52=20250116-18:53:58.886|56=CLIENT|10=188|8=FIX.4.4|9=56|35=0|34=84|49=SERVER|52=20250116-18:54:28.882|56=CLIENT|10=183|8=FIX.4.4|9=56|35=0|34=85|49=SERVER|52=20250116-18:54:58.881|56=CLIENT|10=186|8=FIX.4.4|9=68|35=A|34=86|49=SERVER|52=20250116-18:56:25.542|56=CLIENT|98=0|108=30|10=222|8=FIX.4.4|9=66|35=2|34=87|49=SERVER|52=20250116-18:56:25.543|56=CLIENT|7=98|16=0|10=113|8=FIX.4.4|9=56|35=0|34=88|49=SERVER|52=20250116-18:56:55.835|56=CLIENT|10=187|8=FIX.4.4|9=56|35=0|34=89|49=SERVER|52=20250116-18:57:25.833|56=CLIENT|10=184|8=FIX.4.4|9=56|35=0|34=90|49=SERVER|52=20250116-18:57:55.837|56=CLIENT|10=183|8=FIX.4.4|9=56|35=0|34=91|49=SERVER|52=20250116-18:58:25.839|56=CLIENT|10=184|8=FIX.4.4|9=56|35=0|34=92|49=SERVER|52=20250116-18:58:55.830|56=CLIENT|10=179|8=FIX.4.4|9=56|35=0|34=93|49=SERVER|52=20250116-18:59:25.836|56=CLIENT|10=184|8=FIX.4.4|9=56|35=0|34=94|49=SERVER|52=20250116-18:59:55.838|56=CLIENT|10=190|8=FIX.4.4|9=56|35=0|34=95|49=SERVER|52=20250116-19:00:25.837|56=CLIENT|10=174|8=FIX.4.4|9=56|35=0|34=96|49=SERVER|52=20250116-19:00:55.842|56=CLIENT|10=174|8=FIX.4.4|9=56|35=0|34=97|49=SERVER|52=20250116-19:01:25.835|56=CLIENT|10=175|8=FIX.4.4|9=56|35=0|34=98|49=SERVER|52=20250116-19:01:55.831|56=CLIENT|10=175|8=FIX.4.4|9=68|35=A|34=99|49=SERVER|52=20250116-19:02:24.505|56=CLIENT|98=0|108=30|10=216|8=FIX.4.4|9=68|35=2|34=100|49=SERVER|52=20250116-19:02:24.506|56=CLIENT|7=113|16=0|10=175|8=FIX.4.4|9=57|35=0|34=101|49=SERVER|52=20250116-19:02:54.701|56=CLIENT|10=205|8=FIX.4.4|9=57|35=0|34=102|49=SERVER|52=20250116-19:03:24.703|56=CLIENT|10=206|8=FIX.4.4|9=57|35=0|34=103|49=SERVER|52=20250116-19:03:54.699|56=CLIENT|10=224|8=FIX.4.4|9=57|35=0|34=104|49=SERVER|52=20250116-19:04:24.703|56=CLIENT|10=209|8=FIX.4.4|9=57|35=0|34=105|49=SERVER|52=20250116-19:04:54.699|56=CLIENT|10=227|8=FIX.4.4|9=57|35=0|34=106|49=SERVER|52=20250116-19:05:25.495|56=CLIENT|10=221|8=FIX.4.4|9=57|35=0|34=107|49=SERVER|52=20250116-19:05:55.491|56=CLIENT|10=221|8=FIX.4.4|9=69|35=A|34=108|49=SERVER|52=20250116-19:06:20.863|56=CLIENT|98=0|108=30|10=007|8=FIX.4.4|9=68|35=2|34=109|49=SERVER|52=20250116-19:06:20.864|56=CLIENT|7=128|16=0|10=197|8=FIX.4.4|9=57|35=0|34=110|49=SERVER|52=20250116-19:06:51.641|56=CLIENT|10=209|8=FIX.4.4|9=57|35=0|34=111|49=SERVER|52=20250116-19:07:21.649|56=CLIENT|10=216|8=FIX.4.4|9=57|35=0|34=112|49=SERVER|52=20250116-19:07:51.648|56=CLIENT|10=219|8=FIX.4.4|9=57|35=0|34=113|49=SERVER|52=20250116-19:08:21.840|56=CLIENT|10=212|8=FIX.4.4|9=57|35=0|34=114|49=SERVER|52=20250116-19:08:51.848|56=CLIENT|10=224|8=FIX.4.4|9=69|35=A|34=115|49=SERVER|52=20250116-19:09:21.028|56=CLIENT|98=0|108=30|10=002|8=FIX.4.4|9=68|35=2|34=116|49=SERVER|52=20250116-19:09:21.029|56=CLIENT|7=142|16=0|10=188|8=FIX.4.4|9=57|35=0|34=117|49=SERVER|52=20250116-19:09:51.482|56=CLIENT|10=222|8=FIX.4.4|9=57|35=0|34=118|49=SERVER|52=20250116-19:10:21.487|56=CLIENT|10=217|8=FIX.4.4|9=69|35=A|34=119|49=SERVER|52=20250116-19:12:28.185|56=CLIENT|98=0|108=30|10=011|8=FIX.4.4|9=68|35=2|34=120|49=SERVER|52=20250116-19:12:28.186|56=CLIENT|7=146|16=0|10=192|8=FIX.4.4|9=57|35=0|34=121|49=SERVER|52=20250116-19:12:59.060|56=CLIENT|10=211|8=FIX.4.4|9=57|35=0|34=122|49=SERVER|52=20250116-19:13:29.055|56=CLIENT|10=214|8=FIX.4.4|9=57|35=0|34=123|49=SERVER|52=20250116-19:13:59.056|56=CLIENT|10=219|8=FIX.4.4|9=57|35=0|34=124|49=SERVER|52=20250116-19:14:29.058|56=CLIENT|10=220|8=FIX.4.4|9=57|35=0|34=125|49=SERVER|52=20250116-19:14:59.171|56=CLIENT|10=220|8=FIX.4.4|9=57|35=0|34=126|49=SERVER|52=20250116-19:15:29.165|56=CLIENT|10=222|8=FIX.4.4|9=69|35=A|34=127|49=SERVER|52=20250116-19:16:32.155|56=CLIENT|98=0|108=30|10=006|8=FIX.4.4|9=68|35=2|34=128|49=SERVER|52=20250116-19:16:32.156|56=CLIENT|7=154|16=0|10=195|8=FIX.4.4|9=57|35=0|34=129|49=SERVER|52=20250116-19:17:03.104|56=CLIENT|10=212|8=FIX.4.4|9=69|35=A|34=130|49=SERVER|52=20250116-19:18:01.622|56=CLIENT|98=0|108=30|10=253|8=FIX.4.4|9=68|35=2|34=131|49=SERVER|52=20250116-19:18:01.622|56=CLIENT|7=159|16=0|10=190|8=FIX.4.4|9=57|35=0|34=132|49=SERVER|52=20250116-19:18:31.982|56=CLIENT|10=222|8=FIX.4.4|9=57|35=0|34=133|49=SERVER|52=20250116-19:19:01.980|56=CLIENT|10=219|8=FIX.4.4|9=57|35=0|34=134|49=SERVER|52=20250116-19:19:31.981|56=CLIENT|10=224|8=FIX.4.4|9=69|35=A|34=135|49=SERVER|52=20250116-19:22:02.015|56=CLIENT|98=0|108=30|10=250|8=FIX.4.4|9=69|35=A|34=136|49=SERVER|52=20250116-19:22:58.346|56=CLIENT|98=0|108=30|10=013|8=FIX.4.4|9=57|35=0|34=137|49=SERVER|52=20250116-19:23:28.680|56=CLIENT|10=224|8=FIX.4.4|9=69|35=A|34=138|49=SERVER|52=20250116-19:26:15.227|56=CLIENT|98=0|108=30|10=010|8=FIX.4.4|9=69|35=A|34=139|49=SERVER|52=20250116-19:26:48.376|56=CLIENT|98=0|108=30|10=022|8=FIX.4.4|9=57|35=0|34=140|49=SERVER|52=20250116-19:27:18.918|56=CLIENT|10=225|8=FIX.4.4|9=57|35=0|34=141|49=SERVER|52=20250116-19:27:48.916|56=CLIENT|10=227|8=FIX.4.4|9=57|35=0|34=142|49=SERVER|52=20250116-19:28:18.923|56=CLIENT|10=224|8=FIX.4.4|9=57|35=0|34=143|49=SERVER|52=20250116-19:28:48.916|56=CLIENT|10=230|8=FIX.4.4|9=69|35=A|34=144|49=SERVER|52=20250116-19:29:07.623|56=CLIENT|98=0|108=30|10=011|8=FIX.4.4|9=57|35=0|34=145|49=SERVER|52=20250116-19:29:37.636|56=CLIENT|10=230|8=FIX.4.4|9=57|35=0|34=146|49=SERVER|52=20250116-19:30:07.645|56=CLIENT|10=220|8=FIX.4.4|9=57|35=0|34=147|49=SERVER|52=20250116-19:30:37.639|56=CLIENT|10=227|8=FIX.4.4|9=57|35=0|34=148|49=SERVER|52=20250116-19:31:07.636|56=CLIENT|10=223|8=FIX.4.4|9=69|35=A|34=149|49=SERVER|52=20250116-19:31:31.081|56=CLIENT|98=0|108=30|10=004|8=FIX.4.4|9=57|35=0|34=150|49=SERVER|52=20250116-19:32:01.144|56=CLIENT|10=205|8=FIX.4.4|9=57|35=0|34=151|49=SERVER|52=20250116-19:32:31.148|56=CLIENT|10=213|8=FIX.4.4|9=57|35=0|34=152|49=SERVER|52=20250116-19:33:01.139|56=CLIENT|10=212|8=FIX.4.4|9=57|35=0|34=153|49=SERVER|52=20250116-19:33:31.143|56=CLIENT|10=211|8=FIX.4.4|9=57|35=0|34=154|49=SERVER|52=20250116-19:34:01.139|56=CLIENT|10=215|8=FIX.4.4|9=57|35=0|34=155|49=SERVER|52=20250116-19:34:31.145|56=CLIENT|10=216|8=FIX.4.4|9=57|35=0|34=156|49=SERVER|52=20250116-19:35:01.147|56=CLIENT|10=217|8=FIX.4.4|9=57|35=0|34=157|49=SERVER|52=20250116-19:35:31.139|56=CLIENT|10=222|8=FIX.4.4|9=57|35=0|34=158|49=SERVER|52=20250116-19:36:01.143|56=CLIENT|10=216|8=FIX.4.4|9=57|35=0|34=159|49=SERVER|52=20250116-19:36:31.146|56=CLIENT|10=223|8=FIX.4.4|9=57|35=0|34=160|49=SERVER|52=20250116-19:37:01.144|56=CLIENT|10=211|8=FIX.4.4|9=57|35=0|34=161|49=SERVER|52=20250116-19:37:31.143|56=CLIENT|10=214|8=FIX.4.4|9=57|35=0|34=162|49=SERVER|52=20250116-19:38:01.145|56=CLIENT|10=215|8=FIX.4.4|9=57|35=0|34=163|49=SERVER|52=20250116-19:38:31.141|56=CLIENT|10=215|8=FIX.4.4|9=57|35=0|34=164|49=SERVER|52=20250116-19:39:01.138|56=CLIENT|10=220|8=FIX.4.4|9=57|35=0|34=165|49=SERVER|52=20250116-19:39:31.149|56=CLIENT|10=226|8=FIX.4.4|9=57|35=0|34=166|49=SERVER|52=20250116-19:40:01.142|56=CLIENT|10=209|8=FIX.4.4|9=57|35=0|34=167|49=SERVER|52=20250116-19:40:31.144|56=CLIENT|10=215|8=FIX.4.4|9=57|35=0|34=168|49=SERVER|52=20250116-19:41:01.143|56=CLIENT|10=213|8=FIX.4.4|9=57|35=0|34=169|49=SERVER|52=20250116-19:41:31.143|56=CLIENT|10=217|8=FIX.4.4|9=57|35=0|34=170|49=SERVER|52=20250116-19:42:01.152|56=CLIENT|10=207|8=FIX.4.4|9=57|35=0|34=171|49=SERVER|52=20250116-19:42:32.150|56=CLIENT|10=210|8=FIX.4.4|9=69|35=A|34=172|49=SERVER|52=20250116-19:43:22.656|56=CLIENT|98=0|108=30|10=011|8=FIX.4.4|9=57|35=0|34=173|49=SERVER|52=20250116-19:43:53.094|56=CLIENT|10=223|8=FIX.4.4|9=57|35=0|34=174|49=SERVER|52=20250116-19:44:23.107|56=CLIENT|10=217|8=FIX.4.4|9=69|35=A|34=175|49=SERVER|52=20250116-19:44:58.768|56=CLIENT|98=0|108=30|10=028|8=FIX.4.4|9=57|35=0|34=176|49=SERVER|52=20250116-19:45:29.491|56=CLIENT|10=232|8=FIX.4.4|9=57|35=0|34=177|49=SERVER|52=20250116-19:45:59.485|56=CLIENT|10=239|8=FIX.4.4|9=57|35=0|34=178|49=SERVER|52=20250116-19:46:29.484|56=CLIENT|10=237|8=FIX.4.4|9=57|35=0|34=179|49=SERVER|52=20250116-19:46:59.483|56=CLIENT|10=240|8=FIX.4.4|9=57|35=0|34=180|49=SERVER|52=20250116-19:47:29.489|56=CLIENT|10=236|8=FIX.4.4|9=57|35=0|34=181|49=SERVER|52=20250116-19:47:59.488|56=CLIENT|10=239|8=FIX.4.4|9=69|35=A|34=182|49=SERVER|52=20250116-19:48:51.651|56=CLIENT|98=0|108=30|10=014|8=FIX.4.4|9=57|35=0|34=183|49=SERVER|52=20250116-19:49:22.082|56=CLIENT|10=223|8=FIX.4.4|9=57|35=0|34=184|49=SERVER|52=20250116-19:49:52.075|56=CLIENT|10=229|8=FIX.4.4|9=57|35=0|34=185|49=SERVER|52=20250116-19:50:22.088|56=CLIENT|10=223|8=FIX.4.4|9=57|35=0|34=186|49=SERVER|52=20250116-19:50:53.083|56=CLIENT|10=223|8=FIX.4.4|9=57|35=0|34=187|49=SERVER|52=20250116-19:51:23.086|56=CLIENT|10=225|8=FIX.4.4|9=57|35=0|34=188|49=SERVER|52=20250116-19:51:53.082|56=CLIENT|10=225|8=FIX.4.4|9=57|35=0|34=189|49=SERVER|52=20250116-19:52:23.084|56=CLIENT|10=226|8=FIX.4.4|9=57|35=0|34=190|49=SERVER|52=20250116-19:52:53.081|56=CLIENT|10=218|8=FIX.4.4|9=57|35=0|34=191|49=SERVER|52=20250116-19:53:23.090|56=CLIENT|10=217|8=FIX.4.4|9=57|35=0|34=192|49=SERVER|52=20250116-19:53:53.083|56=CLIENT|10=223|8=FIX.4.4|9=69|35=A|34=193|49=SERVER|52=20250116-19:54:26.053|56=CLIENT|98=0|108=30|10=011|8=FIX.4.4|9=57|35=0|34=194|49=SERVER|52=20250116-19:54:56.119|56=CLIENT|10=229|8=FIX.4.4|9=57|35=0|34=195|49=SERVER|52=20250116-19:55:26.115|56=CLIENT|10=224|8=FIX.4.4|9=69|35=A|34=196|49=SERVER|52=20250116-19:56:27.592|56=CLIENT|98=0|108=30|10=025|8=FIX.4.4|9=69|35=A|34=197|49=SERVER|52=20250116-19:57:03.645|56=CLIENT|98=0|108=30|10=020|8=FIX.4.4|9=57|35=0|34=198|49=SERVER|52=20250116-19:57:34.605|56=CLIENT|10=232|8=FIX.4.4|9=57|35=0|34=199|49=SERVER|52=20250116-19:58:04.596|56=CLIENT|10=240|8=FIX.4.4|9=57|35=0|34=200|49=SERVER|52=20250116-19:58:34.605|56=CLIENT|10=217|8=FIX.4.4|9=57|35=0|34=201|49=SERVER|52=20250116-19:59:04.602|56=CLIENT|10=213|8=FIX.4.4|9=57|35=0|34=202|49=SERVER|52=20250116-19:59:34.601|56=CLIENT|10=216|8=FIX.4.4|9=57|35=0|34=203|49=SERVER|52=20250116-20:00:04.593|56=CLIENT|10=202|8=FIX.4.4|9=57|35=0|34=204|49=SERVER|52=20250116-20:00:34.593|56=CLIENT|10=206|8=FIX.4.4|9=57|35=0|34=205|49=SERVER|52=20250116-20:01:04.597|56=CLIENT|10=209|8=FIX.4.4|9=57|35=0|34=206|49=SERVER|52=20250116-20:01:34.598|56=CLIENT|10=214|8=FIX.4.4|9=57|35=0|34=207|49=SERVER|52=20250116-20:02:04.601|56=CLIENT|10=198|8=FIX.4.4|9=57|35=0|34=208|49=SERVER|52=20250116-20:02:34.602|56=CLIENT|10=203|8=FIX.4.4|9=57|35=0|34=209|49=SERVER|52=20250116-20:03:04.599|56=CLIENT|10=217|8=FIX.4.4|9=57|35=0|34=210|49=SERVER|52=20250116-20:03:34.600|56=CLIENT|10=195|8=FIX.4.4|9=57|35=0|34=211|49=SERVER|52=20250116-20:04:04.598|56=CLIENT|10=210|8=FIX.4.4|9=57|35=0|34=212|49=SERVER|52=20250116-20:04:34.602|56=CLIENT|10=200|8=FIX.4.4|9=57|35=0|34=213|49=SERVER|52=20250116-20:05:04.599|56=CLIENT|10=214|8=FIX.4.4|9=57|35=0|34=214|49=SERVER|52=20250116-20:05:34.591|56=CLIENT|10=210|8=FIX.4.4|9=57|35=0|34=215|49=SERVER|52=20250116-20:06:04.602|56=CLIENT|10=202|8=FIX.4.4|9=57|35=0|34=216|49=SERVER|52=20250116-20:06:34.600|56=CLIENT|10=204|8=FIX.4.4|9=57|35=0|34=217|49=SERVER|52=20250116-20:07:04.591|56=CLIENT|10=212|8=FIX.4.4|9=57|35=0|34=218|49=SERVER|52=20250116-20:07:34.591|56=CLIENT|10=216|8=FIX.4.4|9=57|35=0|34=219|49=SERVER|52=20250116-20:08:04.592|56=CLIENT|10=216|8=FIX.4.4|9=57|35=0|34=220|49=SERVER|52=20250116-20:08:34.605|56=CLIENT|10=206|8=FIX.4.4|9=57|35=0|34=221|49=SERVER|52=20250116-20:09:04.596|56=CLIENT|10=214|8=FIX.4.4|9=57|35=0|34=222|49=SERVER|52=20250116-20:09:34.602|56=CLIENT|10=206|8=FIX.4.4|9=57|35=0|34=223|49=SERVER|52=20250116-20:10:04.599|56=CLIENT|10=211|8=FIX.4.4|9=57|35=0|34=224|49=SERVER|52=20250116-20:10:34.602|56=CLIENT|10=200|8=FIX.4.4|9=57|35=0|34=225|49=SERVER|52=20250116-20:11:04.603|56=CLIENT|10=200|8=FIX.4.4|9=57|35=0|34=226|49=SERVER|52=20250116-20:11:35.604|56=CLIENT|10=206|8=FIX.4.4|9=57|35=0|34=227|49=SERVER|52=20250116-20:12:06.595|56=CLIENT|10=215|8=FIX.4.4|9=57|35=0|34=228|49=SERVER|52=20250116-20:12:36.595|56=CLIENT|10=219|8=FIX.4.4|9=57|35=0|34=229|49=SERVER|52=20250116-20:13:06.591|56=CLIENT|10=214|8=FIX.4.4|9=57|35=0|34=230|49=SERVER|52=20250116-20:13:36.598|56=CLIENT|10=216|8=FIX.4.4|9=57|35=0|34=231|49=SERVER|52=20250116-20:14:06.599|56=CLIENT|10=216|8=FIX.4.4|9=57|35=0|34=232|49=SERVER|52=20250116-20:14:36.595|56=CLIENT|10=216|8=FIX.4.4|9=57|35=0|34=233|49=SERVER|52=20250116-20:15:06.598|56=CLIENT|10=218|8=FIX.4.4|9=57|35=0|34=234|49=SERVER|52=20250116-20:15:36.600|56=CLIENT|10=206|8=FIX.4.4|9=57|35=0|34=235|49=SERVER|52=20250116-20:16:06.599|56=CLIENT|10=222|8=FIX.4.4|9=57|35=0|34=236|49=SERVER|52=20250116-20:16:36.591|56=CLIENT|10=218|8=FIX.4.4|9=57|35=0|34=237|49=SERVER|52=20250116-20:17:06.597|56=CLIENT|10=223|8=FIX.4.4|9=57|35=0|34=238|49=SERVER|52=20250116-20:17:36.594|56=CLIENT|10=224|8=FIX.4.4|9=57|35=0|34=239|49=SERVER|52=20250116-20:18:06.591|56=CLIENT|10=220|8=FIX.4.4|9=57|35=0|34=240|49=SERVER|52=20250116-20:18:36.601|56=CLIENT|10=207|8=FIX.4.4|9=57|35=0|34=241|49=SERVER|52=20250116-20:19:06.598|56=CLIENT|10=221|8=FIX.4.4|9=57|35=0|34=242|49=SERVER|52=20250116-20:19:36.592|56=CLIENT|10=219|8=FIX.4.4|9=57|35=0|34=243|49=SERVER|52=20250116-20:20:06.605|56=CLIENT|10=204|8=FIX.4.4|9=57|35=0|34=244|49=SERVER|52=20250116-20:20:37.600|56=CLIENT|10=204|8=FIX.4.4|9=57|35=0|34=245|49=SERVER|52=20250116-20:21:07.602|56=CLIENT|10=205|8=FIX.4.4|9=57|35=0|34=246|49=SERVER|52=20250116-20:21:37.600|56=CLIENT|10=207|8=FIX.4.4|9=57|35=0|34=247|49=SERVER|52=20250116-20:22:07.601|56=CLIENT|10=207|8=FIX.4.4|9=57|35=0|34=248|49=SERVER|52=20250116-20:22:37.603|56=CLIENT|10=213|8=FIX.4.4|9=57|35=0|34=249|49=SERVER|52=20250116-20:23:07.602|56=CLIENT|10=211|8=FIX.4.4|9=57|35=0|34=250|49=SERVER|52=20250116-20:23:37.603|56=CLIENT|10=207|8=FIX.4.4|9=57|35=0|34=251|49=SERVER|52=20250116-20:24:08.604|56=CLIENT|10=208|8=FIX.4.4|9=57|35=0|34=252|49=SERVER|52=20250116-20:24:38.604|56=CLIENT|10=212|8=FIX.4.4|9=57|35=0|34=253|49=SERVER|52=20250116-20:25:08.599|56=CLIENT|10=224|8=FIX.4.4|9=57|35=0|34=254|49=SERVER|52=20250116-20:25:38.606|56=CLIENT|10=217|8=FIX.4.4|9=57|35=0|34=255|49=SERVER|52=20250116-20:26:08.603|56=CLIENT|10=213|8=FIX.4.4|9=57|35=0|34=256|49=SERVER|52=20250116-20:26:38.606|56=CLIENT|10=220|8=FIX.4.4|9=57|35=0|34=257|49=SERVER|52=20250116-20:27:08.602|56=CLIENT|10=215|8=FIX.4.4|9=57|35=0|34=258|49=SERVER|52=20250116-20:27:38.598|56=CLIENT|10=233|8=FIX.4.4|9=57|35=0|34=259|49=SERVER|52=20250116-20:28:08.595|56=CLIENT|10=229|8=FIX.4.4|9=57|35=0|34=260|49=SERVER|52=20250116-20:28:38.596|56=CLIENT|10=225|8=FIX.4.4|9=57|35=0|34=261|49=SERVER|52=20250116-20:29:08.603|56=CLIENT|10=213|8=FIX.4.4|9=57|35=0|34=262|49=SERVER|52=20250116-20:29:38.603|56=CLIENT|10=217|8=FIX.4.4|9=69|35=A|34=263|49=SERVER|52=20250116-20:30:09.623|56=CLIENT|98=0|108=30|10=255|8=FIX.4.4|9=57|35=0|34=264|49=SERVER|52=20250116-20:30:40.046|56=CLIENT|10=205|8=FIX.4.4|9=57|35=0|34=265|49=SERVER|52=20250116-20:31:10.046|56=CLIENT|10=204|8=FIX.4.4|9=57|35=0|34=266|49=SERVER|52=20250116-20:31:40.041|56=CLIENT|10=203|8=FIX.4.4|9=57|35=0|34=267|49=SERVER|52=20250116-20:32:10.043|56=CLIENT|10=204|8=FIX.4.4|9=57|35=0|34=268|49=SERVER|52=20250116-20:32:40.046|56=CLIENT|10=211|8=FIX.4.4|9=57|35=0|34=269|49=SERVER|52=20250116-20:33:10.043|56=CLIENT|10=207|8=FIX.4.4|9=57|35=0|34=270|49=SERVER|52=20250116-20:33:40.038|56=CLIENT|10=206|8=FIX.4.4|9=57|35=0|34=271|49=SERVER|52=20250116-20:34:10.050|56=CLIENT|10=199|8=FIX.4.4|9=69|35=A|34=272|49=SERVER|52=20250116-20:34:19.710|56=CLIENT|98=0|108=30|10=001|8=FIX.4.4|9=57|35=0|34=273|49=SERVER|52=20250116-20:34:50.589|56=CLIENT|10=222|8=FIX.4.4|9=57|35=0|34=274|49=SERVER|52=20250116-20:35:20.586|56=CLIENT|10=218|8=FIX.4.4|9=57|35=0|34=275|49=SERVER|52=20250116-20:35:50.590|56=CLIENT|10=217|8=FIX.4.4|9=57|35=0|34=276|49=SERVER|52=20250116-20:36:20.595|56=CLIENT|10=221|8=FIX.4.4|9=57|35=0|34=277|49=SERVER|52=20250116-20:36:50.589|56=CLIENT|10=228|8=FIX.4.4|9=57|35=0|34=278|49=SERVER|52=20250116-20:37:20.589|56=CLIENT|10=227|8=FIX.4.4|9=57|35=0|34=279|49=SERVER|52=20250116-20:37:50.584|56=CLIENT|10=226|8=FIX.4.4|9=57|35=0|34=280|49=SERVER|52=20250116-20:38:20.581|56=CLIENT|10=213|8=FIX.4.4|9=57|35=0|34=281|49=SERVER|52=20250116-20:38:50.596|56=CLIENT|10=223|8=FIX.4.4|9=57|35=0|34=282|49=SERVER|52=20250116-20:39:20.587|56=CLIENT|10=222|8=FIX.4.4|9=57|35=0|34=283|49=SERVER|52=20250116-20:39:50.582|56=CLIENT|10=221|8=FIX.4.4|9=57|35=0|34=284|49=SERVER|52=20250116-20:40:20.594|56=CLIENT|10=214|8=FIX.4.4|9=57|35=0|34=285|49=SERVER|52=20250116-20:40:50.595|56=CLIENT|10=219|8=FIX.4.4|9=57|35=0|34=286|49=SERVER|52=20250116-20:41:20.591|56=CLIENT|10=214|8=FIX.4.4|9=57|35=0|34=287|49=SERVER|52=20250116-20:41:50.589|56=CLIENT|10=225|8=FIX.4.4|9=57|35=0|34=288|49=SERVER|52=20250116-20:42:20.581|56=CLIENT|10=216|8=FIX.4.4|9=57|35=0|34=289|49=SERVER|52=20250116-20:42:50.587|56=CLIENT|10=226|8=FIX.4.4|9=57|35=0|34=290|49=SERVER|52=20250116-20:43:20.584|56=CLIENT|10=213|8=FIX.4.4|9=57|35=0|34=291|49=SERVER|52=20250116-20:43:50.590|56=CLIENT|10=214|8=FIX.4.4|9=57|35=0|34=292|49=SERVER|52=20250116-20:44:20.586|56=CLIENT|10=218|8=FIX.4.4|9=57|35=0|34=293|49=SERVER|52=20250116-20:44:50.584|56=CLIENT|10=220|8=FIX.4.4|9=57|35=0|34=294|49=SERVER|52=20250116-20:45:20.582|56=CLIENT|10=217|8=FIX.4.4|9=57|35=0|34=295|49=SERVER|52=20250116-20:45:50.587|56=CLIENT|10=226|8=FIX.4.4|9=57|35=0|34=296|49=SERVER|52=20250116-20:46:20.587|56=CLIENT|10=225|8=FIX.4.4|9=57|35=0|34=297|49=SERVER|52=20250116-20:46:50.595|56=CLIENT|10=228|8=FIX.4.4|9=57|35=0|34=298|49=SERVER|52=20250116-20:47:20.586|56=CLIENT|10=227|8=FIX.4.4|9=57|35=0|34=299|49=SERVER|52=20250116-20:47:50.589|56=CLIENT|10=234|8=FIX.4.4|9=57|35=0|34=300|49=SERVER|52=20250116-20:48:20.592|56=CLIENT|10=209|8=FIX.4.4|9=57|35=0|34=301|49=SERVER|52=20250116-20:48:50.588|56=CLIENT|10=218|8=FIX.4.4|9=69|35=A|34=302|49=SERVER|52=20250116-20:49:33.045|56=CLIENT|98=0|108=30|10=254|8=FIX.4.4|9=57|35=0|34=303|49=SERVER|52=20250116-20:50:03.380|56=CLIENT|10=201|8=FIX.4.4|9=57|35=0|34=304|49=SERVER|52=20250116-20:50:33.385|56=CLIENT|10=210|8=FIX.4.4|9=57|35=0|34=305|49=SERVER|52=20250116-20:51:03.381|56=CLIENT|10=205|8=FIX.4.4|9=57|35=0|34=306|49=SERVER|52=20250116-20:51:33.386|56=CLIENT|10=214|8=FIX.4.4|9=57|35=0|34=307|49=SERVER|52=20250116-20:52:04.379|56=CLIENT|10=216|8=FIX.4.4|9=57|35=0|34=308|49=SERVER|52=20250116-20:52:34.377|56=CLIENT|10=218|8=FIX.4.4|9=57|35=0|34=309|49=SERVER|52=20250116-20:53:04.379|56=CLIENT|10=219|8=FIX.4.4|9=57|35=0|34=310|49=SERVER|52=20250116-20:53:34.373|56=CLIENT|10=208|8=FIX.4.4|9=57|35=0|34=311|49=SERVER|52=20250116-20:54:04.380|56=CLIENT|10=205|8=FIX.4.4|9=57|35=0|34=312|49=SERVER|52=20250116-20:54:34.377|56=CLIENT|10=215|8=FIX.4.4|9=57|35=0|34=313|49=SERVER|52=20250116-20:55:04.384|56=CLIENT|10=212|8=FIX.4.4|9=57|35=0|34=314|49=SERVER|52=20250116-20:55:34.377|56=CLIENT|10=218|8=FIX.4.4|9=57|35=0|34=315|49=SERVER|52=20250116-20:56:04.379|56=CLIENT|10=219|8=FIX.4.4|9=57|35=0|34=316|49=SERVER|52=20250116-20:56:34.383|56=CLIENT|10=218|8=FIX.4.4|9=57|35=0|34=317|49=SERVER|52=20250116-20:57:04.374|56=CLIENT|10=217|8=FIX.4.4|9=57|35=0|34=318|49=SERVER|52=20250116-20:57:34.386|56=CLIENT|10=224|8=FIX.4.4|9=57|35=0|34=319|49=SERVER|52=20250116-20:58:04.380|56=CLIENT|10=217|8=FIX.4.4|9=57|35=0|34=320|49=SERVER|52=20250116-20:58:34.382|56=CLIENT|10=214|8=FIX.4.4|9=57|35=0|34=321|49=SERVER|52=20250116-20:59:05.387|56=CLIENT|10=219|8=FIX.4.4|9=57|35=0|34=322|49=SERVER|52=20250116-20:59:36.380|56=CLIENT|10=217|8=FIX.4.4|9=57|35=0|34=323|49=SERVER|52=20250116-21:00:06.385|56=CLIENT|10=207|8=FIX.4.4|9=57|35=0|34=324|49=SERVER|52=20250116-21:00:36.378|56=CLIENT|10=213|8=FIX.4.4|9=57|35=0|34=325|49=SERVER|52=20250116-21:01:06.388|56=CLIENT|10=213|8=FIX.4.4|9=57|35=0|34=326|49=SERVER|52=20250116-21:01:36.382|56=CLIENT|10=211|8=FIX.4.4|9=57|35=0|34=327|49=SERVER|52=20250116-21:02:06.381|56=CLIENT|10=209|8=FIX.4.4|9=57|35=0|34=328|49=SERVER|52=20250116-21:02:36.374|56=CLIENT|10=215|8=FIX.4.4|9=57|35=0|34=329|49=SERVER|52=20250116-21:03:06.386|56=CLIENT|10=217|8=FIX.4.4|9=57|35=0|34=330|49=SERVER|52=20250116-21:03:37.373|56=CLIENT|10=209|8=FIX.4.4|9=57|35=0|34=331|49=SERVER|52=20250116-21:04:07.379|56=CLIENT|10=214|8=FIX.4.4|9=57|35=0|34=332|49=SERVER|52=20250116-21:04:37.385|56=CLIENT|10=215|8=FIX.4.4|9=57|35=0|34=333|49=SERVER|52=20250116-21:05:07.383|56=CLIENT|10=212|8=FIX.4.4|9=57|35=0|34=334|49=SERVER|52=20250116-21:05:37.387|56=CLIENT|10=220|8=FIX.4.4|9=57|35=0|34=335|49=SERVER|52=20250116-21:06:07.378|56=CLIENT|10=219|8=FIX.4.4|9=57|35=0|34=336|49=SERVER|52=20250116-21:06:37.386|56=CLIENT|10=222|8=FIX.4.4|9=57|35=0|34=337|49=SERVER|52=20250116-21:07:07.378|56=CLIENT|10=222|8=FIX.4.4|9=57|35=0|34=338|49=SERVER|52=20250116-21:07:37.374|56=CLIENT|10=222|8=FIX.4.4|9=57|35=0|34=339|49=SERVER|52=20250116-21:08:07.373|56=CLIENT|10=220|8=FIX.4.4|9=57|35=0|34=340|49=SERVER|52=20250116-21:08:37.378|56=CLIENT|10=220|8=FIX.4.4|9=57|35=0|34=341|49=SERVER|52=20250116-21:09:07.381|56=CLIENT|10=213|8=FIX.4.4|9=57|35=0|34=342|49=SERVER|52=20250116-21:09:37.376|56=CLIENT|10=221|8=FIX.4.4|9=57|35=0|34=343|49=SERVER|52=20250116-21:10:07.383|56=CLIENT|10=209|8=FIX.4.4|9=57|35=0|34=344|49=SERVER|52=20250116-21:10:37.377|56=CLIENT|10=216|8=FIX.4.4|9=57|35=0|34=345|49=SERVER|52=20250116-21:11:07.609|56=CLIENT|10=213|8=FIX.4.4|9=57|35=0|34=346|49=SERVER|52=20250116-21:11:37.605|56=CLIENT|10=213|8=FIX.4.4|9=57|35=0|34=347|49=SERVER|52=20250116-21:12:07.615|56=CLIENT|10=213|8=FIX.4.4|9=57|35=0|34=348|49=SERVER|52=20250116-21:12:37.609|56=CLIENT|10=220|8=FIX.4.4|9=57|35=0|34=349|49=SERVER|52=20250116-21:13:07.611|56=CLIENT|10=212|8=FIX.4.4|9=57|35=0|34=350|49=SERVER|52=20250116-21:13:37.614|56=CLIENT|10=210|8=FIX.4.4|9=57|35=0|34=351|49=SERVER|52=20250116-21:14:07.610|56=CLIENT|10=205|8=FIX.4.4|9=57|35=0|34=352|49=SERVER|52=20250116-21:14:37.609|56=CLIENT|10=217|8=FIX.4.4|9=57|35=0|34=353|49=SERVER|52=20250116-21:15:07.607|56=CLIENT|10=214|8=FIX.4.4|9=57|35=0|34=354|49=SERVER|52=20250116-21:15:37.602|56=CLIENT|10=213|8=FIX.4.4|9=57|35=0|34=355|49=SERVER|52=20250116-21:16:07.610|56=CLIENT|10=211|8=FIX.4.4|9=57|35=0|34=356|49=SERVER|52=20250116-21:16:37.609|56=CLIENT|10=223|8=FIX.4.4|9=57|35=0|34=357|49=SERVER|52=20250116-21:17:07.603|56=CLIENT|10=216|8=FIX.4.4|9=57|35=0|34=358|49=SERVER|52=20250116-21:17:37.611|56=CLIENT|10=219|8=FIX.4.4|9=57|35=0|34=359|49=SERVER|52=20250116-21:18:07.607|56=CLIENT|10=223|8=FIX.4.4|9=57|35=0|34=360|49=SERVER|52=20250116-21:18:37.607|56=CLIENT|10=218|8=FIX.4.4|9=57|35=0|34=361|49=SERVER|52=20250116-21:19:07.602|56=CLIENT|10=212|8=FIX.4.4|9=57|35=0|34=362|49=SERVER|52=20250116-21:19:37.611|56=CLIENT|10=216|8=FIX.4.4|9=57|35=0|34=363|49=SERVER|52=20250116-21:20:07.609|56=CLIENT|10=213|8=FIX.4.4|9=57|35=0|34=364|49=SERVER|52=20250116-21:20:37.602|56=CLIENT|10=210|8=FIX.4.4|9=57|35=0|34=365|49=SERVER|52=20250116-21:21:07.609|56=CLIENT|10=216|8=FIX.4.4|9=57|35=0|34=366|49=SERVER|52=20250116-21:21:37.605|56=CLIENT|10=216|8=FIX.4.4|9=57|35=0|34=367|49=SERVER|52=20250116-21:22:07.603|56=CLIENT|10=213|8=FIX.4.4|9=57|35=0|34=368|49=SERVER|52=20250116-21:22:37.606|56=CLIENT|10=220|8=FIX.4.4|9=57|35=0|34=369|49=SERVER|52=20250116-21:23:07.602|56=CLIENT|10=215|8=FIX.4.4|9=57|35=0|34=370|49=SERVER|52=20250116-21:23:37.610|56=CLIENT|10=209|8=FIX.4.4|9=57|35=0|34=371|49=SERVER|52=20250116-21:24:07.605|56=CLIENT|10=212|8=FIX.4.4|9=57|35=0|34=372|49=SERVER|52=20250116-21:24:37.607|56=CLIENT|10=218|8=FIX.4.4|9=57|35=0|34=373|49=SERVER|52=20250116-21:25:07.613|56=CLIENT|10=214|8=FIX.4.4|9=57|35=0|34=374|49=SERVER|52=20250116-21:25:37.606|56=CLIENT|10=220|8=FIX.4.4|9=57|35=0|34=375|49=SERVER|52=20250116-21:26:07.614|56=CLIENT|10=218|8=FIX.4.4|9=57|35=0|34=376|49=SERVER|52=20250116-21:26:38.615|56=CLIENT|10=224|8=FIX.4.4|9=57|35=0|34=377|49=SERVER|52=20250116-21:27:09.608|56=CLIENT|10=226|8=FIX.4.4|9=57|35=0|34=378|49=SERVER|52=20250116-21:27:39.615|56=CLIENT|10=228|8=FIX.4.4|9=57|35=0|34=379|49=SERVER|52=20250116-21:28:10.602|56=CLIENT|10=215|8=FIX.4.4|9=57|35=0|34=380|49=SERVER|52=20250116-21:28:40.601|56=CLIENT|10=209|8=FIX.4.4|9=57|35=0|34=381|49=SERVER|52=20250116-21:29:10.612|56=CLIENT|10=210|8=FIX.4.4|9=57|35=0|34=382|49=SERVER|52=20250116-21:29:40.610|56=CLIENT|10=212|8=FIX.4.4|9=57|35=0|34=383|49=SERVER|52=20250116-21:30:10.605|56=CLIENT|10=206|8=FIX.4.4|9=57|35=0|34=384|49=SERVER|52=20250116-21:30:40.610|56=CLIENT|10=206|8=FIX.4.4|9=57|35=0|34=385|49=SERVER|52=20250116-21:31:10.611|56=CLIENT|10=206|8=FIX.4.4|9=57|35=0|34=386|49=SERVER|52=20250116-21:31:40.615|56=CLIENT|10=214|8=FIX.4.4|9=57|35=0|34=387|49=SERVER|52=20250116-21:32:10.612|56=CLIENT|10=210|8=FIX.4.4|9=57|35=0|34=388|49=SERVER|52=20250116-21:32:40.610|56=CLIENT|10=212|8=FIX.4.4|9=57|35=0|34=389|49=SERVER|52=20250116-21:33:10.604|56=CLIENT|10=214|8=FIX.4.4|9=57|35=0|34=390|49=SERVER|52=20250116-21:33:40.611|56=CLIENT|10=207|8=FIX.4.4|9=57|35=0|34=391|49=SERVER|52=20250116-21:34:10.609|56=CLIENT|10=213|8=FIX.4.4|9=57|35=0|34=392|49=SERVER|52=20250116-21:34:40.611|56=CLIENT|10=210|8=FIX.4.4|9=57|35=0|34=393|49=SERVER|52=20250116-21:35:10.602|56=CLIENT|10=209|8=FIX.4.4|9=57|35=0|34=394|49=SERVER|52=20250116-21:35:40.610|56=CLIENT|10=212|8=FIX.4.4|9=57|35=0|34=395|49=SERVER|52=20250116-21:36:10.615|56=CLIENT|10=216|8=FIX.4.4|9=57|35=0|34=396|49=SERVER|52=20250116-21:36:40.609|56=CLIENT|10=223|8=FIX.4.4|9=57|35=0|34=397|49=SERVER|52=20250116-21:37:10.606|56=CLIENT|10=219|8=FIX.4.4|9=57|35=0|34=398|49=SERVER|52=20250116-21:37:40.602|56=CLIENT|10=219|8=FIX.4.4|9=57|35=0|34=399|49=SERVER|52=20250116-21:38:10.604|56=CLIENT|10=220|8=FIX.4.4|9=57|35=0|34=400|49=SERVER|52=20250116-21:38:40.611|56=CLIENT|10=204|8=FIX.4.4|9=69|35=A|34=401|49=SERVER|52=20250116-21:39:56.279|56=CLIENT|98=0|108=30|10=012|8=FIX.4.4|9=57|35=0|34=402|49=SERVER|52=20250116-21:40:26.498|56=CLIENT|10=216|8=FIX.4.4|9=57|35=0|34=403|49=SERVER|52=20250116-21:40:56.500|56=CLIENT|10=204|8=FIX.4.4|9=57|35=0|34=404|49=SERVER|52=20250116-21:41:26.503|56=CLIENT|10=206|8=FIX.4.4|9=57|35=0|34=405|49=SERVER|52=20250116-21:41:56.496|56=CLIENT|10=221|8=FIX.4.4|9=57|35=0|34=406|49=SERVER|52=20250116-21:42:26.495|56=CLIENT|10=219|8=FIX.4.4|9=57|35=0|34=407|49=SERVER|52=20250116-21:42:56.504|56=CLIENT|10=214|8=FIX.4.4|9=57|35=0|34=408|49=SERVER|52=20250116-21:43:26.503|56=CLIENT|10=212|8=FIX.4.4|9=57|35=0|34=409|49=SERVER|52=20250116-21:43:56.505|56=CLIENT|10=218|8=FIX.4.4|9=57|35=0|34=410|49=SERVER|52=20250116-21:44:26.496|56=CLIENT|10=217|8=FIX.4.4|9=57|35=0|34=411|49=SERVER|52=20250116-21:44:56.495|56=CLIENT|10=220|8=FIX.4.4|9=57|35=0|34=412|49=SERVER|52=20250116-21:45:26.506|56=CLIENT|10=212|8=FIX.4.4|9=57|35=0|34=413|49=SERVER|52=20250116-21:45:56.501|56=CLIENT|10=211|8=FIX.4.4|9=57|35=0|34=414|49=SERVER|52=20250116-21:46:26.494|56=CLIENT|10=221|8=FIX.4.4|9=57|35=0|34=415|49=SERVER|52=20250116-21:46:56.505|56=CLIENT|10=218|8=FIX.4.4|9=57|35=0|34=416|49=SERVER|52=20250116-21:47:26.499|56=CLIENT|10=229|8=FIX.4.4|9=57|35=0|34=417|49=SERVER|52=20250116-21:47:56.501|56=CLIENT|10=217|8=FIX.4.4|9=57|35=0|34=418|49=SERVER|52=20250116-21:48:26.499|56=CLIENT|10=232|8=FIX.4.4|9=57|35=0|34=419|49=SERVER|52=20250116-21:48:56.493|56=CLIENT|10=230|8=FIX.4.4|9=57|35=0|34=420|49=SERVER|52=20250116-21:49:26.502|56=CLIENT|10=211|8=FIX.4.4|9=69|35=A|34=421|49=SERVER|52=20250116-21:49:53.657|56=CLIENT|98=0|108=30|10=012|8=FIX.4.4|9=57|35=0|34=422|49=SERVER|52=20250116-21:50:24.414|56=CLIENT|10=205|8=FIX.4.4|9=57|35=0|34=423|49=SERVER|52=20250116-21:50:54.414|56=CLIENT|10=209|8=FIX.4.4|9=57|35=0|34=424|49=SERVER|52=20250116-21:51:24.426|56=CLIENT|10=211|8=FIX.4.4|9=57|35=0|34=425|49=SERVER|52=20250116-21:51:54.422|56=CLIENT|10=211|8=FIX.4.4|9=57|35=0|34=426|49=SERVER|52=20250116-21:52:24.418|56=CLIENT|10=215|8=FIX.4.4|9=57|35=0|34=427|49=SERVER|52=20250116-21:52:54.415|56=CLIENT|10=216|8=FIX.4.4|9=69|35=A|34=428|49=SERVER|52=20250116-21:53:20.026|56=CLIENT|98=0|108=30|10=254|8=FIX.4.4|9=57|35=0|34=429|49=SERVER|52=20250116-21:53:50.452|56=CLIENT|10=216|8=FIX.4.4|9=57|35=0|34=430|49=SERVER|52=20250116-21:54:20.448|56=CLIENT|10=211|8=FIX.4.4|9=57|35=0|34=431|49=SERVER|52=20250116-21:54:50.450|56=CLIENT|10=208|8=FIX.4.4|9=57|35=0|34=432|49=SERVER|52=20250116-21:55:20.449|56=CLIENT|10=215|8=FIX.4.4|9=57|35=0|34=433|49=SERVER|52=20250116-21:55:50.457|56=CLIENT|10=218|8=FIX.4.4|9=57|35=0|34=434|49=SERVER|52=20250116-21:56:20.455|56=CLIENT|10=215|8=FIX.4.4|9=57|35=0|34=435|49=SERVER|52=20250116-21:56:50.452|56=CLIENT|10=216|8=FIX.4.4|9=57|35=0|34=436|49=SERVER|52=20250116-21:57:20.448|56=CLIENT|10=220|8=FIX.4.4|9=57|35=0|34=437|49=SERVER|52=20250116-21:57:50.448|56=CLIENT|10=224|8=FIX.4.4|9=57|35=0|34=438|49=SERVER|52=20250116-21:58:20.448|56=CLIENT|10=223|8=FIX.4.4|9=57|35=0|34=439|49=SERVER|52=20250116-21:58:50.458|56=CLIENT|10=228|8=FIX.4.4|9=57|35=0|34=440|49=SERVER|52=20250116-21:59:20.455|56=CLIENT|10=215|8=FIX.4.4|9=57|35=0|34=441|49=SERVER|52=20250116-21:59:50.462|56=CLIENT|10=217|8=FIX.4.4|9=69|35=A|34=442|49=SERVER|52=20250116-22:00:30.045|56=CLIENT|98=0|108=30|10=245|8=FIX.4.4|9=69|35=A|34=443|49=SERVER|52=20250116-22:01:02.443|56=CLIENT|98=0|108=30|10=248|8=FIX.4.4|9=69|35=A|34=444|49=SERVER|52=20250116-22:01:24.390|56=CLIENT|98=0|108=30|10=254|8=FIX.4.4|9=69|35=A|34=445|49=SERVER|52=20250116-22:01:49.965|56=CLIENT|98=0|108=30|10=014|8=FIX.4.4|9=57|35=0|34=446|49=SERVER|52=20250116-22:02:20.868|56=CLIENT|10=218|8=FIX.4.4|9=57|35=0|34=447|49=SERVER|52=20250116-22:02:50.864|56=CLIENT|10=218|8=FIX.4.4|9=57|35=0|34=448|49=SERVER|52=20250116-22:03:20.871|56=CLIENT|10=215|8=FIX.4.4|9=57|35=0|34=449|49=SERVER|52=20250116-22:03:50.872|56=CLIENT|10=220|8=FIX.4.4|9=69|35=A|34=450|49=SERVER|52=20250116-22:04:48.717|56=CLIENT|98=0|108=30|10=007|8=FIX.4.4|9=57|35=0|34=451|49=SERVER|52=20250116-22:05:18.940|56=CLIENT|10=215|8=FIX.4.4|9=57|35=0|34=452|49=SERVER|52=20250116-22:05:48.944|56=CLIENT|10=223|8=FIX.4.4|9=69|35=A|34=453|49=SERVER|52=20250116-22:06:23.794|56=CLIENT|98=0|108=30|10=010|8=FIX.4.4|9=57|35=0|34=454|49=SERVER|52=20250116-22:06:54.212|56=CLIENT|10=211|8=FIX.4.4|9=57|35=0|34=455|49=SERVER|52=20250116-22:07:24.786|56=CLIENT|10=226|8=FIX.4.4|9=57|35=0|34=456|49=SERVER|52=20250116-22:07:54.784|56=CLIENT|10=228|8=FIX.4.4|9=57|35=0|34=457|49=SERVER|52=20250116-22:08:24.783|56=CLIENT|10=226|8=FIX.4.4|9=57|35=0|34=458|49=SERVER|52=20250116-22:08:54.784|56=CLIENT|10=231|8=FIX.4.4|9=57|35=0|34=459|49=SERVER|52=20250116-22:09:24.778|56=CLIENT|10=233|8=FIX.4.4|9=57|35=0|34=460|49=SERVER|52=20250116-22:09:54.781|56=CLIENT|10=222|8=FIX.4.4|9=69|35=A|34=461|49=SERVER|52=20250116-22:10:27.619|56=CLIENT|98=0|108=30|10=004|8=FIX.4.4|9=57|35=0|34=462|49=SERVER|52=20250116-22:10:58.277|56=CLIENT|10=220|8=FIX.4.4|9=57|35=0|34=463|49=SERVER|52=20250116-22:11:28.272|56=CLIENT|10=214|8=FIX.4.4|9=57|35=0|34=464|49=SERVER|52=20250116-22:11:58.270|56=CLIENT|10=216|8=FIX.4.4|9=69|35=A|34=465|49=SERVER|52=20250116-22:12:41.207|56=CLIENT|98=0|108=30|10=255|8=FIX.4.4|9=57|35=0|34=466|49=SERVER|52=20250116-22:13:12.058|56=CLIENT|10=214|8=FIX.4.4|9=57|35=0|34=467|49=SERVER|52=20250116-22:13:42.055|56=CLIENT|10=215|8=FIX.4.4|9=57|35=0|34=468|49=SERVER|52=20250116-22:14:12.054|56=CLIENT|10=213|8=FIX.4.4|9=57|35=0|34=469|49=SERVER|52=20250116-22:14:42.052|56=CLIENT|10=215|8=FIX.4.4|9=69|35=A|34=470|49=SERVER|52=20250116-22:15:05.441|56=CLIENT|98=0|108=30|10=254|8=FIX.4.4|9=57|35=0|34=471|49=SERVER|52=20250116-22:15:35.586|56=CLIENT|10=223|8=FIX.4.4|9=69|35=A|34=472|49=SERVER|52=20250116-22:15:46.163|56=CLIENT|98=0|108=30|10=006|8=FIX.4.4|9=57|35=0|34=473|49=SERVER|52=20250116-22:16:16.617|56=CLIENT|10=220|8=FIX.4.4|9=57|35=0|34=474|49=SERVER|52=20250116-22:16:46.608|56=CLIENT|10=224|8=FIX.4.4|9=57|35=0|34=475|49=SERVER|52=20250116-22:17:16.618|56=CLIENT|10=224|8=FIX.4.4|9=57|35=0|34=476|49=SERVER|52=20250116-22:17:46.610|56=CLIENT|10=220|8=FIX.4.4|9=69|35=A|34=477|49=SERVER|52=20250116-22:18:04.341|56=CLIENT|98=0|108=30|10=006|8=FIX.4.4|9=57|35=0|34=478|49=SERVER|52=20250116-22:18:34.744|56=CLIENT|10=228|8=FIX.4.4|9=69|35=A|34=479|49=SERVER|52=20250116-22:19:00.025|56=CLIENT|98=0|108=30|10=004|8=FIX.4.4|9=57|35=0|34=480|49=SERVER|52=20250116-22:19:30.355|56=CLIENT|10=216|8=FIX.4.4|9=69|35=A|34=481|49=SERVER|52=20250116-22:19:44.865|56=CLIENT|98=0|108=30|10=017|8=FIX.4.4|9=57|35=0|34=482|49=SERVER|52=20250116-22:20:15.763|56=CLIENT|10=216|8=FIX.4.4|9=57|35=0|34=483|49=SERVER|52=20250116-22:20:45.759|56=CLIENT|10=225|8=FIX.4.4|9=57|35=0|34=484|49=SERVER|52=20250116-22:21:16.760|56=CLIENT|10=217|8=FIX.4.4|9=57|35=0|34=485|49=SERVER|52=20250116-22:21:46.752|56=CLIENT|10=222|8=FIX.4.4|9=57|35=0|34=486|49=SERVER|52=20250116-22:22:16.764|56=CLIENT|10=224|8=FIX.4.4|9=57|35=0|34=487|49=SERVER|52=20250116-22:22:47.750|56=CLIENT|10=224|8=FIX.4.4|9=69|35=A|34=488|49=SERVER|52=20250116-22:24:07.190|56=CLIENT|98=0|108=30|10=010|8=FIX.4.4|9=57|35=0|34=489|49=SERVER|52=20250116-22:24:37.567|56=CLIENT|10=233|8=FIX.4.4|9=57|35=0|34=490|49=SERVER|52=20250116-22:25:07.562|56=CLIENT|10=218|8=FIX.4.4|9=57|35=0|34=491|49=SERVER|52=20250116-22:25:37.564|56=CLIENT|10=224|8=FIX.4.4|9=57|35=0|34=492|49=SERVER|52=20250116-22:26:07.569|56=CLIENT|10=228|8=FIX.4.4|9=57|35=0|34=493|49=SERVER|52=20250116-22:26:37.577|56=CLIENT|10=231|8=FIX.4.4|9=69|35=A|34=494|49=SERVER|52=20250116-22:28:03.003|56=CLIENT|98=0|108=30|10=000|8=FIX.4.4|9=57|35=0|34=495|49=SERVER|52=20250116-22:28:33.300|56=CLIENT|10=215|8=FIX.4.4|9=57|35=0|34=496|49=SERVER|52=20250116-22:29:03.302|56=CLIENT|10=216|8=FIX.4.4|9=57|35=0|34=497|49=SERVER|52=20250116-22:29:33.312|56=CLIENT|10=221|8=FIX.4.4|9=57|35=0|34=498|49=SERVER|52=20250116-22:30:03.304|56=CLIENT|10=212|8=FIX.4.4|9=57|35=0|34=499|49=SERVER|52=20250116-22:30:33.297|56=CLIENT|10=227|8=FIX.4.4|9=69|35=A|34=500|49=SERVER|52=20250116-22:31:58.381|56=CLIENT|98=0|108=30|10=001|8=FIX.4.4|9=57|35=0|34=501|49=SERVER|52=20250116-22:32:28.658|56=CLIENT|10=218|8=FIX.4.4|9=69|35=A|34=502|49=SERVER|52=20250116-22:33:16.764|56=CLIENT|98=0|108=30|10=004|8=FIX.4.4|9=57|35=0|34=503|49=SERVER|52=20250116-22:33:47.075|56=CLIENT|10=215|8=FIX.4.4|9=57|35=0|34=504|49=SERVER|52=20250116-22:34:17.084|56=CLIENT|10=214|8=FIX.4.4|9=57|35=0|34=505|49=SERVER|52=20250116-22:34:47.080|56=CLIENT|10=214|8=FIX.4.4|9=57|35=0|34=506|49=SERVER|52=20250116-22:35:17.082|56=CLIENT|10=215|8=FIX.4.4|9=57|35=0|34=507|49=SERVER|52=20250116-22:35:47.081|56=CLIENT|10=218|8=FIX.4.4|9=69|35=A|34=508|49=SERVER|52=20250116-22:37:37.055|56=CLIENT|98=0|108=30|10=010|8=FIX.4.4|9=57|35=0|34=509|49=SERVER|52=20250116-22:38:07.155|56=CLIENT|10=221|8=FIX.4.4|9=57|35=0|34=510|49=SERVER|52=20250116-22:38:37.160|56=CLIENT|10=212|8=FIX.4.4|9=57|35=0|34=511|49=SERVER|52=20250116-22:39:07.154|56=CLIENT|10=214|8=FIX.4.4|9=57|35=0|34=512|49=SERVER|52=20250116-22:39:37.160|56=CLIENT|10=215|8=FIX.4.4|9=57|35=0|34=513|49=SERVER|52=20250116-22:40:07.158|56=CLIENT|10=212|8=FIX.4.4|9=57|35=0|34=514|49=SERVER|52=20250116-22:40:37.151|56=CLIENT|10=209|8=FIX.4.4|9=57|35=0|34=515|49=SERVER|52=20250116-22:41:07.163|56=CLIENT|10=211|8=FIX.4.4|9=57|35=0|34=516|49=SERVER|52=20250116-22:41:37.161|56=CLIENT|10=213|8=FIX.4.4|9=57|35=0|34=517|49=SERVER|52=20250116-22:42:07.165|56=CLIENT|10=216|8=FIX.4.4|9=57|35=0|34=518|49=SERVER|52=20250116-22:42:37.158|56=CLIENT|10=222|8=FIX.4.4|9=57|35=0|34=519|49=SERVER|52=20250116-22:43:07.155|56=CLIENT|10=218|8=FIX.4.4|9=57|35=0|34=520|49=SERVER|52=20250116-22:43:37.164|56=CLIENT|10=213|8=FIX.4.4|9=57|35=0|34=521|49=SERVER|52=20250116-22:44:07.160|56=CLIENT|10=208|